{
  "abi": [
    {
      "inputs": [
        {
          "internalType": "string",
          "name": "uri",
          "type": "string"
        },
        {
          "internalType": "address",
          "name": "initialOwner",
          "type": "address"
        }
      ],
      "stateMutability": "nonpayable",
      "type": "constructor"
    },
    {
      "inputs": [
        {
          "internalType": "address",
          "name": "sender",
          "type": "address"
        },
        {
          "internalType": "uint256",
          "name": "balance",
          "type": "uint256"
        },
        {
          "internalType": "uint256",
          "name": "needed",
          "type": "uint256"
        },
        {
          "internalType": "uint256",
          "name": "tokenId",
          "type": "uint256"
        }
      ],
      "name": "ERC1155InsufficientBalance",
      "type": "error"
    },
    {
      "inputs": [
        {
          "internalType": "address",
          "name": "approver",
          "type": "address"
        }
      ],
      "name": "ERC1155InvalidApprover",
      "type": "error"
    },
    {
      "inputs": [
        {
          "internalType": "uint256",
          "name": "idsLength",
          "type": "uint256"
        },
        {
          "internalType": "uint256",
          "name": "valuesLength",
          "type": "uint256"
        }
      ],
      "name": "ERC1155InvalidArrayLength",
      "type": "error"
    },
    {
      "inputs": [
        {
          "internalType": "address",
          "name": "operator",
          "type": "address"
        }
      ],
      "name": "ERC1155InvalidOperator",
      "type": "error"
    },
    {
      "inputs": [
        {
          "internalType": "address",
          "name": "receiver",
          "type": "address"
        }
      ],
      "name": "ERC1155InvalidReceiver",
      "type": "error"
    },
    {
      "inputs": [
        {
          "internalType": "address",
          "name": "sender",
          "type": "address"
        }
      ],
      "name": "ERC1155InvalidSender",
      "type": "error"
    },
    {
      "inputs": [
        {
          "internalType": "address",
          "name": "operator",
          "type": "address"
        },
        {
          "internalType": "address",
          "name": "owner",
          "type": "address"
        }
      ],
      "name": "ERC1155MissingApprovalForAll",
      "type": "error"
    },
    {
      "inputs": [
        {
          "internalType": "address",
          "name": "owner",
          "type": "address"
        }
      ],
      "name": "OwnableInvalidOwner",
      "type": "error"
    },
    {
      "inputs": [
        {
          "internalType": "address",
          "name": "account",
          "type": "address"
        }
      ],
      "name": "OwnableUnauthorizedAccount",
      "type": "error"
    },
    {
      "anonymous": false,
      "inputs": [
        {
          "indexed": true,
          "internalType": "address",
          "name": "account",
          "type": "address"
        },
        {
          "indexed": true,
          "internalType": "address",
          "name": "operator",
          "type": "address"
        },
        {
          "indexed": false,
          "internalType": "bool",
          "name": "approved",
          "type": "bool"
        }
      ],
      "name": "ApprovalForAll",
      "type": "event"
    },
    {
      "anonymous": false,
      "inputs": [
        {
          "indexed": true,
          "internalType": "address",
          "name": "previousOwner",
          "type": "address"
        },
        {
          "indexed": true,
          "internalType": "address",
          "name": "newOwner",
          "type": "address"
        }
      ],
      "name": "OwnershipTransferred",
      "type": "event"
    },
    {
      "anonymous": false,
      "inputs": [
        {
          "indexed": true,
          "internalType": "address",
          "name": "operator",
          "type": "address"
        },
        {
          "indexed": true,
          "internalType": "address",
          "name": "from",
          "type": "address"
        },
        {
          "indexed": true,
          "internalType": "address",
          "name": "to",
          "type": "address"
        },
        {
          "indexed": false,
          "internalType": "uint256[]",
          "name": "ids",
          "type": "uint256[]"
        },
        {
          "indexed": false,
          "internalType": "uint256[]",
          "name": "values",
          "type": "uint256[]"
        }
      ],
      "name": "TransferBatch",
      "type": "event"
    },
    {
      "anonymous": false,
      "inputs": [
        {
          "indexed": true,
          "internalType": "address",
          "name": "operator",
          "type": "address"
        },
        {
          "indexed": true,
          "internalType": "address",
          "name": "from",
          "type": "address"
        },
        {
          "indexed": true,
          "internalType": "address",
          "name": "to",
          "type": "address"
        },
        {
          "indexed": false,
          "internalType": "uint256",
          "name": "id",
          "type": "uint256"
        },
        {
          "indexed": false,
          "internalType": "uint256",
          "name": "value",
          "type": "uint256"
        }
      ],
      "name": "TransferSingle",
      "type": "event"
    },
    {
      "anonymous": false,
      "inputs": [
        {
          "indexed": false,
          "internalType": "string",
          "name": "value",
          "type": "string"
        },
        {
          "indexed": true,
          "internalType": "uint256",
          "name": "id",
          "type": "uint256"
        }
      ],
      "name": "URI",
      "type": "event"
    },
    {
      "inputs": [],
      "name": "FREEMIUM",
      "outputs": [
        {
          "internalType": "uint256",
          "name": "",
          "type": "uint256"
        }
      ],
      "stateMutability": "view",
      "type": "function"
    },
    {
      "inputs": [],
      "name": "PAID",
      "outputs": [
        {
          "internalType": "uint256",
          "name": "",
          "type": "uint256"
        }
      ],
      "stateMutability": "view",
      "type": "function"
    },
    {
      "inputs": [
        {
          "internalType": "address",
          "name": "from",
          "type": "address"
        },
        {
          "internalType": "uint256",
          "name": "id",
          "type": "uint256"
        },
        {
          "internalType": "uint256",
          "name": "amount",
          "type": "uint256"
        }
      ],
      "name": "adminBurn",
      "outputs": [],
      "stateMutability": "nonpayable",
      "type": "function"
    },
    {
      "inputs": [
        {
          "internalType": "address",
          "name": "account",
          "type": "address"
        },
        {
          "internalType": "uint256",
          "name": "id",
          "type": "uint256"
        }
      ],
      "name": "balanceOf",
      "outputs": [
        {
          "internalType": "uint256",
          "name": "",
          "type": "uint256"
        }
      ],
      "stateMutability": "view",
      "type": "function"
    },
    {
      "inputs": [
        {
          "internalType": "address[]",
          "name": "accounts",
          "type": "address[]"
        },
        {
          "internalType": "uint256[]",
          "name": "ids",
          "type": "uint256[]"
        }
      ],
      "name": "balanceOfBatch",
      "outputs": [
        {
          "internalType": "uint256[]",
          "name": "",
          "type": "uint256[]"
        }
      ],
      "stateMutability": "view",
      "type": "function"
    },
    {
      "inputs": [
        {
          "internalType": "uint256",
          "name": "id",
          "type": "uint256"
        },
        {
          "internalType": "uint256",
          "name": "amount",
          "type": "uint256"
        }
      ],
      "name": "burn",
      "outputs": [],
      "stateMutability": "nonpayable",
      "type": "function"
    },
    {
      "inputs": [
        {
          "internalType": "address",
          "name": "account",
          "type": "address"
        },
        {
          "internalType": "address",
          "name": "operator",
          "type": "address"
        }
      ],
      "name": "isApprovedForAll",
      "outputs": [
        {
          "internalType": "bool",
          "name": "",
          "type": "bool"
        }
      ],
      "stateMutability": "view",
      "type": "function"
    },
    {
      "inputs": [
        {
          "internalType": "address",
          "name": "to",
          "type": "address"
        },
        {
          "internalType": "uint256",
          "name": "id",
          "type": "uint256"
        },
        {
          "internalType": "uint256",
          "name": "amount",
          "type": "uint256"
        }
      ],
      "name": "mint",
      "outputs": [],
      "stateMutability": "nonpayable",
      "type": "function"
    },
    {
      "inputs": [],
      "name": "owner",
      "outputs": [
        {
          "internalType": "address",
          "name": "",
          "type": "address"
        }
      ],
      "stateMutability": "view",
      "type": "function"
    },
    {
      "inputs": [],
      "name": "renounceOwnership",
      "outputs": [],
      "stateMutability": "nonpayable",
      "type": "function"
    },
    {
      "inputs": [
        {
          "internalType": "address",
          "name": "from",
          "type": "address"
        },
        {
          "internalType": "address",
          "name": "to",
          "type": "address"
        },
        {
          "internalType": "uint256[]",
          "name": "ids",
          "type": "uint256[]"
        },
        {
          "internalType": "uint256[]",
          "name": "values",
          "type": "uint256[]"
        },
        {
          "internalType": "bytes",
          "name": "data",
          "type": "bytes"
        }
      ],
      "name": "safeBatchTransferFrom",
      "outputs": [],
      "stateMutability": "nonpayable",
      "type": "function"
    },
    {
      "inputs": [
        {
          "internalType": "address",
          "name": "from",
          "type": "address"
        },
        {
          "internalType": "address",
          "name": "to",
          "type": "address"
        },
        {
          "internalType": "uint256",
          "name": "id",
          "type": "uint256"
        },
        {
          "internalType": "uint256",
          "name": "value",
          "type": "uint256"
        },
        {
          "internalType": "bytes",
          "name": "data",
          "type": "bytes"
        }
      ],
      "name": "safeTransferFrom",
      "outputs": [],
      "stateMutability": "nonpayable",
      "type": "function"
    },
    {
      "inputs": [
        {
          "internalType": "address",
          "name": "operator",
          "type": "address"
        },
        {
          "internalType": "bool",
          "name": "approved",
          "type": "bool"
        }
      ],
      "name": "setApprovalForAll",
      "outputs": [],
      "stateMutability": "nonpayable",
      "type": "function"
    },
    {
      "inputs": [
        {
          "internalType": "bytes4",
          "name": "interfaceId",
          "type": "bytes4"
        }
      ],
      "name": "supportsInterface",
      "outputs": [
        {
          "internalType": "bool",
          "name": "",
          "type": "bool"
        }
      ],
      "stateMutability": "view",
      "type": "function"
    },
    {
      "inputs": [
        {
          "internalType": "address",
          "name": "newOwner",
          "type": "address"
        }
      ],
      "name": "transferOwnership",
      "outputs": [],
      "stateMutability": "nonpayable",
      "type": "function"
    },
    {
      "inputs": [
        {
          "internalType": "uint256",
          "name": "",
          "type": "uint256"
        }
      ],
      "name": "uri",
      "outputs": [
        {
          "internalType": "string",
          "name": "",
          "type": "string"
        }
      ],
      "stateMutability": "view",
      "type": "function"
    }
  ],
  "devdoc": {
    "errors": {
      "ERC1155InsufficientBalance(address,uint256,uint256,uint256)": [
        {
          "details": "Indicates an error related to the current `balance` of a `sender`. Used in transfers.",
          "params": {
            "balance": "Current balance for the interacting account.",
            "needed": "Minimum amount required to perform a transfer.",
            "sender": "Address whose tokens are being transferred.",
            "tokenId": "Identifier number of a token."
          }
        }
      ],
      "ERC1155InvalidApprover(address)": [
        {
          "details": "Indicates a failure with the `approver` of a token to be approved. Used in approvals.",
          "params": {
            "approver": "Address initiating an approval operation."
          }
        }
      ],
      "ERC1155InvalidArrayLength(uint256,uint256)": [
        {
          "details": "Indicates an array length mismatch between ids and values in a safeBatchTransferFrom operation. Used in batch transfers.",
          "params": {
            "idsLength": "Length of the array of token identifiers",
            "valuesLength": "Length of the array of token amounts"
          }
        }
      ],
      "ERC1155InvalidOperator(address)": [
        {
          "details": "Indicates a failure with the `operator` to be approved. Used in approvals.",
          "params": {
            "operator": "Address that may be allowed to operate on tokens without being their owner."
          }
        }
      ],
      "ERC1155InvalidReceiver(address)": [
        {
          "details": "Indicates a failure with the token `receiver`. Used in transfers.",
          "params": {
            "receiver": "Address to which tokens are being transferred."
          }
        }
      ],
      "ERC1155InvalidSender(address)": [
        {
          "details": "Indicates a failure with the token `sender`. Used in transfers.",
          "params": {
            "sender": "Address whose tokens are being transferred."
          }
        }
      ],
      "ERC1155MissingApprovalForAll(address,address)": [
        {
          "details": "Indicates a failure with the `operator`’s approval. Used in transfers.",
          "params": {
            "operator": "Address that may be allowed to operate on tokens without being their owner.",
            "owner": "Address of the current owner of a token."
          }
        }
      ],
      "OwnableInvalidOwner(address)": [
        {
          "details": "The owner is not a valid owner account. (eg. `address(0)`)"
        }
      ],
      "OwnableUnauthorizedAccount(address)": [
        {
          "details": "The caller account is not authorized to perform an operation."
        }
      ]
    },
    "events": {
      "ApprovalForAll(address,address,bool)": {
        "details": "Emitted when `account` grants or revokes permission to `operator` to transfer their tokens, according to `approved`."
      },
      "TransferBatch(address,address,address,uint256[],uint256[])": {
        "details": "Equivalent to multiple {TransferSingle} events, where `operator`, `from` and `to` are the same for all transfers."
      },
      "TransferSingle(address,address,address,uint256,uint256)": {
        "details": "Emitted when `value` amount of tokens of type `id` are transferred from `from` to `to` by `operator`."
      },
      "URI(string,uint256)": {
        "details": "Emitted when the URI for token type `id` changes to `value`, if it is a non-programmatic URI. If an {URI} event was emitted for `id`, the standard https://eips.ethereum.org/EIPS/eip-1155#metadata-extensions[guarantees] that `value` will equal the value returned by {IERC1155MetadataURI-uri}."
      }
    },
    "kind": "dev",
    "methods": {
      "balanceOf(address,uint256)": {
        "details": "See {IERC1155-balanceOf}."
      },
      "balanceOfBatch(address[],uint256[])": {
        "details": "See {IERC1155-balanceOfBatch}. Requirements: - `accounts` and `ids` must have the same length."
      },
      "isApprovedForAll(address,address)": {
        "details": "See {IERC1155-isApprovedForAll}."
      },
      "owner()": {
        "details": "Returns the address of the current owner."
      },
      "renounceOwnership()": {
        "details": "Leaves the contract without owner. It will not be possible to call `onlyOwner` functions. Can only be called by the current owner. NOTE: Renouncing ownership will leave the contract without an owner, thereby disabling any functionality that is only available to the owner."
      },
      "safeBatchTransferFrom(address,address,uint256[],uint256[],bytes)": {
        "details": "See {IERC1155-safeBatchTransferFrom}."
      },
      "safeTransferFrom(address,address,uint256,uint256,bytes)": {
        "details": "See {IERC1155-safeTransferFrom}."
      },
      "setApprovalForAll(address,bool)": {
        "details": "See {IERC1155-setApprovalForAll}."
      },
      "supportsInterface(bytes4)": {
        "details": "See {IERC165-supportsInterface}."
      },
      "transferOwnership(address)": {
        "details": "Transfers ownership of the contract to a new account (`newOwner`). Can only be called by the current owner."
      },
      "uri(uint256)": {
        "details": "See {IERC1155MetadataURI-uri}. This implementation returns the same URI for *all* token types. It relies on the token type ID substitution mechanism https://eips.ethereum.org/EIPS/eip-1155#metadata[defined in the ERC]. Clients calling this function must replace the `\\{id\\}` substring with the actual token type ID."
      }
    },
    "version": 1
  },
  "evm": {
    "assembly": "    /* \"kneadmonthly.sol\":172:1290  contract KneadMembership is ERC1155, Ownable {... */\n  mstore(0x40, 0x80)\n    /* \"kneadmonthly.sol\":304:394  constructor(string memory uri, address initialOwner) ERC1155(uri) Ownable(initialOwner) {} */\n  callvalue\n  dup1\n  iszero\n  tag_1\n  jumpi\n  0x00\n  dup1\n  revert\ntag_1:\n  pop\n  mload(0x40)\n  sub(codesize, bytecodeSize)\n  dup1\n  bytecodeSize\n  dup4\n  codecopy\n  dup2\n  add\n  0x40\n  dup2\n  swap1\n  mstore\n  tag_2\n  swap2\n  tag_3\n  jump\t// in\ntag_2:\n    /* \"kneadmonthly.sol\":378:390  initialOwner */\n  dup1\n    /* \"kneadmonthly.sol\":365:368  uri */\n  dup3\n    /* \"@openzeppelin/contracts/token/ERC1155/ERC1155.sol\":1291:1304   */\n  tag_8\n    /* \"kneadmonthly.sol\":365:368  uri */\n  dup2\n    /* \"@openzeppelin/contracts/token/ERC1155/ERC1155.sol\":1291:1298   */\n  tag_9\n    /* \"@openzeppelin/contracts/token/ERC1155/ERC1155.sol\":1291:1304   */\n  jump\t// in\ntag_8:\n  pop\n  sub(shl(0xa0, 0x01), 0x01)\n    /* \"@openzeppelin/contracts/access/Ownable.sol\":1273:1299   */\n  dup2\n  and\n    /* \"@openzeppelin/contracts/access/Ownable.sol\":1269:1364   */\n  tag_11\n  jumpi\n    /* \"@openzeppelin/contracts/access/Ownable.sol\":1322:1353   */\n  mload(0x40)\n  shl(0xe0, 0x1e4fbdf7)\n  dup2\n  mstore\n    /* \"@openzeppelin/contracts/access/Ownable.sol\":1350:1351   */\n  0x00\n    /* \"@openzeppelin/contracts/access/Ownable.sol\":1322:1353   */\n  0x04\n  dup3\n  add\n    /* \"#utility.yul\":1486:1537   */\n  mstore\n    /* \"#utility.yul\":1459:1477   */\n  0x24\n  add\n    /* \"@openzeppelin/contracts/access/Ownable.sol\":1322:1353   */\n  mload(0x40)\n  dup1\n  swap2\n  sub\n  swap1\n  revert\n    /* \"@openzeppelin/contracts/access/Ownable.sol\":1269:1364   */\ntag_11:\n    /* \"@openzeppelin/contracts/access/Ownable.sol\":1373:1405   */\n  tag_14\n    /* \"@openzeppelin/contracts/access/Ownable.sol\":1392:1404   */\n  dup2\n    /* \"@openzeppelin/contracts/access/Ownable.sol\":1373:1391   */\n  tag_15\n    /* \"@openzeppelin/contracts/access/Ownable.sol\":1373:1405   */\n  jump\t// in\ntag_14:\n    /* \"@openzeppelin/contracts/access/Ownable.sol\":1225:1412   */\n  pop\n    /* \"kneadmonthly.sol\":304:394  constructor(string memory uri, address initialOwner) ERC1155(uri) Ownable(initialOwner) {} */\n  pop\n  pop\n    /* \"kneadmonthly.sol\":172:1290  contract KneadMembership is ERC1155, Ownable {... */\n  jump(tag_28)\n    /* \"@openzeppelin/contracts/token/ERC1155/ERC1155.sol\":10290:10376   */\ntag_9:\n    /* \"@openzeppelin/contracts/token/ERC1155/ERC1155.sol\":10356:10360   */\n  0x02\n    /* \"@openzeppelin/contracts/token/ERC1155/ERC1155.sol\":10356:10369   */\n  tag_19\n    /* \"@openzeppelin/contracts/token/ERC1155/ERC1155.sol\":10363:10369   */\n  dup3\n    /* \"@openzeppelin/contracts/token/ERC1155/ERC1155.sol\":10356:10360   */\n  dup3\n    /* \"@openzeppelin/contracts/token/ERC1155/ERC1155.sol\":10356:10369   */\n  tag_20\n  jump\t// in\ntag_19:\n  pop\n    /* \"@openzeppelin/contracts/token/ERC1155/ERC1155.sol\":10290:10376   */\n  pop\n  jump\t// out\n    /* \"@openzeppelin/contracts/access/Ownable.sol\":2912:3099   */\ntag_15:\n    /* \"@openzeppelin/contracts/access/Ownable.sol\":3004:3010   */\n  0x03\n  dup1\n  sload\n  sub(shl(0xa0, 0x01), 0x01)\n    /* \"@openzeppelin/contracts/access/Ownable.sol\":3020:3037   */\n  dup4\n  dup2\n  and\n  not(sub(shl(0xa0, 0x01), 0x01))\n  dup4\n  and\n  dup2\n  or\n  swap1\n  swap4\n  sstore\n    /* \"@openzeppelin/contracts/access/Ownable.sol\":3052:3092   */\n  mload(0x40)\n    /* \"@openzeppelin/contracts/access/Ownable.sol\":3004:3010   */\n  swap2\n  and\n  swap2\n    /* \"@openzeppelin/contracts/access/Ownable.sol\":3020:3037   */\n  swap1\n    /* \"@openzeppelin/contracts/access/Ownable.sol\":3004:3010   */\n  dup3\n  swap1\n    /* \"@openzeppelin/contracts/access/Ownable.sol\":3052:3092   */\n  0x8be0079c531659141344cd1fd0a4f28419497f9722a3daafe3b4186f6b6457e0\n  swap1\n    /* \"@openzeppelin/contracts/access/Ownable.sol\":2985:3001   */\n  0x00\n  swap1\n    /* \"@openzeppelin/contracts/access/Ownable.sol\":3052:3092   */\n  log3\n    /* \"@openzeppelin/contracts/access/Ownable.sol\":2975:3099   */\n  pop\n    /* \"@openzeppelin/contracts/access/Ownable.sol\":2912:3099   */\n  pop\n  jump\t// out\n    /* \"#utility.yul\":14:141   */\ntag_22:\n    /* \"#utility.yul\":75:85   */\n  0x4e487b71\n    /* \"#utility.yul\":70:73   */\n  0xe0\n    /* \"#utility.yul\":66:86   */\n  shl\n    /* \"#utility.yul\":63:64   */\n  0x00\n    /* \"#utility.yul\":56:87   */\n  mstore\n    /* \"#utility.yul\":106:110   */\n  0x41\n    /* \"#utility.yul\":103:104   */\n  0x04\n    /* \"#utility.yul\":96:111   */\n  mstore\n    /* \"#utility.yul\":130:134   */\n  0x24\n    /* \"#utility.yul\":127:128   */\n  0x00\n    /* \"#utility.yul\":120:135   */\n  revert\n    /* \"#utility.yul\":146:323   */\ntag_23:\n    /* \"#utility.yul\":225:238   */\n  dup1\n  mload\n  sub(shl(0xa0, 0x01), 0x01)\n    /* \"#utility.yul\":267:298   */\n  dup2\n  and\n    /* \"#utility.yul\":257:299   */\n  dup2\n  eq\n    /* \"#utility.yul\":247:317   */\n  tag_31\n  jumpi\n    /* \"#utility.yul\":313:314   */\n  0x00\n    /* \"#utility.yul\":310:311   */\n  dup1\n    /* \"#utility.yul\":303:315   */\n  revert\n    /* \"#utility.yul\":247:317   */\ntag_31:\n    /* \"#utility.yul\":146:323   */\n  swap2\n  swap1\n  pop\n  jump\t// out\n    /* \"#utility.yul\":328:1335   */\ntag_3:\n    /* \"#utility.yul\":417:423   */\n  0x00\n    /* \"#utility.yul\":425:431   */\n  dup1\n    /* \"#utility.yul\":478:480   */\n  0x40\n    /* \"#utility.yul\":466:475   */\n  dup4\n    /* \"#utility.yul\":457:464   */\n  dup6\n    /* \"#utility.yul\":453:476   */\n  sub\n    /* \"#utility.yul\":449:481   */\n  slt\n    /* \"#utility.yul\":446:498   */\n  iszero\n  tag_33\n  jumpi\n    /* \"#utility.yul\":494:495   */\n  0x00\n    /* \"#utility.yul\":491:492   */\n  dup1\n    /* \"#utility.yul\":484:496   */\n  revert\n    /* \"#utility.yul\":446:498   */\ntag_33:\n    /* \"#utility.yul\":521:537   */\n  dup3\n  mload\n  sub(shl(0x40, 0x01), 0x01)\n    /* \"#utility.yul\":586:600   */\n  dup1\n  dup3\n  gt\n    /* \"#utility.yul\":583:617   */\n  iszero\n  tag_34\n  jumpi\n    /* \"#utility.yul\":613:614   */\n  0x00\n    /* \"#utility.yul\":610:611   */\n  dup1\n    /* \"#utility.yul\":603:615   */\n  revert\n    /* \"#utility.yul\":583:617   */\ntag_34:\n    /* \"#utility.yul\":651:657   */\n  dup2\n    /* \"#utility.yul\":640:649   */\n  dup6\n    /* \"#utility.yul\":636:658   */\n  add\n    /* \"#utility.yul\":626:658   */\n  swap2\n  pop\n    /* \"#utility.yul\":696:703   */\n  dup6\n    /* \"#utility.yul\":689:693   */\n  0x1f\n    /* \"#utility.yul\":685:687   */\n  dup4\n    /* \"#utility.yul\":681:694   */\n  add\n    /* \"#utility.yul\":677:704   */\n  slt\n    /* \"#utility.yul\":667:722   */\n  tag_35\n  jumpi\n    /* \"#utility.yul\":718:719   */\n  0x00\n    /* \"#utility.yul\":715:716   */\n  dup1\n    /* \"#utility.yul\":708:720   */\n  revert\n    /* \"#utility.yul\":667:722   */\ntag_35:\n    /* \"#utility.yul\":747:749   */\n  dup2\n    /* \"#utility.yul\":741:750   */\n  mload\n    /* \"#utility.yul\":769:771   */\n  dup2\n    /* \"#utility.yul\":765:767   */\n  dup2\n    /* \"#utility.yul\":762:772   */\n  gt\n    /* \"#utility.yul\":759:795   */\n  iszero\n  tag_37\n  jumpi\n    /* \"#utility.yul\":775:793   */\n  tag_37\n  tag_22\n  jump\t// in\ntag_37:\n    /* \"#utility.yul\":850:852   */\n  0x40\n    /* \"#utility.yul\":844:853   */\n  mload\n    /* \"#utility.yul\":818:820   */\n  0x1f\n    /* \"#utility.yul\":904:917   */\n  dup3\n  add\n  not(0x1f)\n    /* \"#utility.yul\":900:922   */\n  swap1\n  dup2\n  and\n    /* \"#utility.yul\":924:926   */\n  0x3f\n    /* \"#utility.yul\":896:927   */\n  add\n    /* \"#utility.yul\":892:932   */\n  and\n    /* \"#utility.yul\":880:933   */\n  dup2\n  add\n  swap1\n    /* \"#utility.yul\":948:966   */\n  dup4\n  dup3\n  gt\n    /* \"#utility.yul\":968:990   */\n  dup2\n  dup4\n  lt\n    /* \"#utility.yul\":945:991   */\n  or\n    /* \"#utility.yul\":942:1014   */\n  iszero\n  tag_39\n  jumpi\n    /* \"#utility.yul\":994:1012   */\n  tag_39\n  tag_22\n  jump\t// in\ntag_39:\n    /* \"#utility.yul\":1034:1044   */\n  dup2\n    /* \"#utility.yul\":1030:1032   */\n  0x40\n    /* \"#utility.yul\":1023:1045   */\n  mstore\n    /* \"#utility.yul\":1069:1071   */\n  dup3\n    /* \"#utility.yul\":1061:1067   */\n  dup2\n    /* \"#utility.yul\":1054:1072   */\n  mstore\n    /* \"#utility.yul\":1111:1118   */\n  dup9\n    /* \"#utility.yul\":1104:1108   */\n  0x20\n    /* \"#utility.yul\":1099:1101   */\n  dup5\n    /* \"#utility.yul\":1095:1097   */\n  dup8\n    /* \"#utility.yul\":1091:1102   */\n  add\n    /* \"#utility.yul\":1087:1109   */\n  add\n    /* \"#utility.yul\":1084:1119   */\n  gt\n    /* \"#utility.yul\":1081:1136   */\n  iszero\n  tag_40\n  jumpi\n    /* \"#utility.yul\":1132:1133   */\n  0x00\n    /* \"#utility.yul\":1129:1130   */\n  dup1\n    /* \"#utility.yul\":1122:1134   */\n  revert\n    /* \"#utility.yul\":1081:1136   */\ntag_40:\n    /* \"#utility.yul\":1185:1187   */\n  dup3\n    /* \"#utility.yul\":1178:1182   */\n  0x20\n    /* \"#utility.yul\":1174:1176   */\n  dup7\n    /* \"#utility.yul\":1170:1183   */\n  add\n    /* \"#utility.yul\":1163:1167   */\n  0x20\n    /* \"#utility.yul\":1155:1161   */\n  dup4\n    /* \"#utility.yul\":1151:1168   */\n  add\n    /* \"#utility.yul\":1145:1188   */\n  mcopy\n    /* \"#utility.yul\":1232:1233   */\n  0x00\n    /* \"#utility.yul\":1225:1229   */\n  0x20\n    /* \"#utility.yul\":1220:1222   */\n  dup5\n    /* \"#utility.yul\":1212:1218   */\n  dup4\n    /* \"#utility.yul\":1208:1223   */\n  add\n    /* \"#utility.yul\":1204:1230   */\n  add\n    /* \"#utility.yul\":1197:1234   */\n  mstore\n    /* \"#utility.yul\":1253:1259   */\n  dup1\n    /* \"#utility.yul\":1243:1259   */\n  swap7\n  pop\n  pop\n  pop\n  pop\n  pop\n  pop\n    /* \"#utility.yul\":1278:1329   */\n  tag_41\n    /* \"#utility.yul\":1323:1327   */\n  0x20\n    /* \"#utility.yul\":1312:1321   */\n  dup5\n    /* \"#utility.yul\":1308:1328   */\n  add\n    /* \"#utility.yul\":1278:1329   */\n  tag_23\n  jump\t// in\ntag_41:\n    /* \"#utility.yul\":1268:1329   */\n  swap1\n  pop\n    /* \"#utility.yul\":328:1335   */\n  swap3\n  pop\n  swap3\n  swap1\n  pop\n  jump\t// out\n    /* \"#utility.yul\":1548:1928   */\ntag_24:\n    /* \"#utility.yul\":1627:1628   */\n  0x01\n    /* \"#utility.yul\":1623:1635   */\n  dup2\n  dup2\n  shr\n  swap1\n    /* \"#utility.yul\":1670:1682   */\n  dup3\n  and\n  dup1\n    /* \"#utility.yul\":1691:1752   */\n  tag_44\n  jumpi\n    /* \"#utility.yul\":1745:1749   */\n  0x7f\n    /* \"#utility.yul\":1737:1743   */\n  dup3\n    /* \"#utility.yul\":1733:1750   */\n  and\n    /* \"#utility.yul\":1723:1750   */\n  swap2\n  pop\n    /* \"#utility.yul\":1691:1752   */\ntag_44:\n    /* \"#utility.yul\":1798:1800   */\n  0x20\n    /* \"#utility.yul\":1790:1796   */\n  dup3\n    /* \"#utility.yul\":1787:1801   */\n  lt\n    /* \"#utility.yul\":1767:1785   */\n  dup2\n    /* \"#utility.yul\":1764:1802   */\n  sub\n    /* \"#utility.yul\":1761:1922   */\n  tag_45\n  jumpi\n    /* \"#utility.yul\":1844:1854   */\n  0x4e487b71\n    /* \"#utility.yul\":1839:1842   */\n  0xe0\n    /* \"#utility.yul\":1835:1855   */\n  shl\n    /* \"#utility.yul\":1832:1833   */\n  0x00\n    /* \"#utility.yul\":1825:1856   */\n  mstore\n    /* \"#utility.yul\":1879:1883   */\n  0x22\n    /* \"#utility.yul\":1876:1877   */\n  0x04\n    /* \"#utility.yul\":1869:1884   */\n  mstore\n    /* \"#utility.yul\":1907:1911   */\n  0x24\n    /* \"#utility.yul\":1904:1905   */\n  0x00\n    /* \"#utility.yul\":1897:1912   */\n  revert\n    /* \"#utility.yul\":1761:1922   */\ntag_45:\n  pop\n    /* \"#utility.yul\":1548:1928   */\n  swap2\n  swap1\n  pop\n  jump\t// out\n    /* \"#utility.yul\":2059:2577   */\ntag_26:\n    /* \"#utility.yul\":2161:2163   */\n  0x1f\n    /* \"#utility.yul\":2156:2159   */\n  dup3\n    /* \"#utility.yul\":2153:2164   */\n  gt\n    /* \"#utility.yul\":2150:2571   */\n  iszero\n  tag_48\n  jumpi\n    /* \"#utility.yul\":2197:2202   */\n  dup1\n    /* \"#utility.yul\":2194:2195   */\n  0x00\n    /* \"#utility.yul\":2187:2203   */\n  mstore\n    /* \"#utility.yul\":2241:2245   */\n  0x20\n    /* \"#utility.yul\":2238:2239   */\n  0x00\n    /* \"#utility.yul\":2228:2246   */\n  keccak256\n    /* \"#utility.yul\":2311:2313   */\n  0x1f\n    /* \"#utility.yul\":2299:2309   */\n  dup5\n    /* \"#utility.yul\":2295:2314   */\n  add\n    /* \"#utility.yul\":2292:2293   */\n  0x05\n    /* \"#utility.yul\":2288:2315   */\n  shr\n    /* \"#utility.yul\":2282:2286   */\n  dup2\n    /* \"#utility.yul\":2278:2316   */\n  add\n    /* \"#utility.yul\":2347:2351   */\n  0x20\n    /* \"#utility.yul\":2335:2345   */\n  dup6\n    /* \"#utility.yul\":2332:2352   */\n  lt\n    /* \"#utility.yul\":2329:2376   */\n  iszero\n  tag_49\n  jumpi\n  pop\n    /* \"#utility.yul\":2370:2374   */\n  dup1\n    /* \"#utility.yul\":2329:2376   */\ntag_49:\n    /* \"#utility.yul\":2425:2427   */\n  0x1f\n    /* \"#utility.yul\":2420:2423   */\n  dup5\n    /* \"#utility.yul\":2416:2428   */\n  add\n    /* \"#utility.yul\":2413:2414   */\n  0x05\n    /* \"#utility.yul\":2409:2429   */\n  shr\n    /* \"#utility.yul\":2403:2407   */\n  dup3\n    /* \"#utility.yul\":2399:2430   */\n  add\n    /* \"#utility.yul\":2389:2430   */\n  swap2\n  pop\n    /* \"#utility.yul\":2480:2561   */\ntag_50:\n    /* \"#utility.yul\":2498:2500   */\n  dup2\n    /* \"#utility.yul\":2491:2496   */\n  dup2\n    /* \"#utility.yul\":2488:2501   */\n  lt\n    /* \"#utility.yul\":2480:2561   */\n  iszero\n  tag_52\n  jumpi\n    /* \"#utility.yul\":2557:2558   */\n  0x00\n    /* \"#utility.yul\":2543:2559   */\n  dup2\n  sstore\n    /* \"#utility.yul\":2524:2525   */\n  0x01\n    /* \"#utility.yul\":2513:2526   */\n  add\n    /* \"#utility.yul\":2480:2561   */\n  jump(tag_50)\ntag_52:\n    /* \"#utility.yul\":2484:2487   */\n  pop\n  pop\n    /* \"#utility.yul\":2150:2571   */\ntag_48:\n    /* \"#utility.yul\":2059:2577   */\n  pop\n  pop\n  pop\n  jump\t// out\n    /* \"#utility.yul\":2753:4098   */\ntag_20:\n    /* \"#utility.yul\":2873:2883   */\n  dup2\n  mload\n  sub(shl(0x40, 0x01), 0x01)\n    /* \"#utility.yul\":2895:2925   */\n  dup2\n  gt\n    /* \"#utility.yul\":2892:2948   */\n  iszero\n  tag_56\n  jumpi\n    /* \"#utility.yul\":2928:2946   */\n  tag_56\n  tag_22\n  jump\t// in\ntag_56:\n    /* \"#utility.yul\":2957:3054   */\n  tag_57\n    /* \"#utility.yul\":3047:3053   */\n  dup2\n    /* \"#utility.yul\":3007:3045   */\n  tag_58\n    /* \"#utility.yul\":3039:3043   */\n  dup5\n    /* \"#utility.yul\":3033:3044   */\n  sload\n    /* \"#utility.yul\":3007:3045   */\n  tag_24\n  jump\t// in\ntag_58:\n    /* \"#utility.yul\":3001:3005   */\n  dup5\n    /* \"#utility.yul\":2957:3054   */\n  tag_26\n  jump\t// in\ntag_57:\n    /* \"#utility.yul\":3109:3113   */\n  0x20\n  dup1\n    /* \"#utility.yul\":3166:3168   */\n  0x1f\n    /* \"#utility.yul\":3155:3169   */\n  dup4\n  gt\n    /* \"#utility.yul\":3183:3184   */\n  0x01\n    /* \"#utility.yul\":3178:3841   */\n  dup2\n  eq\n  tag_60\n  jumpi\n    /* \"#utility.yul\":3885:3886   */\n  0x00\n    /* \"#utility.yul\":3902:3908   */\n  dup5\n    /* \"#utility.yul\":3899:3988   */\n  iszero\n  tag_61\n  jumpi\n  pop\n    /* \"#utility.yul\":3954:3973   */\n  dup6\n  dup4\n  add\n    /* \"#utility.yul\":3948:3974   */\n  mload\n    /* \"#utility.yul\":3899:3988   */\ntag_61:\n  not(0x00)\n    /* \"#utility.yul\":2710:2711   */\n  0x03\n    /* \"#utility.yul\":2706:2717   */\n  dup7\n  swap1\n  shl\n    /* \"#utility.yul\":2702:2726   */\n  shr\n    /* \"#utility.yul\":2698:2727   */\n  not\n    /* \"#utility.yul\":2688:2728   */\n  and\n    /* \"#utility.yul\":2734:2735   */\n  0x01\n    /* \"#utility.yul\":2730:2741   */\n  dup6\n  swap1\n  shl\n    /* \"#utility.yul\":2685:2742   */\n  or\n    /* \"#utility.yul\":4001:4082   */\n  dup6\n  sstore\n    /* \"#utility.yul\":3148:4092   */\n  jump(tag_59)\n    /* \"#utility.yul\":3178:3841   */\ntag_60:\n    /* \"#utility.yul\":2006:2007   */\n  0x00\n    /* \"#utility.yul\":1999:2013   */\n  dup6\n  dup2\n  mstore\n    /* \"#utility.yul\":2043:2047   */\n  0x20\n    /* \"#utility.yul\":2030:2048   */\n  dup2\n  keccak256\n  not(0x1f)\n    /* \"#utility.yul\":3214:3234   */\n  dup7\n  and\n  swap2\n    /* \"#utility.yul\":3332:3568   */\ntag_64:\n    /* \"#utility.yul\":3346:3353   */\n  dup3\n    /* \"#utility.yul\":3343:3344   */\n  dup2\n    /* \"#utility.yul\":3340:3354   */\n  lt\n    /* \"#utility.yul\":3332:3568   */\n  iszero\n  tag_66\n  jumpi\n    /* \"#utility.yul\":3435:3454   */\n  dup9\n  dup7\n  add\n    /* \"#utility.yul\":3429:3455   */\n  mload\n    /* \"#utility.yul\":3414:3456   */\n  dup3\n  sstore\n    /* \"#utility.yul\":3527:3554   */\n  swap5\n  dup5\n  add\n  swap5\n    /* \"#utility.yul\":3495:3496   */\n  0x01\n    /* \"#utility.yul\":3483:3497   */\n  swap1\n  swap2\n  add\n  swap1\n    /* \"#utility.yul\":3362:3381   */\n  dup5\n  add\n    /* \"#utility.yul\":3332:3568   */\n  jump(tag_64)\ntag_66:\n    /* \"#utility.yul\":3336:3339   */\n  pop\n    /* \"#utility.yul\":3596:3602   */\n  dup6\n    /* \"#utility.yul\":3587:3594   */\n  dup3\n    /* \"#utility.yul\":3584:3603   */\n  lt\n    /* \"#utility.yul\":3581:3782   */\n  iszero\n  tag_67\n  jumpi\n    /* \"#utility.yul\":3657:3676   */\n  dup8\n  dup6\n  add\n    /* \"#utility.yul\":3651:3677   */\n  mload\n  not(0x00)\n    /* \"#utility.yul\":3740:3741   */\n  0x03\n    /* \"#utility.yul\":3736:3750   */\n  dup9\n  swap1\n  shl\n    /* \"#utility.yul\":3752:3755   */\n  0xf8\n    /* \"#utility.yul\":3732:3756   */\n  and\n    /* \"#utility.yul\":3728:3765   */\n  shr\n    /* \"#utility.yul\":3724:3766   */\n  not\n    /* \"#utility.yul\":3709:3767   */\n  and\n    /* \"#utility.yul\":3694:3768   */\n  dup2\n  sstore\n    /* \"#utility.yul\":3581:3782   */\ntag_67:\n  pop\n  pop\n    /* \"#utility.yul\":3828:3829   */\n  0x01\n    /* \"#utility.yul\":3819:3825   */\n  dup5\n    /* \"#utility.yul\":3816:3817   */\n  0x01\n    /* \"#utility.yul\":3812:3826   */\n  shl\n    /* \"#utility.yul\":3808:3830   */\n  add\n    /* \"#utility.yul\":3802:3806   */\n  dup6\n    /* \"#utility.yul\":3795:3831   */\n  sstore\n    /* \"#utility.yul\":3148:4092   */\ntag_59:\n  pop\n  pop\n  pop\n  pop\n    /* \"#utility.yul\":2753:4098   */\n  pop\n  pop\n  jump\t// out\ntag_28:\n    /* \"kneadmonthly.sol\":172:1290  contract KneadMembership is ERC1155, Ownable {... */\n  dataSize(sub_0)\n  dup1\n  dataOffset(sub_0)\n  0x00\n  codecopy\n  0x00\n  return\nstop\n\nsub_0: assembly {\n        /* \"kneadmonthly.sol\":172:1290  contract KneadMembership is ERC1155, Ownable {... */\n      mstore(0x40, 0x80)\n      callvalue\n      dup1\n      iszero\n      tag_1\n      jumpi\n      0x00\n      dup1\n      revert\n    tag_1:\n      pop\n      jumpi(tag_2, lt(calldatasize, 0x04))\n      shr(0xe0, calldataload(0x00))\n      dup1\n      0x8da5cb5b\n      gt\n      tag_19\n      jumpi\n      dup1\n      0xd31a03c2\n      gt\n      tag_20\n      jumpi\n      dup1\n      0xd31a03c2\n      eq\n      tag_15\n      jumpi\n      dup1\n      0xe985e9c5\n      eq\n      tag_16\n      jumpi\n      dup1\n      0xf242432a\n      eq\n      tag_17\n      jumpi\n      dup1\n      0xf2fde38b\n      eq\n      tag_18\n      jumpi\n      0x00\n      dup1\n      revert\n    tag_20:\n      dup1\n      0x8da5cb5b\n      eq\n      tag_11\n      jumpi\n      dup1\n      0xa22cb465\n      eq\n      tag_12\n      jumpi\n      dup1\n      0xb390c0ab\n      eq\n      tag_13\n      jumpi\n      dup1\n      0xc83f2e39\n      eq\n      tag_14\n      jumpi\n      0x00\n      dup1\n      revert\n    tag_19:\n      dup1\n      0x1b56a5be\n      gt\n      tag_21\n      jumpi\n      dup1\n      0x1b56a5be\n      eq\n      tag_7\n      jumpi\n      dup1\n      0x2eb2c2d6\n      eq\n      tag_8\n      jumpi\n      dup1\n      0x4e1273f4\n      eq\n      tag_9\n      jumpi\n      dup1\n      0x715018a6\n      eq\n      tag_10\n      jumpi\n      0x00\n      dup1\n      revert\n    tag_21:\n      dup1\n      0xfdd58e\n      eq\n      tag_3\n      jumpi\n      dup1\n      0x01ffc9a7\n      eq\n      tag_4\n      jumpi\n      dup1\n      0x0e89341c\n      eq\n      tag_5\n      jumpi\n      dup1\n      0x156e29f6\n      eq\n      tag_6\n      jumpi\n    tag_2:\n      0x00\n      dup1\n      revert\n        /* \"@openzeppelin/contracts/token/ERC1155/ERC1155.sol\":2245:2377   */\n    tag_3:\n      tag_22\n      tag_23\n      calldatasize\n      0x04\n      tag_24\n      jump\t// in\n    tag_23:\n      tag_25\n      jump\t// in\n    tag_22:\n      mload(0x40)\n        /* \"#utility.yul\":620:645   */\n      swap1\n      dup2\n      mstore\n        /* \"#utility.yul\":608:610   */\n      0x20\n        /* \"#utility.yul\":593:611   */\n      add\n        /* \"@openzeppelin/contracts/token/ERC1155/ERC1155.sol\":2245:2377   */\n    tag_26:\n      mload(0x40)\n      dup1\n      swap2\n      sub\n      swap1\n      return\n        /* \"@openzeppelin/contracts/token/ERC1155/ERC1155.sol\":1378:1683   */\n    tag_4:\n      tag_28\n      tag_29\n      calldatasize\n      0x04\n      tag_30\n      jump\t// in\n    tag_29:\n      tag_31\n      jump\t// in\n    tag_28:\n      mload(0x40)\n        /* \"#utility.yul\":1207:1221   */\n      swap1\n      iszero\n        /* \"#utility.yul\":1200:1222   */\n      iszero\n        /* \"#utility.yul\":1182:1223   */\n      dup2\n      mstore\n        /* \"#utility.yul\":1170:1172   */\n      0x20\n        /* \"#utility.yul\":1155:1173   */\n      add\n        /* \"@openzeppelin/contracts/token/ERC1155/ERC1155.sol\":1378:1683   */\n      tag_26\n        /* \"#utility.yul\":1042:1229   */\n      jump\n        /* \"@openzeppelin/contracts/token/ERC1155/ERC1155.sol\":2082:2185   */\n    tag_5:\n      tag_34\n      tag_35\n      calldatasize\n      0x04\n      tag_36\n      jump\t// in\n    tag_35:\n      tag_37\n      jump\t// in\n    tag_34:\n      mload(0x40)\n      tag_26\n      swap2\n      swap1\n      tag_39\n      jump\t// in\n        /* \"kneadmonthly.sol\":441:556  function mint(address to, uint256 id, uint256 amount) external onlyOwner {... */\n    tag_6:\n      tag_40\n      tag_41\n      calldatasize\n      0x04\n      tag_42\n      jump\t// in\n    tag_41:\n      tag_43\n      jump\t// in\n    tag_40:\n      stop\n        /* \"kneadmonthly.sol\":589:709  function adminBurn(address from, uint256 id, uint256 amount) external onlyOwner {... */\n    tag_7:\n      tag_40\n      tag_45\n      calldatasize\n      0x04\n      tag_42\n      jump\t// in\n    tag_45:\n      tag_46\n      jump\t// in\n        /* \"@openzeppelin/contracts/token/ERC1155/ERC1155.sol\":4012:4441   */\n    tag_8:\n      tag_40\n      tag_48\n      calldatasize\n      0x04\n      tag_49\n      jump\t// in\n    tag_48:\n      tag_50\n      jump\t// in\n        /* \"@openzeppelin/contracts/token/ERC1155/ERC1155.sol\":2534:3086   */\n    tag_9:\n      tag_51\n      tag_52\n      calldatasize\n      0x04\n      tag_53\n      jump\t// in\n    tag_52:\n      tag_54\n      jump\t// in\n    tag_51:\n      mload(0x40)\n      tag_26\n      swap2\n      swap1\n      tag_56\n      jump\t// in\n        /* \"@openzeppelin/contracts/access/Ownable.sol\":2293:2394   */\n    tag_10:\n      tag_40\n      tag_58\n      jump\t// in\n        /* \"@openzeppelin/contracts/access/Ownable.sol\":1638:1723   */\n    tag_11:\n        /* \"@openzeppelin/contracts/access/Ownable.sol\":1710:1716   */\n      sload(0x03)\n        /* \"@openzeppelin/contracts/access/Ownable.sol\":1638:1723   */\n      mload(0x40)\n      sub(shl(0xa0, 0x01), 0x01)\n        /* \"@openzeppelin/contracts/access/Ownable.sol\":1710:1716   */\n      swap1\n      swap2\n      and\n        /* \"#utility.yul\":7028:7102   */\n      dup2\n      mstore\n        /* \"#utility.yul\":7016:7018   */\n      0x20\n        /* \"#utility.yul\":7001:7019   */\n      add\n        /* \"@openzeppelin/contracts/access/Ownable.sol\":1638:1723   */\n      tag_26\n        /* \"#utility.yul\":6882:7108   */\n      jump\n        /* \"@openzeppelin/contracts/token/ERC1155/ERC1155.sol\":3154:3298   */\n    tag_12:\n      tag_40\n      tag_64\n      calldatasize\n      0x04\n      tag_65\n      jump\t// in\n    tag_64:\n      tag_66\n      jump\t// in\n        /* \"kneadmonthly.sol\":748:845  function burn(uint256 id, uint256 amount) external {... */\n    tag_13:\n      tag_40\n      tag_68\n      calldatasize\n      0x04\n      tag_69\n      jump\t// in\n    tag_68:\n      tag_70\n      jump\t// in\n        /* \"kneadmonthly.sol\":223:259  uint256 public constant FREEMIUM = 0 */\n    tag_14:\n      tag_22\n        /* \"kneadmonthly.sol\":258:259  0 */\n      0x00\n        /* \"kneadmonthly.sol\":223:259  uint256 public constant FREEMIUM = 0 */\n      dup2\n      jump\n        /* \"kneadmonthly.sol\":265:297  uint256 public constant PAID = 1 */\n    tag_15:\n      tag_22\n        /* \"kneadmonthly.sol\":296:297  1 */\n      0x01\n        /* \"kneadmonthly.sol\":265:297  uint256 public constant PAID = 1 */\n      dup2\n      jump\n        /* \"@openzeppelin/contracts/token/ERC1155/ERC1155.sol\":3365:3522   */\n    tag_16:\n      tag_28\n      tag_78\n      calldatasize\n      0x04\n      tag_79\n      jump\t// in\n    tag_78:\n      sub(shl(0xa0, 0x01), 0x01)\n        /* \"@openzeppelin/contracts/token/ERC1155/ERC1155.sol\":3478:3505   */\n      swap2\n      dup3\n      and\n        /* \"@openzeppelin/contracts/token/ERC1155/ERC1155.sol\":3455:3459   */\n      0x00\n        /* \"@openzeppelin/contracts/token/ERC1155/ERC1155.sol\":3478:3505   */\n      swap1\n      dup2\n      mstore\n        /* \"@openzeppelin/contracts/token/ERC1155/ERC1155.sol\":3478:3496   */\n      0x01\n        /* \"@openzeppelin/contracts/token/ERC1155/ERC1155.sol\":3478:3505   */\n      0x20\n      swap1\n      dup2\n      mstore\n      0x40\n      dup1\n      dup4\n      keccak256\n        /* \"@openzeppelin/contracts/token/ERC1155/ERC1155.sol\":3478:3515   */\n      swap4\n      swap1\n      swap5\n      and\n      dup3\n      mstore\n      swap2\n      swap1\n      swap2\n      mstore\n      keccak256\n      sload\n      0xff\n      and\n      swap1\n        /* \"@openzeppelin/contracts/token/ERC1155/ERC1155.sol\":3365:3522   */\n      jump\n        /* \"@openzeppelin/contracts/token/ERC1155/ERC1155.sol\":3589:3940   */\n    tag_17:\n      tag_40\n      tag_83\n      calldatasize\n      0x04\n      tag_84\n      jump\t// in\n    tag_83:\n      tag_85\n      jump\t// in\n        /* \"@openzeppelin/contracts/access/Ownable.sol\":2543:2758   */\n    tag_18:\n      tag_40\n      tag_87\n      calldatasize\n      0x04\n      tag_88\n      jump\t// in\n    tag_87:\n      tag_89\n      jump\t// in\n        /* \"@openzeppelin/contracts/token/ERC1155/ERC1155.sol\":2245:2377   */\n    tag_25:\n        /* \"@openzeppelin/contracts/token/ERC1155/ERC1155.sol\":2322:2329   */\n      0x00\n        /* \"@openzeppelin/contracts/token/ERC1155/ERC1155.sol\":2348:2361   */\n      dup2\n      dup2\n      mstore\n      0x20\n      dup2\n      dup2\n      mstore\n      0x40\n      dup1\n      dup4\n      keccak256\n      sub(shl(0xa0, 0x01), 0x01)\n        /* \"@openzeppelin/contracts/token/ERC1155/ERC1155.sol\":2348:2370   */\n      dup7\n      and\n      dup5\n      mstore\n      swap1\n      swap2\n      mstore\n      swap1\n      keccak256\n      sload\n        /* \"@openzeppelin/contracts/token/ERC1155/ERC1155.sol\":2245:2377   */\n    tag_90:\n      swap3\n      swap2\n      pop\n      pop\n      jump\t// out\n        /* \"@openzeppelin/contracts/token/ERC1155/ERC1155.sol\":1378:1683   */\n    tag_31:\n        /* \"@openzeppelin/contracts/token/ERC1155/ERC1155.sol\":1480:1484   */\n      0x00\n      not(sub(shl(0xe0, 0x01), 0x01))\n        /* \"@openzeppelin/contracts/token/ERC1155/ERC1155.sol\":1515:1556   */\n      dup3\n      and\n      shl(0xe1, 0x6cdb3d13)\n      eq\n      dup1\n        /* \"@openzeppelin/contracts/token/ERC1155/ERC1155.sol\":1515:1624   */\n      tag_92\n      jumpi\n      pop\n      not(sub(shl(0xe0, 0x01), 0x01))\n        /* \"@openzeppelin/contracts/token/ERC1155/ERC1155.sol\":1572:1624   */\n      dup3\n      and\n      shl(0xe2, 0x03a24d07)\n      eq\n        /* \"@openzeppelin/contracts/token/ERC1155/ERC1155.sol\":1515:1624   */\n    tag_92:\n        /* \"@openzeppelin/contracts/token/ERC1155/ERC1155.sol\":1515:1676   */\n      dup1\n      tag_90\n      jumpi\n      pop\n      shl(0xe0, 0x01ffc9a7)\n      not(sub(shl(0xe0, 0x01), 0x01))\n        /* \"@openzeppelin/contracts/utils/introspection/ERC165.sol\":862:902   */\n      dup4\n      and\n      eq\n        /* \"@openzeppelin/contracts/token/ERC1155/ERC1155.sol\":1640:1676   */\n      tag_90\n        /* \"@openzeppelin/contracts/utils/introspection/ERC165.sol\":763:909   */\n      jump\n        /* \"@openzeppelin/contracts/token/ERC1155/ERC1155.sol\":2082:2185   */\n    tag_37:\n        /* \"@openzeppelin/contracts/token/ERC1155/ERC1155.sol\":2142:2155   */\n      0x60\n        /* \"@openzeppelin/contracts/token/ERC1155/ERC1155.sol\":2174:2178   */\n      0x02\n        /* \"@openzeppelin/contracts/token/ERC1155/ERC1155.sol\":2167:2178   */\n      dup1\n      sload\n      tag_97\n      swap1\n      tag_98\n      jump\t// in\n    tag_97:\n      dup1\n      0x1f\n      add\n      0x20\n      dup1\n      swap2\n      div\n      mul\n      0x20\n      add\n      mload(0x40)\n      swap1\n      dup2\n      add\n      0x40\n      mstore\n      dup1\n      swap3\n      swap2\n      swap1\n      dup2\n      dup2\n      mstore\n      0x20\n      add\n      dup3\n      dup1\n      sload\n      tag_99\n      swap1\n      tag_98\n      jump\t// in\n    tag_99:\n      dup1\n      iszero\n      tag_100\n      jumpi\n      dup1\n      0x1f\n      lt\n      tag_101\n      jumpi\n      0x0100\n      dup1\n      dup4\n      sload\n      div\n      mul\n      dup4\n      mstore\n      swap2\n      0x20\n      add\n      swap2\n      jump(tag_100)\n    tag_101:\n      dup3\n      add\n      swap2\n      swap1\n      0x00\n      mstore\n      keccak256(0x00, 0x20)\n      swap1\n    tag_102:\n      dup2\n      sload\n      dup2\n      mstore\n      swap1\n      0x01\n      add\n      swap1\n      0x20\n      add\n      dup1\n      dup4\n      gt\n      tag_102\n      jumpi\n      dup3\n      swap1\n      sub\n      0x1f\n      and\n      dup3\n      add\n      swap2\n    tag_100:\n      pop\n      pop\n      pop\n      pop\n      pop\n      swap1\n      pop\n        /* \"@openzeppelin/contracts/token/ERC1155/ERC1155.sol\":2082:2185   */\n      swap2\n      swap1\n      pop\n      jump\t// out\n        /* \"kneadmonthly.sol\":441:556  function mint(address to, uint256 id, uint256 amount) external onlyOwner {... */\n    tag_43:\n        /* \"@openzeppelin/contracts/access/Ownable.sol\":1531:1544   */\n      tag_104\n        /* \"@openzeppelin/contracts/access/Ownable.sol\":1531:1542   */\n      tag_105\n        /* \"@openzeppelin/contracts/access/Ownable.sol\":1531:1544   */\n      jump\t// in\n    tag_104:\n        /* \"kneadmonthly.sol\":524:549  _mint(to, id, amount, \"\") */\n      tag_107\n        /* \"kneadmonthly.sol\":530:532  to */\n      dup4\n        /* \"kneadmonthly.sol\":534:536  id */\n      dup4\n        /* \"kneadmonthly.sol\":538:544  amount */\n      dup4\n        /* \"kneadmonthly.sol\":524:549  _mint(to, id, amount, \"\") */\n      mload(0x40)\n      dup1\n      0x20\n      add\n      0x40\n      mstore\n      dup1\n      0x00\n      dup2\n      mstore\n      pop\n        /* \"kneadmonthly.sol\":524:529  _mint */\n      tag_108\n        /* \"kneadmonthly.sol\":524:549  _mint(to, id, amount, \"\") */\n      jump\t// in\n    tag_107:\n        /* \"kneadmonthly.sol\":441:556  function mint(address to, uint256 id, uint256 amount) external onlyOwner {... */\n      pop\n      pop\n      pop\n      jump\t// out\n        /* \"kneadmonthly.sol\":589:709  function adminBurn(address from, uint256 id, uint256 amount) external onlyOwner {... */\n    tag_46:\n        /* \"@openzeppelin/contracts/access/Ownable.sol\":1531:1544   */\n      tag_110\n        /* \"@openzeppelin/contracts/access/Ownable.sol\":1531:1542   */\n      tag_105\n        /* \"@openzeppelin/contracts/access/Ownable.sol\":1531:1544   */\n      jump\t// in\n    tag_110:\n        /* \"kneadmonthly.sol\":679:702  _burn(from, id, amount) */\n      tag_107\n        /* \"kneadmonthly.sol\":685:689  from */\n      dup4\n        /* \"kneadmonthly.sol\":691:693  id */\n      dup4\n        /* \"kneadmonthly.sol\":695:701  amount */\n      dup4\n        /* \"kneadmonthly.sol\":679:684  _burn */\n      tag_113\n        /* \"kneadmonthly.sol\":679:702  _burn(from, id, amount) */\n      jump\t// in\n        /* \"@openzeppelin/contracts/token/ERC1155/ERC1155.sol\":4012:4441   */\n    tag_50:\n        /* \"@openzeppelin/contracts/utils/Context.sol\":735:745   */\n      caller\n      sub(shl(0xa0, 0x01), 0x01)\n        /* \"@openzeppelin/contracts/token/ERC1155/ERC1155.sol\":4249:4263   */\n      dup7\n      and\n      dup2\n      eq\n      dup1\n      iszero\n      swap1\n        /* \"@openzeppelin/contracts/token/ERC1155/ERC1155.sol\":4249:4298   */\n      tag_117\n      jumpi\n      pop\n      sub(shl(0xa0, 0x01), 0x01)\n        /* \"@openzeppelin/contracts/token/ERC1155/ERC1155.sol\":3478:3505   */\n      dup1\n      dup8\n      and\n        /* \"@openzeppelin/contracts/token/ERC1155/ERC1155.sol\":3455:3459   */\n      0x00\n        /* \"@openzeppelin/contracts/token/ERC1155/ERC1155.sol\":3478:3505   */\n      swap1\n      dup2\n      mstore\n        /* \"@openzeppelin/contracts/token/ERC1155/ERC1155.sol\":3478:3496   */\n      0x01\n        /* \"@openzeppelin/contracts/token/ERC1155/ERC1155.sol\":3478:3505   */\n      0x20\n      swap1\n      dup2\n      mstore\n      0x40\n      dup1\n      dup4\n      keccak256\n        /* \"@openzeppelin/contracts/token/ERC1155/ERC1155.sol\":3478:3515   */\n      swap4\n      dup6\n      and\n      dup4\n      mstore\n      swap3\n      swap1\n      mstore\n      keccak256\n      sload\n      0xff\n      and\n        /* \"@openzeppelin/contracts/token/ERC1155/ERC1155.sol\":4267:4298   */\n      iszero\n        /* \"@openzeppelin/contracts/token/ERC1155/ERC1155.sol\":4249:4298   */\n    tag_117:\n        /* \"@openzeppelin/contracts/token/ERC1155/ERC1155.sol\":4245:4374   */\n      iszero\n      tag_119\n      jumpi\n        /* \"@openzeppelin/contracts/token/ERC1155/ERC1155.sol\":4321:4363   */\n      mload(0x40)\n      shl(0xe1, 0x711bec91)\n      dup2\n      mstore\n      sub(shl(0xa0, 0x01), 0x01)\n        /* \"#utility.yul\":9423:9438   */\n      dup1\n      dup4\n      and\n        /* \"@openzeppelin/contracts/token/ERC1155/ERC1155.sol\":4321:4363   */\n      0x04\n      dup4\n      add\n        /* \"#utility.yul\":9405:9439   */\n      mstore\n        /* \"#utility.yul\":9475:9490   */\n      dup8\n      and\n        /* \"#utility.yul\":9455:9473   */\n      0x24\n      dup3\n      add\n        /* \"#utility.yul\":9448:9491   */\n      mstore\n        /* \"#utility.yul\":9317:9335   */\n      0x44\n      add\n        /* \"@openzeppelin/contracts/token/ERC1155/ERC1155.sol\":4321:4363   */\n    tag_120:\n      mload(0x40)\n      dup1\n      swap2\n      sub\n      swap1\n      revert\n        /* \"@openzeppelin/contracts/token/ERC1155/ERC1155.sol\":4245:4374   */\n    tag_119:\n        /* \"@openzeppelin/contracts/token/ERC1155/ERC1155.sol\":4383:4434   */\n      tag_122\n        /* \"@openzeppelin/contracts/token/ERC1155/ERC1155.sol\":4406:4410   */\n      dup7\n        /* \"@openzeppelin/contracts/token/ERC1155/ERC1155.sol\":4412:4414   */\n      dup7\n        /* \"@openzeppelin/contracts/token/ERC1155/ERC1155.sol\":4416:4419   */\n      dup7\n        /* \"@openzeppelin/contracts/token/ERC1155/ERC1155.sol\":4421:4427   */\n      dup7\n        /* \"@openzeppelin/contracts/token/ERC1155/ERC1155.sol\":4429:4433   */\n      dup7\n        /* \"@openzeppelin/contracts/token/ERC1155/ERC1155.sol\":4383:4405   */\n      tag_123\n        /* \"@openzeppelin/contracts/token/ERC1155/ERC1155.sol\":4383:4434   */\n      jump\t// in\n    tag_122:\n        /* \"@openzeppelin/contracts/token/ERC1155/ERC1155.sol\":4196:4441   */\n      pop\n        /* \"@openzeppelin/contracts/token/ERC1155/ERC1155.sol\":4012:4441   */\n      pop\n      pop\n      pop\n      pop\n      pop\n      jump\t// out\n        /* \"@openzeppelin/contracts/token/ERC1155/ERC1155.sol\":2534:3086   */\n    tag_54:\n        /* \"@openzeppelin/contracts/token/ERC1155/ERC1155.sol\":2658:2674   */\n      0x60\n        /* \"@openzeppelin/contracts/token/ERC1155/ERC1155.sol\":2709:2712   */\n      dup2\n        /* \"@openzeppelin/contracts/token/ERC1155/ERC1155.sol\":2709:2719   */\n      mload\n        /* \"@openzeppelin/contracts/token/ERC1155/ERC1155.sol\":2690:2698   */\n      dup4\n        /* \"@openzeppelin/contracts/token/ERC1155/ERC1155.sol\":2690:2705   */\n      mload\n        /* \"@openzeppelin/contracts/token/ERC1155/ERC1155.sol\":2690:2719   */\n      eq\n        /* \"@openzeppelin/contracts/token/ERC1155/ERC1155.sol\":2686:2807   */\n      tag_125\n      jumpi\n        /* \"@openzeppelin/contracts/token/ERC1155/ERC1155.sol\":2768:2778   */\n      dup2\n      mload\n        /* \"@openzeppelin/contracts/token/ERC1155/ERC1155.sol\":2780:2795   */\n      dup4\n      mload\n        /* \"@openzeppelin/contracts/token/ERC1155/ERC1155.sol\":2742:2796   */\n      mload(0x40)\n      shl(0xe0, 0x5b059991)\n      dup2\n      mstore\n      0x04\n      dup2\n      add\n        /* \"#utility.yul\":9676:9701   */\n      swap3\n      swap1\n      swap3\n      mstore\n        /* \"#utility.yul\":9717:9735   */\n      0x24\n      dup3\n      add\n        /* \"#utility.yul\":9710:9744   */\n      mstore\n        /* \"#utility.yul\":9649:9667   */\n      0x44\n      add\n        /* \"@openzeppelin/contracts/token/ERC1155/ERC1155.sol\":2742:2796   */\n      tag_120\n        /* \"#utility.yul\":9502:9750   */\n      jump\n        /* \"@openzeppelin/contracts/token/ERC1155/ERC1155.sol\":2686:2807   */\n    tag_125:\n        /* \"@openzeppelin/contracts/token/ERC1155/ERC1155.sol\":2817:2847   */\n      0x00\n        /* \"@openzeppelin/contracts/token/ERC1155/ERC1155.sol\":2864:2872   */\n      dup4\n        /* \"@openzeppelin/contracts/token/ERC1155/ERC1155.sol\":2864:2879   */\n      mload\n        /* \"@openzeppelin/contracts/token/ERC1155/ERC1155.sol\":2850:2880   */\n      0xffffffffffffffff\n      dup2\n      gt\n      iszero\n      tag_129\n      jumpi\n      tag_129\n      tag_130\n      jump\t// in\n    tag_129:\n      mload(0x40)\n      swap1\n      dup1\n      dup3\n      mstore\n      dup1\n      0x20\n      mul\n      0x20\n      add\n      dup3\n      add\n      0x40\n      mstore\n      dup1\n      iszero\n      tag_131\n      jumpi\n      dup2\n      0x20\n      add\n      0x20\n      dup3\n      mul\n      dup1\n      calldatasize\n      dup4\n      calldatacopy\n      add\n      swap1\n      pop\n    tag_131:\n      pop\n        /* \"@openzeppelin/contracts/token/ERC1155/ERC1155.sol\":2817:2880   */\n      swap1\n      pop\n        /* \"@openzeppelin/contracts/token/ERC1155/ERC1155.sol\":2896:2905   */\n      0x00\n        /* \"@openzeppelin/contracts/token/ERC1155/ERC1155.sol\":2891:3049   */\n    tag_132:\n        /* \"@openzeppelin/contracts/token/ERC1155/ERC1155.sol\":2915:2923   */\n      dup5\n        /* \"@openzeppelin/contracts/token/ERC1155/ERC1155.sol\":2915:2930   */\n      mload\n        /* \"@openzeppelin/contracts/token/ERC1155/ERC1155.sol\":2911:2912   */\n      dup2\n        /* \"@openzeppelin/contracts/token/ERC1155/ERC1155.sol\":2911:2930   */\n      lt\n        /* \"@openzeppelin/contracts/token/ERC1155/ERC1155.sol\":2891:3049   */\n      iszero\n      tag_133\n      jumpi\n        /* \"@openzeppelin/contracts/utils/Arrays.sol\":16302:16306   */\n      0x20\n        /* \"@openzeppelin/contracts/utils/Arrays.sol\":16293:16307   */\n      dup1\n      dup3\n      mul\n        /* \"@openzeppelin/contracts/utils/Arrays.sol\":16273:16308   */\n      dup7\n      add\n      add\n        /* \"@openzeppelin/contracts/utils/Arrays.sol\":16267:16309   */\n      mload\n        /* \"@openzeppelin/contracts/token/ERC1155/ERC1155.sol\":2970:3038   */\n      tag_135\n      swap1\n        /* \"@openzeppelin/contracts/utils/Arrays.sol\":16302:16306   */\n      0x20\n        /* \"@openzeppelin/contracts/utils/Arrays.sol\":16293:16307   */\n      dup1\n      dup5\n      mul\n        /* \"@openzeppelin/contracts/utils/Arrays.sol\":16273:16308   */\n      dup8\n      add\n      add\n        /* \"@openzeppelin/contracts/utils/Arrays.sol\":16267:16309   */\n      mload\n        /* \"@openzeppelin/contracts/token/ERC1155/ERC1155.sol\":2245:2377   */\n      tag_25\n      jump\t// in\n        /* \"@openzeppelin/contracts/token/ERC1155/ERC1155.sol\":2970:3038   */\n    tag_135:\n        /* \"@openzeppelin/contracts/token/ERC1155/ERC1155.sol\":2951:2964   */\n      dup3\n        /* \"@openzeppelin/contracts/token/ERC1155/ERC1155.sol\":2965:2966   */\n      dup3\n        /* \"@openzeppelin/contracts/token/ERC1155/ERC1155.sol\":2951:2967   */\n      dup2\n      mload\n      dup2\n      lt\n      tag_141\n      jumpi\n      tag_141\n      tag_142\n      jump\t// in\n    tag_141:\n      0x20\n      swap1\n      dup2\n      mul\n      swap2\n      swap1\n      swap2\n      add\n      add\n        /* \"@openzeppelin/contracts/token/ERC1155/ERC1155.sol\":2951:3038   */\n      mstore\n        /* \"@openzeppelin/contracts/token/ERC1155/ERC1155.sol\":2932:2935   */\n      0x01\n      add\n        /* \"@openzeppelin/contracts/token/ERC1155/ERC1155.sol\":2891:3049   */\n      jump(tag_132)\n    tag_133:\n      pop\n        /* \"@openzeppelin/contracts/token/ERC1155/ERC1155.sol\":3066:3079   */\n      swap4\n        /* \"@openzeppelin/contracts/token/ERC1155/ERC1155.sol\":2534:3086   */\n      swap3\n      pop\n      pop\n      pop\n      jump\t// out\n        /* \"@openzeppelin/contracts/access/Ownable.sol\":2293:2394   */\n    tag_58:\n        /* \"@openzeppelin/contracts/access/Ownable.sol\":1531:1544   */\n      tag_144\n        /* \"@openzeppelin/contracts/access/Ownable.sol\":1531:1542   */\n      tag_105\n        /* \"@openzeppelin/contracts/access/Ownable.sol\":1531:1544   */\n      jump\t// in\n    tag_144:\n        /* \"@openzeppelin/contracts/access/Ownable.sol\":2357:2387   */\n      tag_146\n        /* \"@openzeppelin/contracts/access/Ownable.sol\":2384:2385   */\n      0x00\n        /* \"@openzeppelin/contracts/access/Ownable.sol\":2357:2375   */\n      tag_147\n        /* \"@openzeppelin/contracts/access/Ownable.sol\":2357:2387   */\n      jump\t// in\n    tag_146:\n        /* \"@openzeppelin/contracts/access/Ownable.sol\":2293:2394   */\n      jump\t// out\n        /* \"@openzeppelin/contracts/token/ERC1155/ERC1155.sol\":3154:3298   */\n    tag_66:\n        /* \"@openzeppelin/contracts/token/ERC1155/ERC1155.sol\":3239:3291   */\n      tag_150\n        /* \"@openzeppelin/contracts/utils/Context.sol\":735:745   */\n      caller\n        /* \"@openzeppelin/contracts/token/ERC1155/ERC1155.sol\":3272:3280   */\n      dup4\n        /* \"@openzeppelin/contracts/token/ERC1155/ERC1155.sol\":3282:3290   */\n      dup4\n        /* \"@openzeppelin/contracts/token/ERC1155/ERC1155.sol\":3239:3257   */\n      tag_152\n        /* \"@openzeppelin/contracts/token/ERC1155/ERC1155.sol\":3239:3291   */\n      jump\t// in\n    tag_150:\n        /* \"@openzeppelin/contracts/token/ERC1155/ERC1155.sol\":3154:3298   */\n      pop\n      pop\n      jump\t// out\n        /* \"kneadmonthly.sol\":748:845  function burn(uint256 id, uint256 amount) external {... */\n    tag_70:\n        /* \"kneadmonthly.sol\":809:838  _burn(msg.sender, id, amount) */\n      tag_150\n        /* \"kneadmonthly.sol\":815:825  msg.sender */\n      caller\n        /* \"kneadmonthly.sol\":827:829  id */\n      dup4\n        /* \"kneadmonthly.sol\":831:837  amount */\n      dup4\n        /* \"kneadmonthly.sol\":809:814  _burn */\n      tag_113\n        /* \"kneadmonthly.sol\":809:838  _burn(msg.sender, id, amount) */\n      jump\t// in\n        /* \"@openzeppelin/contracts/token/ERC1155/ERC1155.sol\":3589:3940   */\n    tag_85:\n        /* \"@openzeppelin/contracts/utils/Context.sol\":735:745   */\n      caller\n      sub(shl(0xa0, 0x01), 0x01)\n        /* \"@openzeppelin/contracts/token/ERC1155/ERC1155.sol\":3755:3769   */\n      dup7\n      and\n      dup2\n      eq\n      dup1\n      iszero\n      swap1\n        /* \"@openzeppelin/contracts/token/ERC1155/ERC1155.sol\":3755:3804   */\n      tag_158\n      jumpi\n      pop\n      sub(shl(0xa0, 0x01), 0x01)\n        /* \"@openzeppelin/contracts/token/ERC1155/ERC1155.sol\":3478:3505   */\n      dup1\n      dup8\n      and\n        /* \"@openzeppelin/contracts/token/ERC1155/ERC1155.sol\":3455:3459   */\n      0x00\n        /* \"@openzeppelin/contracts/token/ERC1155/ERC1155.sol\":3478:3505   */\n      swap1\n      dup2\n      mstore\n        /* \"@openzeppelin/contracts/token/ERC1155/ERC1155.sol\":3478:3496   */\n      0x01\n        /* \"@openzeppelin/contracts/token/ERC1155/ERC1155.sol\":3478:3505   */\n      0x20\n      swap1\n      dup2\n      mstore\n      0x40\n      dup1\n      dup4\n      keccak256\n        /* \"@openzeppelin/contracts/token/ERC1155/ERC1155.sol\":3478:3515   */\n      swap4\n      dup6\n      and\n      dup4\n      mstore\n      swap3\n      swap1\n      mstore\n      keccak256\n      sload\n      0xff\n      and\n        /* \"@openzeppelin/contracts/token/ERC1155/ERC1155.sol\":3773:3804   */\n      iszero\n        /* \"@openzeppelin/contracts/token/ERC1155/ERC1155.sol\":3755:3804   */\n    tag_158:\n        /* \"@openzeppelin/contracts/token/ERC1155/ERC1155.sol\":3751:3880   */\n      iszero\n      tag_160\n      jumpi\n        /* \"@openzeppelin/contracts/token/ERC1155/ERC1155.sol\":3827:3869   */\n      mload(0x40)\n      shl(0xe1, 0x711bec91)\n      dup2\n      mstore\n      sub(shl(0xa0, 0x01), 0x01)\n        /* \"#utility.yul\":9423:9438   */\n      dup1\n      dup4\n      and\n        /* \"@openzeppelin/contracts/token/ERC1155/ERC1155.sol\":3827:3869   */\n      0x04\n      dup4\n      add\n        /* \"#utility.yul\":9405:9439   */\n      mstore\n        /* \"#utility.yul\":9475:9490   */\n      dup8\n      and\n        /* \"#utility.yul\":9455:9473   */\n      0x24\n      dup3\n      add\n        /* \"#utility.yul\":9448:9491   */\n      mstore\n        /* \"#utility.yul\":9317:9335   */\n      0x44\n      add\n        /* \"@openzeppelin/contracts/token/ERC1155/ERC1155.sol\":3827:3869   */\n      tag_120\n        /* \"#utility.yul\":9170:9497   */\n      jump\n        /* \"@openzeppelin/contracts/token/ERC1155/ERC1155.sol\":3751:3880   */\n    tag_160:\n        /* \"@openzeppelin/contracts/token/ERC1155/ERC1155.sol\":3889:3933   */\n      tag_122\n        /* \"@openzeppelin/contracts/token/ERC1155/ERC1155.sol\":3907:3911   */\n      dup7\n        /* \"@openzeppelin/contracts/token/ERC1155/ERC1155.sol\":3913:3915   */\n      dup7\n        /* \"@openzeppelin/contracts/token/ERC1155/ERC1155.sol\":3917:3919   */\n      dup7\n        /* \"@openzeppelin/contracts/token/ERC1155/ERC1155.sol\":3921:3926   */\n      dup7\n        /* \"@openzeppelin/contracts/token/ERC1155/ERC1155.sol\":3928:3932   */\n      dup7\n        /* \"@openzeppelin/contracts/token/ERC1155/ERC1155.sol\":3889:3906   */\n      tag_163\n        /* \"@openzeppelin/contracts/token/ERC1155/ERC1155.sol\":3889:3933   */\n      jump\t// in\n        /* \"@openzeppelin/contracts/access/Ownable.sol\":2543:2758   */\n    tag_89:\n        /* \"@openzeppelin/contracts/access/Ownable.sol\":1531:1544   */\n      tag_165\n        /* \"@openzeppelin/contracts/access/Ownable.sol\":1531:1542   */\n      tag_105\n        /* \"@openzeppelin/contracts/access/Ownable.sol\":1531:1544   */\n      jump\t// in\n    tag_165:\n      sub(shl(0xa0, 0x01), 0x01)\n        /* \"@openzeppelin/contracts/access/Ownable.sol\":2627:2649   */\n      dup2\n      and\n        /* \"@openzeppelin/contracts/access/Ownable.sol\":2623:2714   */\n      tag_167\n      jumpi\n        /* \"@openzeppelin/contracts/access/Ownable.sol\":2672:2703   */\n      mload(0x40)\n      shl(0xe0, 0x1e4fbdf7)\n      dup2\n      mstore\n        /* \"@openzeppelin/contracts/access/Ownable.sol\":2700:2701   */\n      0x00\n        /* \"@openzeppelin/contracts/access/Ownable.sol\":2672:2703   */\n      0x04\n      dup3\n      add\n        /* \"#utility.yul\":7028:7102   */\n      mstore\n        /* \"#utility.yul\":7001:7019   */\n      0x24\n      add\n        /* \"@openzeppelin/contracts/access/Ownable.sol\":2672:2703   */\n      tag_120\n        /* \"#utility.yul\":6882:7108   */\n      jump\n        /* \"@openzeppelin/contracts/access/Ownable.sol\":2623:2714   */\n    tag_167:\n        /* \"@openzeppelin/contracts/access/Ownable.sol\":2723:2751   */\n      tag_169\n        /* \"@openzeppelin/contracts/access/Ownable.sol\":2742:2750   */\n      dup2\n        /* \"@openzeppelin/contracts/access/Ownable.sol\":2723:2741   */\n      tag_147\n        /* \"@openzeppelin/contracts/access/Ownable.sol\":2723:2751   */\n      jump\t// in\n    tag_169:\n        /* \"@openzeppelin/contracts/access/Ownable.sol\":2543:2758   */\n      pop\n      jump\t// out\n        /* \"@openzeppelin/contracts/access/Ownable.sol\":1796:1958   */\n    tag_105:\n        /* \"@openzeppelin/contracts/access/Ownable.sol\":1710:1716   */\n      and(sub(shl(0xa0, 0x01), 0x01), sload(0x03))\n        /* \"@openzeppelin/contracts/utils/Context.sol\":735:745   */\n      caller\n        /* \"@openzeppelin/contracts/access/Ownable.sol\":1855:1878   */\n      eq\n        /* \"@openzeppelin/contracts/access/Ownable.sol\":1851:1952   */\n      tag_146\n      jumpi\n        /* \"@openzeppelin/contracts/access/Ownable.sol\":1901:1941   */\n      mload(0x40)\n      shl(0xe0, 0x118cdaa7)\n      dup2\n      mstore\n        /* \"@openzeppelin/contracts/utils/Context.sol\":735:745   */\n      caller\n        /* \"@openzeppelin/contracts/access/Ownable.sol\":1901:1941   */\n      0x04\n      dup3\n      add\n        /* \"#utility.yul\":7028:7102   */\n      mstore\n        /* \"#utility.yul\":7001:7019   */\n      0x24\n      add\n        /* \"@openzeppelin/contracts/access/Ownable.sol\":1901:1941   */\n      tag_120\n        /* \"#utility.yul\":6882:7108   */\n      jump\n        /* \"@openzeppelin/contracts/token/ERC1155/ERC1155.sol\":10754:11100   */\n    tag_108:\n      sub(shl(0xa0, 0x01), 0x01)\n        /* \"@openzeppelin/contracts/token/ERC1155/ERC1155.sol\":10850:10866   */\n      dup5\n      and\n        /* \"@openzeppelin/contracts/token/ERC1155/ERC1155.sol\":10846:10934   */\n      tag_178\n      jumpi\n        /* \"@openzeppelin/contracts/token/ERC1155/ERC1155.sol\":10889:10923   */\n      mload(0x40)\n      shl(0xe1, 0x2bfa23e7)\n      dup2\n      mstore\n        /* \"@openzeppelin/contracts/token/ERC1155/ERC1155.sol\":10920:10921   */\n      0x00\n        /* \"@openzeppelin/contracts/token/ERC1155/ERC1155.sol\":10889:10923   */\n      0x04\n      dup3\n      add\n        /* \"#utility.yul\":7028:7102   */\n      mstore\n        /* \"#utility.yul\":7001:7019   */\n      0x24\n      add\n        /* \"@openzeppelin/contracts/token/ERC1155/ERC1155.sol\":10889:10923   */\n      tag_120\n        /* \"#utility.yul\":6882:7108   */\n      jump\n        /* \"@openzeppelin/contracts/token/ERC1155/ERC1155.sol\":10846:10934   */\n    tag_178:\n        /* \"@openzeppelin/contracts/token/ERC1155/ERC1155.sol\":13974:13978   */\n      0x40\n        /* \"@openzeppelin/contracts/token/ERC1155/ERC1155.sol\":13968:13979   */\n      dup1\n      mload\n        /* \"@openzeppelin/contracts/token/ERC1155/ERC1155.sol\":14044:14045   */\n      0x01\n        /* \"@openzeppelin/contracts/token/ERC1155/ERC1155.sol\":14029:14046   */\n      dup1\n      dup3\n      mstore\n        /* \"@openzeppelin/contracts/token/ERC1155/ERC1155.sol\":14175:14179   */\n      0x20\n        /* \"@openzeppelin/contracts/token/ERC1155/ERC1155.sol\":14163:14180   */\n      dup3\n      add\n        /* \"@openzeppelin/contracts/token/ERC1155/ERC1155.sol\":14156:14191   */\n      dup7\n      swap1\n      mstore\n        /* \"@openzeppelin/contracts/token/ERC1155/ERC1155.sol\":14292:14309   */\n      dup2\n      dup4\n      add\n        /* \"@openzeppelin/contracts/token/ERC1155/ERC1155.sol\":14322:14339   */\n      swap1\n      dup2\n      mstore\n        /* \"@openzeppelin/contracts/token/ERC1155/ERC1155.sol\":13815:13838   */\n      0x60\n        /* \"@openzeppelin/contracts/token/ERC1155/ERC1155.sol\":14359:14376   */\n      dup3\n      add\n        /* \"@openzeppelin/contracts/token/ERC1155/ERC1155.sol\":14352:14387   */\n      dup6\n      swap1\n      mstore\n        /* \"@openzeppelin/contracts/token/ERC1155/ERC1155.sol\":14495:14512   */\n      0x80\n      dup3\n      add\n        /* \"@openzeppelin/contracts/token/ERC1155/ERC1155.sol\":14482:14513   */\n      swap1\n      swap3\n      mstore\n        /* \"@openzeppelin/contracts/token/ERC1155/ERC1155.sol\":13968:13979   */\n      swap1\n        /* \"@openzeppelin/contracts/token/ERC1155/ERC1155.sol\":11032:11093   */\n      tag_122\n      0x00\n        /* \"@openzeppelin/contracts/token/ERC1155/ERC1155.sol\":11071:11073   */\n      dup8\n        /* \"@openzeppelin/contracts/token/ERC1155/ERC1155.sol\":13968:13979   */\n      dup5\n        /* \"@openzeppelin/contracts/token/ERC1155/ERC1155.sol\":14292:14309   */\n      dup5\n        /* \"@openzeppelin/contracts/token/ERC1155/ERC1155.sol\":11088:11092   */\n      dup8\n        /* \"@openzeppelin/contracts/token/ERC1155/ERC1155.sol\":11032:11058   */\n      tag_183\n        /* \"@openzeppelin/contracts/token/ERC1155/ERC1155.sol\":11032:11093   */\n      jump\t// in\n        /* \"@openzeppelin/contracts/token/ERC1155/ERC1155.sol\":12107:12436   */\n    tag_113:\n      sub(shl(0xa0, 0x01), 0x01)\n        /* \"@openzeppelin/contracts/token/ERC1155/ERC1155.sol\":12186:12204   */\n      dup4\n      and\n        /* \"@openzeppelin/contracts/token/ERC1155/ERC1155.sol\":12182:12270   */\n      tag_185\n      jumpi\n        /* \"@openzeppelin/contracts/token/ERC1155/ERC1155.sol\":12227:12259   */\n      mload(0x40)\n      shl(0xe2, 0x6a0d45)\n      dup2\n      mstore\n        /* \"@openzeppelin/contracts/token/ERC1155/ERC1155.sol\":12256:12257   */\n      0x00\n        /* \"@openzeppelin/contracts/token/ERC1155/ERC1155.sol\":12227:12259   */\n      0x04\n      dup3\n      add\n        /* \"#utility.yul\":7028:7102   */\n      mstore\n        /* \"#utility.yul\":7001:7019   */\n      0x24\n      add\n        /* \"@openzeppelin/contracts/token/ERC1155/ERC1155.sol\":12227:12259   */\n      tag_120\n        /* \"#utility.yul\":6882:7108   */\n      jump\n        /* \"@openzeppelin/contracts/token/ERC1155/ERC1155.sol\":12182:12270   */\n    tag_185:\n        /* \"@openzeppelin/contracts/token/ERC1155/ERC1155.sol\":13974:13978   */\n      0x40\n        /* \"@openzeppelin/contracts/token/ERC1155/ERC1155.sol\":13968:13979   */\n      dup1\n      mload\n        /* \"@openzeppelin/contracts/token/ERC1155/ERC1155.sol\":14044:14045   */\n      0x01\n        /* \"@openzeppelin/contracts/token/ERC1155/ERC1155.sol\":14029:14046   */\n      dup1\n      dup3\n      mstore\n        /* \"@openzeppelin/contracts/token/ERC1155/ERC1155.sol\":14175:14179   */\n      0x20\n        /* \"@openzeppelin/contracts/token/ERC1155/ERC1155.sol\":14163:14180   */\n      dup3\n      add\n        /* \"@openzeppelin/contracts/token/ERC1155/ERC1155.sol\":14156:14191   */\n      dup6\n      swap1\n      mstore\n        /* \"@openzeppelin/contracts/token/ERC1155/ERC1155.sol\":14292:14309   */\n      dup2\n      dup4\n      add\n        /* \"@openzeppelin/contracts/token/ERC1155/ERC1155.sol\":14322:14339   */\n      swap1\n      dup2\n      mstore\n        /* \"@openzeppelin/contracts/token/ERC1155/ERC1155.sol\":13815:13838   */\n      0x60\n        /* \"@openzeppelin/contracts/token/ERC1155/ERC1155.sol\":14359:14376   */\n      dup3\n      add\n        /* \"@openzeppelin/contracts/token/ERC1155/ERC1155.sol\":14352:14387   */\n      dup5\n      swap1\n      mstore\n        /* \"@openzeppelin/contracts/token/ERC1155/ERC1155.sol\":12368:12429   */\n      0xa0\n      dup3\n      add\n      swap1\n      swap3\n      mstore\n      0x00\n        /* \"@openzeppelin/contracts/token/ERC1155/ERC1155.sol\":14495:14512   */\n      0x80\n      dup3\n      add\n        /* \"@openzeppelin/contracts/token/ERC1155/ERC1155.sol\":12368:12429   */\n      dup2\n      dup2\n      mstore\n        /* \"@openzeppelin/contracts/token/ERC1155/ERC1155.sol\":13968:13979   */\n      swap2\n      swap3\n        /* \"@openzeppelin/contracts/token/ERC1155/ERC1155.sol\":14292:14309   */\n      swap2\n        /* \"@openzeppelin/contracts/token/ERC1155/ERC1155.sol\":12368:12429   */\n      tag_188\n      swap2\n        /* \"@openzeppelin/contracts/token/ERC1155/ERC1155.sol\":12395:12399   */\n      dup8\n      swap2\n        /* \"@openzeppelin/contracts/token/ERC1155/ERC1155.sol\":13968:13979   */\n      dup6\n      swap1\n        /* \"@openzeppelin/contracts/token/ERC1155/ERC1155.sol\":14292:14309   */\n      dup6\n      swap1\n        /* \"@openzeppelin/contracts/token/ERC1155/ERC1155.sol\":12368:12394   */\n      tag_183\n        /* \"@openzeppelin/contracts/token/ERC1155/ERC1155.sol\":12368:12429   */\n      jump\t// in\n    tag_188:\n        /* \"@openzeppelin/contracts/token/ERC1155/ERC1155.sol\":12172:12436   */\n      pop\n      pop\n        /* \"@openzeppelin/contracts/token/ERC1155/ERC1155.sol\":12107:12436   */\n      pop\n      pop\n      pop\n      jump\t// out\n        /* \"@openzeppelin/contracts/token/ERC1155/ERC1155.sol\":9023:9468   */\n    tag_123:\n      sub(shl(0xa0, 0x01), 0x01)\n        /* \"@openzeppelin/contracts/token/ERC1155/ERC1155.sol\":9216:9232   */\n      dup5\n      and\n        /* \"@openzeppelin/contracts/token/ERC1155/ERC1155.sol\":9212:9300   */\n      tag_191\n      jumpi\n        /* \"@openzeppelin/contracts/token/ERC1155/ERC1155.sol\":9255:9289   */\n      mload(0x40)\n      shl(0xe1, 0x2bfa23e7)\n      dup2\n      mstore\n        /* \"@openzeppelin/contracts/token/ERC1155/ERC1155.sol\":9286:9287   */\n      0x00\n        /* \"@openzeppelin/contracts/token/ERC1155/ERC1155.sol\":9255:9289   */\n      0x04\n      dup3\n      add\n        /* \"#utility.yul\":7028:7102   */\n      mstore\n        /* \"#utility.yul\":7001:7019   */\n      0x24\n      add\n        /* \"@openzeppelin/contracts/token/ERC1155/ERC1155.sol\":9255:9289   */\n      tag_120\n        /* \"#utility.yul\":6882:7108   */\n      jump\n        /* \"@openzeppelin/contracts/token/ERC1155/ERC1155.sol\":9212:9300   */\n    tag_191:\n      sub(shl(0xa0, 0x01), 0x01)\n        /* \"@openzeppelin/contracts/token/ERC1155/ERC1155.sol\":9313:9331   */\n      dup6\n      and\n        /* \"@openzeppelin/contracts/token/ERC1155/ERC1155.sol\":9309:9397   */\n      tag_193\n      jumpi\n        /* \"@openzeppelin/contracts/token/ERC1155/ERC1155.sol\":9354:9386   */\n      mload(0x40)\n      shl(0xe2, 0x6a0d45)\n      dup2\n      mstore\n        /* \"@openzeppelin/contracts/token/ERC1155/ERC1155.sol\":9383:9384   */\n      0x00\n        /* \"@openzeppelin/contracts/token/ERC1155/ERC1155.sol\":9354:9386   */\n      0x04\n      dup3\n      add\n        /* \"#utility.yul\":7028:7102   */\n      mstore\n        /* \"#utility.yul\":7001:7019   */\n      0x24\n      add\n        /* \"@openzeppelin/contracts/token/ERC1155/ERC1155.sol\":9354:9386   */\n      tag_120\n        /* \"#utility.yul\":6882:7108   */\n      jump\n        /* \"@openzeppelin/contracts/token/ERC1155/ERC1155.sol\":9309:9397   */\n    tag_193:\n        /* \"@openzeppelin/contracts/token/ERC1155/ERC1155.sol\":9406:9461   */\n      tag_188\n        /* \"@openzeppelin/contracts/token/ERC1155/ERC1155.sol\":9433:9437   */\n      dup6\n        /* \"@openzeppelin/contracts/token/ERC1155/ERC1155.sol\":9439:9441   */\n      dup6\n        /* \"@openzeppelin/contracts/token/ERC1155/ERC1155.sol\":9443:9446   */\n      dup6\n        /* \"@openzeppelin/contracts/token/ERC1155/ERC1155.sol\":9448:9454   */\n      dup6\n        /* \"@openzeppelin/contracts/token/ERC1155/ERC1155.sol\":9456:9460   */\n      dup6\n        /* \"@openzeppelin/contracts/token/ERC1155/ERC1155.sol\":9406:9432   */\n      tag_183\n        /* \"@openzeppelin/contracts/token/ERC1155/ERC1155.sol\":9406:9461   */\n      jump\t// in\n        /* \"@openzeppelin/contracts/access/Ownable.sol\":2912:3099   */\n    tag_147:\n        /* \"@openzeppelin/contracts/access/Ownable.sol\":3004:3010   */\n      0x03\n      dup1\n      sload\n      sub(shl(0xa0, 0x01), 0x01)\n        /* \"@openzeppelin/contracts/access/Ownable.sol\":3020:3037   */\n      dup4\n      dup2\n      and\n      0xffffffffffffffffffffffff0000000000000000000000000000000000000000\n      dup4\n      and\n      dup2\n      or\n      swap1\n      swap4\n      sstore\n        /* \"@openzeppelin/contracts/access/Ownable.sol\":3052:3092   */\n      mload(0x40)\n        /* \"@openzeppelin/contracts/access/Ownable.sol\":3004:3010   */\n      swap2\n      and\n      swap2\n        /* \"@openzeppelin/contracts/access/Ownable.sol\":3020:3037   */\n      swap1\n        /* \"@openzeppelin/contracts/access/Ownable.sol\":3004:3010   */\n      dup3\n      swap1\n        /* \"@openzeppelin/contracts/access/Ownable.sol\":3052:3092   */\n      0x8be0079c531659141344cd1fd0a4f28419497f9722a3daafe3b4186f6b6457e0\n      swap1\n        /* \"@openzeppelin/contracts/access/Ownable.sol\":2985:3001   */\n      0x00\n      swap1\n        /* \"@openzeppelin/contracts/access/Ownable.sol\":3052:3092   */\n      log3\n        /* \"@openzeppelin/contracts/access/Ownable.sol\":2975:3099   */\n      pop\n        /* \"@openzeppelin/contracts/access/Ownable.sol\":2912:3099   */\n      pop\n      jump\t// out\n        /* \"@openzeppelin/contracts/token/ERC1155/ERC1155.sol\":13276:13591   */\n    tag_152:\n      sub(shl(0xa0, 0x01), 0x01)\n        /* \"@openzeppelin/contracts/token/ERC1155/ERC1155.sol\":13383:13405   */\n      dup3\n      and\n        /* \"@openzeppelin/contracts/token/ERC1155/ERC1155.sol\":13379:13473   */\n      tag_200\n      jumpi\n        /* \"@openzeppelin/contracts/token/ERC1155/ERC1155.sol\":13428:13462   */\n      mload(0x40)\n      shl(0xe8, 0xced3e1)\n      dup2\n      mstore\n        /* \"@openzeppelin/contracts/token/ERC1155/ERC1155.sol\":13459:13460   */\n      0x00\n        /* \"@openzeppelin/contracts/token/ERC1155/ERC1155.sol\":13428:13462   */\n      0x04\n      dup3\n      add\n        /* \"#utility.yul\":7028:7102   */\n      mstore\n        /* \"#utility.yul\":7001:7019   */\n      0x24\n      add\n        /* \"@openzeppelin/contracts/token/ERC1155/ERC1155.sol\":13428:13462   */\n      tag_120\n        /* \"#utility.yul\":6882:7108   */\n      jump\n        /* \"@openzeppelin/contracts/token/ERC1155/ERC1155.sol\":13379:13473   */\n    tag_200:\n      sub(shl(0xa0, 0x01), 0x01)\n        /* \"@openzeppelin/contracts/token/ERC1155/ERC1155.sol\":13482:13507   */\n      dup4\n      dup2\n      and\n      0x00\n      dup2\n      dup2\n      mstore\n        /* \"@openzeppelin/contracts/token/ERC1155/ERC1155.sol\":13482:13500   */\n      0x01\n        /* \"@openzeppelin/contracts/token/ERC1155/ERC1155.sol\":13482:13507   */\n      0x20\n      swap1\n      dup2\n      mstore\n      0x40\n      dup1\n      dup4\n      keccak256\n        /* \"@openzeppelin/contracts/token/ERC1155/ERC1155.sol\":13482:13517   */\n      swap5\n      dup8\n      and\n      dup1\n      dup5\n      mstore\n      swap5\n      dup3\n      mstore\n      swap2\n      dup3\n      swap1\n      keccak256\n        /* \"@openzeppelin/contracts/token/ERC1155/ERC1155.sol\":13482:13528   */\n      dup1\n      sload\n      not(0xff)\n      and\n      dup7\n      iszero\n      iszero\n      swap1\n      dup2\n      or\n      swap1\n      swap2\n      sstore\n        /* \"@openzeppelin/contracts/token/ERC1155/ERC1155.sol\":13543:13584   */\n      swap2\n      mload\n        /* \"#utility.yul\":1182:1223   */\n      swap2\n      dup3\n      mstore\n        /* \"@openzeppelin/contracts/token/ERC1155/ERC1155.sol\":13543:13584   */\n      0x17307eab39ab6107e8899845ad3d59bd9653f200f220920489ca2b5937696c31\n      swap2\n        /* \"#utility.yul\":1155:1173   */\n      add\n        /* \"@openzeppelin/contracts/token/ERC1155/ERC1155.sol\":13543:13584   */\n      mload(0x40)\n      dup1\n      swap2\n      sub\n      swap1\n      log3\n        /* \"@openzeppelin/contracts/token/ERC1155/ERC1155.sol\":13276:13591   */\n      pop\n      pop\n      pop\n      jump\t// out\n        /* \"@openzeppelin/contracts/token/ERC1155/ERC1155.sol\":8159:8622   */\n    tag_163:\n      sub(shl(0xa0, 0x01), 0x01)\n        /* \"@openzeppelin/contracts/token/ERC1155/ERC1155.sol\":8281:8297   */\n      dup5\n      and\n        /* \"@openzeppelin/contracts/token/ERC1155/ERC1155.sol\":8277:8365   */\n      tag_204\n      jumpi\n        /* \"@openzeppelin/contracts/token/ERC1155/ERC1155.sol\":8320:8354   */\n      mload(0x40)\n      shl(0xe1, 0x2bfa23e7)\n      dup2\n      mstore\n        /* \"@openzeppelin/contracts/token/ERC1155/ERC1155.sol\":8351:8352   */\n      0x00\n        /* \"@openzeppelin/contracts/token/ERC1155/ERC1155.sol\":8320:8354   */\n      0x04\n      dup3\n      add\n        /* \"#utility.yul\":7028:7102   */\n      mstore\n        /* \"#utility.yul\":7001:7019   */\n      0x24\n      add\n        /* \"@openzeppelin/contracts/token/ERC1155/ERC1155.sol\":8320:8354   */\n      tag_120\n        /* \"#utility.yul\":6882:7108   */\n      jump\n        /* \"@openzeppelin/contracts/token/ERC1155/ERC1155.sol\":8277:8365   */\n    tag_204:\n      sub(shl(0xa0, 0x01), 0x01)\n        /* \"@openzeppelin/contracts/token/ERC1155/ERC1155.sol\":8378:8396   */\n      dup6\n      and\n        /* \"@openzeppelin/contracts/token/ERC1155/ERC1155.sol\":8374:8462   */\n      tag_206\n      jumpi\n        /* \"@openzeppelin/contracts/token/ERC1155/ERC1155.sol\":8419:8451   */\n      mload(0x40)\n      shl(0xe2, 0x6a0d45)\n      dup2\n      mstore\n        /* \"@openzeppelin/contracts/token/ERC1155/ERC1155.sol\":8448:8449   */\n      0x00\n        /* \"@openzeppelin/contracts/token/ERC1155/ERC1155.sol\":8419:8451   */\n      0x04\n      dup3\n      add\n        /* \"#utility.yul\":7028:7102   */\n      mstore\n        /* \"#utility.yul\":7001:7019   */\n      0x24\n      add\n        /* \"@openzeppelin/contracts/token/ERC1155/ERC1155.sol\":8419:8451   */\n      tag_120\n        /* \"#utility.yul\":6882:7108   */\n      jump\n        /* \"@openzeppelin/contracts/token/ERC1155/ERC1155.sol\":8374:8462   */\n    tag_206:\n        /* \"@openzeppelin/contracts/token/ERC1155/ERC1155.sol\":13974:13978   */\n      0x40\n        /* \"@openzeppelin/contracts/token/ERC1155/ERC1155.sol\":13968:13979   */\n      dup1\n      mload\n        /* \"@openzeppelin/contracts/token/ERC1155/ERC1155.sol\":14044:14045   */\n      0x01\n        /* \"@openzeppelin/contracts/token/ERC1155/ERC1155.sol\":14029:14046   */\n      dup1\n      dup3\n      mstore\n        /* \"@openzeppelin/contracts/token/ERC1155/ERC1155.sol\":14175:14179   */\n      0x20\n        /* \"@openzeppelin/contracts/token/ERC1155/ERC1155.sol\":14163:14180   */\n      dup3\n      add\n        /* \"@openzeppelin/contracts/token/ERC1155/ERC1155.sol\":14156:14191   */\n      dup7\n      swap1\n      mstore\n        /* \"@openzeppelin/contracts/token/ERC1155/ERC1155.sol\":14292:14309   */\n      dup2\n      dup4\n      add\n        /* \"@openzeppelin/contracts/token/ERC1155/ERC1155.sol\":14322:14339   */\n      swap1\n      dup2\n      mstore\n        /* \"@openzeppelin/contracts/token/ERC1155/ERC1155.sol\":13815:13838   */\n      0x60\n        /* \"@openzeppelin/contracts/token/ERC1155/ERC1155.sol\":14359:14376   */\n      dup3\n      add\n        /* \"@openzeppelin/contracts/token/ERC1155/ERC1155.sol\":14352:14387   */\n      dup6\n      swap1\n      mstore\n        /* \"@openzeppelin/contracts/token/ERC1155/ERC1155.sol\":14495:14512   */\n      0x80\n      dup3\n      add\n        /* \"@openzeppelin/contracts/token/ERC1155/ERC1155.sol\":14482:14513   */\n      swap1\n      swap3\n      mstore\n        /* \"@openzeppelin/contracts/token/ERC1155/ERC1155.sol\":13968:13979   */\n      swap1\n        /* \"@openzeppelin/contracts/token/ERC1155/ERC1155.sol\":8560:8615   */\n      tag_209\n        /* \"@openzeppelin/contracts/token/ERC1155/ERC1155.sol\":8587:8591   */\n      dup8\n        /* \"@openzeppelin/contracts/token/ERC1155/ERC1155.sol\":8593:8595   */\n      dup8\n        /* \"@openzeppelin/contracts/token/ERC1155/ERC1155.sol\":13968:13979   */\n      dup5\n        /* \"@openzeppelin/contracts/token/ERC1155/ERC1155.sol\":14292:14309   */\n      dup5\n        /* \"@openzeppelin/contracts/token/ERC1155/ERC1155.sol\":8610:8614   */\n      dup8\n        /* \"@openzeppelin/contracts/token/ERC1155/ERC1155.sol\":8560:8586   */\n      tag_183\n        /* \"@openzeppelin/contracts/token/ERC1155/ERC1155.sol\":8560:8615   */\n      jump\t// in\n    tag_209:\n        /* \"@openzeppelin/contracts/token/ERC1155/ERC1155.sol\":8267:8622   */\n      pop\n      pop\n        /* \"@openzeppelin/contracts/token/ERC1155/ERC1155.sol\":8159:8622   */\n      pop\n      pop\n      pop\n      pop\n      pop\n      jump\t// out\n        /* \"@openzeppelin/contracts/token/ERC1155/ERC1155.sol\":7002:7702   */\n    tag_183:\n        /* \"@openzeppelin/contracts/token/ERC1155/ERC1155.sol\":7203:7233   */\n      tag_212\n        /* \"@openzeppelin/contracts/token/ERC1155/ERC1155.sol\":7211:7215   */\n      dup6\n        /* \"@openzeppelin/contracts/token/ERC1155/ERC1155.sol\":7217:7219   */\n      dup6\n        /* \"@openzeppelin/contracts/token/ERC1155/ERC1155.sol\":7221:7224   */\n      dup6\n        /* \"@openzeppelin/contracts/token/ERC1155/ERC1155.sol\":7226:7232   */\n      dup6\n        /* \"@openzeppelin/contracts/token/ERC1155/ERC1155.sol\":7203:7210   */\n      tag_213\n        /* \"@openzeppelin/contracts/token/ERC1155/ERC1155.sol\":7203:7233   */\n      jump\t// in\n    tag_212:\n      sub(shl(0xa0, 0x01), 0x01)\n        /* \"@openzeppelin/contracts/token/ERC1155/ERC1155.sol\":7247:7263   */\n      dup5\n      and\n      iszero\n        /* \"@openzeppelin/contracts/token/ERC1155/ERC1155.sol\":7243:7696   */\n      tag_188\n      jumpi\n        /* \"@openzeppelin/contracts/token/ERC1155/ERC1155.sol\":7328:7338   */\n      dup3\n      mload\n        /* \"@openzeppelin/contracts/utils/Context.sol\":735:745   */\n      caller\n      swap1\n        /* \"@openzeppelin/contracts/token/ERC1155/ERC1155.sol\":7342:7343   */\n      0x01\n        /* \"@openzeppelin/contracts/token/ERC1155/ERC1155.sol\":7328:7343   */\n      sub\n        /* \"@openzeppelin/contracts/token/ERC1155/ERC1155.sol\":7324:7686   */\n      tag_216\n      jumpi\n        /* \"@openzeppelin/contracts/utils/Arrays.sol\":16302:16306   */\n      0x20\n        /* \"@openzeppelin/contracts/utils/Arrays.sol\":16273:16308   */\n      dup5\n      dup2\n      add\n        /* \"@openzeppelin/contracts/utils/Arrays.sol\":16267:16309   */\n      mload\n        /* \"@openzeppelin/contracts/utils/Arrays.sol\":16273:16308   */\n      swap1\n      dup5\n      add\n        /* \"@openzeppelin/contracts/utils/Arrays.sol\":16267:16309   */\n      mload\n        /* \"@openzeppelin/contracts/token/ERC1155/ERC1155.sol\":7481:7553   */\n      tag_219\n        /* \"@openzeppelin/contracts/token/ERC1155/ERC1155.sol\":7517:7525   */\n      dup4\n        /* \"@openzeppelin/contracts/token/ERC1155/ERC1155.sol\":7527:7531   */\n      dup10\n        /* \"@openzeppelin/contracts/token/ERC1155/ERC1155.sol\":7533:7535   */\n      dup10\n        /* \"@openzeppelin/contracts/utils/Arrays.sol\":16267:16309   */\n      dup6\n      dup6\n        /* \"@openzeppelin/contracts/token/ERC1155/ERC1155.sol\":7548:7552   */\n      dup10\n        /* \"@openzeppelin/contracts/token/ERC1155/ERC1155.sol\":7481:7516   */\n      tag_220\n        /* \"@openzeppelin/contracts/token/ERC1155/ERC1155.sol\":7481:7553   */\n      jump\t// in\n    tag_219:\n        /* \"@openzeppelin/contracts/token/ERC1155/ERC1155.sol\":7345:7568   */\n      pop\n      pop\n        /* \"@openzeppelin/contracts/token/ERC1155/ERC1155.sol\":7324:7686   */\n      jump(tag_122)\n    tag_216:\n        /* \"@openzeppelin/contracts/token/ERC1155/ERC1155.sol\":7592:7671   */\n      tag_122\n        /* \"@openzeppelin/contracts/token/ERC1155/ERC1155.sol\":7633:7641   */\n      dup2\n        /* \"@openzeppelin/contracts/token/ERC1155/ERC1155.sol\":7643:7647   */\n      dup8\n        /* \"@openzeppelin/contracts/token/ERC1155/ERC1155.sol\":7649:7651   */\n      dup8\n        /* \"@openzeppelin/contracts/token/ERC1155/ERC1155.sol\":7653:7656   */\n      dup8\n        /* \"@openzeppelin/contracts/token/ERC1155/ERC1155.sol\":7658:7664   */\n      dup8\n        /* \"@openzeppelin/contracts/token/ERC1155/ERC1155.sol\":7666:7670   */\n      dup8\n        /* \"@openzeppelin/contracts/token/ERC1155/ERC1155.sol\":7592:7632   */\n      tag_223\n        /* \"@openzeppelin/contracts/token/ERC1155/ERC1155.sol\":7592:7671   */\n      jump\t// in\n        /* \"kneadmonthly.sol\":908:1288  function _update(... */\n    tag_213:\n      sub(shl(0xa0, 0x01), 0x01)\n        /* \"kneadmonthly.sol\":1158:1176  from == address(0) */\n      dup5\n      and\n      iszero\n      dup1\n        /* \"kneadmonthly.sol\":1158:1196  from == address(0) || to == address(0) */\n      tag_225\n      jumpi\n      pop\n      sub(shl(0xa0, 0x01), 0x01)\n        /* \"kneadmonthly.sol\":1180:1196  to == address(0) */\n      dup4\n      and\n      iszero\n        /* \"kneadmonthly.sol\":1158:1196  from == address(0) || to == address(0) */\n    tag_225:\n        /* \"kneadmonthly.sol\":1150:1234  require(from == address(0) || to == address(0), \"Transfers disabled: Soulbound NFT\") */\n      tag_226\n      jumpi\n      mload(0x40)\n      shl(0xe5, 0x461bcd)\n      dup2\n      mstore\n        /* \"#utility.yul\":10089:10091   */\n      0x20\n        /* \"kneadmonthly.sol\":1150:1234  require(from == address(0) || to == address(0), \"Transfers disabled: Soulbound NFT\") */\n      0x04\n      dup3\n      add\n        /* \"#utility.yul\":10071:10092   */\n      mstore\n        /* \"#utility.yul\":10128:10130   */\n      0x21\n        /* \"#utility.yul\":10108:10126   */\n      0x24\n      dup3\n      add\n        /* \"#utility.yul\":10101:10131   */\n      mstore\n        /* \"#utility.yul\":10167:10201   */\n      0x5472616e73666572732064697361626c65643a20536f756c626f756e64204e46\n        /* \"#utility.yul\":10147:10165   */\n      0x44\n      dup3\n      add\n        /* \"#utility.yul\":10140:10202   */\n      mstore\n      shl(0xfa, 0x15)\n        /* \"#utility.yul\":10218:10236   */\n      0x64\n      dup3\n      add\n        /* \"#utility.yul\":10211:10242   */\n      mstore\n        /* \"#utility.yul\":10259:10278   */\n      0x84\n      add\n        /* \"kneadmonthly.sol\":1150:1234  require(from == address(0) || to == address(0), \"Transfers disabled: Soulbound NFT\") */\n      tag_120\n        /* \"#utility.yul\":9887:10284   */\n      jump\n        /* \"kneadmonthly.sol\":1150:1234  require(from == address(0) || to == address(0), \"Transfers disabled: Soulbound NFT\") */\n    tag_226:\n        /* \"kneadmonthly.sol\":1244:1281  super._update(from, to, ids, amounts) */\n      tag_229\n        /* \"kneadmonthly.sol\":1258:1262  from */\n      dup5\n        /* \"kneadmonthly.sol\":1264:1266  to */\n      dup5\n        /* \"kneadmonthly.sol\":1268:1271  ids */\n      dup5\n        /* \"kneadmonthly.sol\":1273:1280  amounts */\n      dup5\n        /* \"kneadmonthly.sol\":1244:1257  super._update */\n      tag_230\n        /* \"kneadmonthly.sol\":1244:1281  super._update(from, to, ids, amounts) */\n      jump\t// in\n    tag_229:\n        /* \"kneadmonthly.sol\":908:1288  function _update(... */\n      pop\n      pop\n      pop\n      pop\n      jump\t// out\n        /* \"@openzeppelin/contracts/token/ERC1155/utils/ERC1155Utils.sol\":1006:1965   */\n    tag_220:\n      sub(shl(0xa0, 0x01), 0x01)\n        /* \"@openzeppelin/contracts/token/ERC1155/utils/ERC1155Utils.sol\":1205:1219   */\n      dup5\n      and\n      extcodesize\n        /* \"@openzeppelin/contracts/token/ERC1155/utils/ERC1155Utils.sol\":1205:1223   */\n      iszero\n        /* \"@openzeppelin/contracts/token/ERC1155/utils/ERC1155Utils.sol\":1201:1959   */\n      tag_122\n      jumpi\n        /* \"@openzeppelin/contracts/token/ERC1155/utils/ERC1155Utils.sol\":1243:1314   */\n      mload(0x40)\n      shl(0xe0, 0xf23a6e61)\n      dup2\n      mstore\n      sub(shl(0xa0, 0x01), 0x01)\n        /* \"@openzeppelin/contracts/token/ERC1155/utils/ERC1155Utils.sol\":1243:1281   */\n      dup6\n      and\n      swap1\n      0xf23a6e61\n      swap1\n        /* \"@openzeppelin/contracts/token/ERC1155/utils/ERC1155Utils.sol\":1243:1314   */\n      tag_233\n      swap1\n        /* \"@openzeppelin/contracts/token/ERC1155/utils/ERC1155Utils.sol\":1282:1290   */\n      dup10\n      swap1\n        /* \"@openzeppelin/contracts/token/ERC1155/utils/ERC1155Utils.sol\":1292:1296   */\n      dup10\n      swap1\n        /* \"@openzeppelin/contracts/token/ERC1155/utils/ERC1155Utils.sol\":1298:1300   */\n      dup9\n      swap1\n        /* \"@openzeppelin/contracts/token/ERC1155/utils/ERC1155Utils.sol\":1302:1307   */\n      dup9\n      swap1\n        /* \"@openzeppelin/contracts/token/ERC1155/utils/ERC1155Utils.sol\":1309:1313   */\n      dup9\n      swap1\n        /* \"@openzeppelin/contracts/token/ERC1155/utils/ERC1155Utils.sol\":1243:1314   */\n      0x04\n      add\n      tag_234\n      jump\t// in\n    tag_233:\n      0x20\n      mload(0x40)\n      dup1\n      dup4\n      sub\n      dup2\n      0x00\n      dup8\n      gas\n      call\n      swap3\n      pop\n      pop\n      pop\n      dup1\n      iszero\n      tag_235\n      jumpi\n      pop\n      0x40\n      dup1\n      mload\n      0x1f\n      returndatasize\n      swap1\n      dup2\n      add\n      not(0x1f)\n      and\n      dup3\n      add\n      swap1\n      swap3\n      mstore\n      tag_236\n      swap2\n      dup2\n      add\n      swap1\n      tag_237\n      jump\t// in\n    tag_236:\n      0x01\n    tag_235:\n        /* \"@openzeppelin/contracts/token/ERC1155/utils/ERC1155Utils.sol\":1239:1949   */\n      tag_238\n      jumpi\n      returndatasize\n      dup1\n      dup1\n      iszero\n      tag_243\n      jumpi\n      mload(0x40)\n      swap2\n      pop\n      and(add(returndatasize, 0x3f), not(0x1f))\n      dup3\n      add\n      0x40\n      mstore\n      returndatasize\n      dup3\n      mstore\n      returndatasize\n      0x00\n      0x20\n      dup5\n      add\n      returndatacopy\n      jump(tag_242)\n    tag_243:\n      0x60\n      swap2\n      pop\n    tag_242:\n      pop\n        /* \"@openzeppelin/contracts/token/ERC1155/utils/ERC1155Utils.sol\":1613:1619   */\n      dup1\n        /* \"@openzeppelin/contracts/token/ERC1155/utils/ERC1155Utils.sol\":1613:1626   */\n      mload\n        /* \"@openzeppelin/contracts/token/ERC1155/utils/ERC1155Utils.sol\":1630:1631   */\n      0x00\n        /* \"@openzeppelin/contracts/token/ERC1155/utils/ERC1155Utils.sol\":1613:1631   */\n      sub\n        /* \"@openzeppelin/contracts/token/ERC1155/utils/ERC1155Utils.sol\":1609:1935   */\n      tag_244\n      jumpi\n        /* \"@openzeppelin/contracts/token/ERC1155/utils/ERC1155Utils.sol\":1718:1759   */\n      mload(0x40)\n      shl(0xe1, 0x2bfa23e7)\n      dup2\n      mstore\n      sub(shl(0xa0, 0x01), 0x01)\n        /* \"#utility.yul\":7046:7101   */\n      dup7\n      and\n        /* \"@openzeppelin/contracts/token/ERC1155/utils/ERC1155Utils.sol\":1718:1759   */\n      0x04\n      dup3\n      add\n        /* \"#utility.yul\":7028:7102   */\n      mstore\n        /* \"#utility.yul\":7001:7019   */\n      0x24\n      add\n        /* \"@openzeppelin/contracts/token/ERC1155/utils/ERC1155Utils.sol\":1718:1759   */\n      tag_120\n        /* \"#utility.yul\":6882:7108   */\n      jump\n        /* \"@openzeppelin/contracts/token/ERC1155/utils/ERC1155Utils.sol\":1609:1935   */\n    tag_244:\n        /* \"@openzeppelin/contracts/token/ERC1155/utils/ERC1155Utils.sol\":1887:1893   */\n      dup1\n        /* \"@openzeppelin/contracts/token/ERC1155/utils/ERC1155Utils.sol\":1881:1894   */\n      mload\n        /* \"@openzeppelin/contracts/token/ERC1155/utils/ERC1155Utils.sol\":1872:1878   */\n      dup2\n        /* \"@openzeppelin/contracts/token/ERC1155/utils/ERC1155Utils.sol\":1868:1870   */\n      0x20\n        /* \"@openzeppelin/contracts/token/ERC1155/utils/ERC1155Utils.sol\":1864:1879   */\n      add\n        /* \"@openzeppelin/contracts/token/ERC1155/utils/ERC1155Utils.sol\":1857:1895   */\n      revert\n        /* \"@openzeppelin/contracts/token/ERC1155/utils/ERC1155Utils.sol\":1239:1949   */\n    tag_238:\n      not(sub(shl(0xe0, 0x01), 0x01))\n        /* \"@openzeppelin/contracts/token/ERC1155/utils/ERC1155Utils.sol\":1363:1418   */\n      dup2\n      and\n      shl(0xe0, 0xf23a6e61)\n      eq\n        /* \"@openzeppelin/contracts/token/ERC1155/utils/ERC1155Utils.sol\":1359:1548   */\n      tag_209\n      jumpi\n        /* \"@openzeppelin/contracts/token/ERC1155/utils/ERC1155Utils.sol\":1488:1529   */\n      mload(0x40)\n      shl(0xe1, 0x2bfa23e7)\n      dup2\n      mstore\n      sub(shl(0xa0, 0x01), 0x01)\n        /* \"#utility.yul\":7046:7101   */\n      dup7\n      and\n        /* \"@openzeppelin/contracts/token/ERC1155/utils/ERC1155Utils.sol\":1488:1529   */\n      0x04\n      dup3\n      add\n        /* \"#utility.yul\":7028:7102   */\n      mstore\n        /* \"#utility.yul\":7001:7019   */\n      0x24\n      add\n        /* \"@openzeppelin/contracts/token/ERC1155/utils/ERC1155Utils.sol\":1488:1529   */\n      tag_120\n        /* \"#utility.yul\":6882:7108   */\n      jump\n        /* \"@openzeppelin/contracts/token/ERC1155/utils/ERC1155Utils.sol\":2521:3547   */\n    tag_223:\n      sub(shl(0xa0, 0x01), 0x01)\n        /* \"@openzeppelin/contracts/token/ERC1155/utils/ERC1155Utils.sol\":2745:2759   */\n      dup5\n      and\n      extcodesize\n        /* \"@openzeppelin/contracts/token/ERC1155/utils/ERC1155Utils.sol\":2745:2763   */\n      iszero\n        /* \"@openzeppelin/contracts/token/ERC1155/utils/ERC1155Utils.sol\":2741:3541   */\n      tag_122\n      jumpi\n        /* \"@openzeppelin/contracts/token/ERC1155/utils/ERC1155Utils.sol\":2783:2861   */\n      mload(0x40)\n      shl(0xe0, 0xbc197c81)\n      dup2\n      mstore\n      sub(shl(0xa0, 0x01), 0x01)\n        /* \"@openzeppelin/contracts/token/ERC1155/utils/ERC1155Utils.sol\":2783:2826   */\n      dup6\n      and\n      swap1\n      0xbc197c81\n      swap1\n        /* \"@openzeppelin/contracts/token/ERC1155/utils/ERC1155Utils.sol\":2783:2861   */\n      tag_252\n      swap1\n        /* \"@openzeppelin/contracts/token/ERC1155/utils/ERC1155Utils.sol\":2827:2835   */\n      dup10\n      swap1\n        /* \"@openzeppelin/contracts/token/ERC1155/utils/ERC1155Utils.sol\":2837:2841   */\n      dup10\n      swap1\n        /* \"@openzeppelin/contracts/token/ERC1155/utils/ERC1155Utils.sol\":2843:2846   */\n      dup9\n      swap1\n        /* \"@openzeppelin/contracts/token/ERC1155/utils/ERC1155Utils.sol\":2848:2854   */\n      dup9\n      swap1\n        /* \"@openzeppelin/contracts/token/ERC1155/utils/ERC1155Utils.sol\":2856:2860   */\n      dup9\n      swap1\n        /* \"@openzeppelin/contracts/token/ERC1155/utils/ERC1155Utils.sol\":2783:2861   */\n      0x04\n      add\n      tag_253\n      jump\t// in\n    tag_252:\n      0x20\n      mload(0x40)\n      dup1\n      dup4\n      sub\n      dup2\n      0x00\n      dup8\n      gas\n      call\n      swap3\n      pop\n      pop\n      pop\n      dup1\n      iszero\n      tag_254\n      jumpi\n      pop\n      0x40\n      dup1\n      mload\n      0x1f\n      returndatasize\n      swap1\n      dup2\n      add\n      not(0x1f)\n      and\n      dup3\n      add\n      swap1\n      swap3\n      mstore\n      tag_255\n      swap2\n      dup2\n      add\n      swap1\n      tag_237\n      jump\t// in\n    tag_255:\n      0x01\n    tag_254:\n        /* \"@openzeppelin/contracts/token/ERC1155/utils/ERC1155Utils.sol\":2779:3531   */\n      tag_256\n      jumpi\n      returndatasize\n      dup1\n      dup1\n      iszero\n      tag_243\n      jumpi\n      mload(0x40)\n      swap2\n      pop\n      and(add(returndatasize, 0x3f), not(0x1f))\n      dup3\n      add\n      0x40\n      mstore\n      returndatasize\n      dup3\n      mstore\n      returndatasize\n      0x00\n      0x20\n      dup5\n      add\n      returndatacopy\n      jump(tag_242)\n    tag_256:\n      not(sub(shl(0xe0, 0x01), 0x01))\n        /* \"@openzeppelin/contracts/token/ERC1155/utils/ERC1155Utils.sol\":2940:3000   */\n      dup2\n      and\n      shl(0xe0, 0xbc197c81)\n      eq\n        /* \"@openzeppelin/contracts/token/ERC1155/utils/ERC1155Utils.sol\":2936:3130   */\n      tag_209\n      jumpi\n        /* \"@openzeppelin/contracts/token/ERC1155/utils/ERC1155Utils.sol\":3070:3111   */\n      mload(0x40)\n      shl(0xe1, 0x2bfa23e7)\n      dup2\n      mstore\n      sub(shl(0xa0, 0x01), 0x01)\n        /* \"#utility.yul\":7046:7101   */\n      dup7\n      and\n        /* \"@openzeppelin/contracts/token/ERC1155/utils/ERC1155Utils.sol\":3070:3111   */\n      0x04\n      dup3\n      add\n        /* \"#utility.yul\":7028:7102   */\n      mstore\n        /* \"#utility.yul\":7001:7019   */\n      0x24\n      add\n        /* \"@openzeppelin/contracts/token/ERC1155/utils/ERC1155Utils.sol\":3070:3111   */\n      tag_120\n        /* \"#utility.yul\":6882:7108   */\n      jump\n        /* \"@openzeppelin/contracts/token/ERC1155/ERC1155.sol\":5142:6423   */\n    tag_230:\n        /* \"@openzeppelin/contracts/token/ERC1155/ERC1155.sol\":5277:5283   */\n      dup1\n        /* \"@openzeppelin/contracts/token/ERC1155/ERC1155.sol\":5277:5290   */\n      mload\n        /* \"@openzeppelin/contracts/token/ERC1155/ERC1155.sol\":5263:5266   */\n      dup3\n        /* \"@openzeppelin/contracts/token/ERC1155/ERC1155.sol\":5263:5273   */\n      mload\n        /* \"@openzeppelin/contracts/token/ERC1155/ERC1155.sol\":5263:5290   */\n      eq\n        /* \"@openzeppelin/contracts/token/ERC1155/ERC1155.sol\":5259:5376   */\n      tag_269\n      jumpi\n        /* \"@openzeppelin/contracts/token/ERC1155/ERC1155.sol\":5339:5349   */\n      dup2\n      mload\n        /* \"@openzeppelin/contracts/token/ERC1155/ERC1155.sol\":5351:5364   */\n      dup2\n      mload\n        /* \"@openzeppelin/contracts/token/ERC1155/ERC1155.sol\":5313:5365   */\n      mload(0x40)\n      shl(0xe0, 0x5b059991)\n      dup2\n      mstore\n      0x04\n      dup2\n      add\n        /* \"#utility.yul\":9676:9701   */\n      swap3\n      swap1\n      swap3\n      mstore\n        /* \"#utility.yul\":9717:9735   */\n      0x24\n      dup3\n      add\n        /* \"#utility.yul\":9710:9744   */\n      mstore\n        /* \"#utility.yul\":9649:9667   */\n      0x44\n      add\n        /* \"@openzeppelin/contracts/token/ERC1155/ERC1155.sol\":5313:5365   */\n      tag_120\n        /* \"#utility.yul\":9502:9750   */\n      jump\n        /* \"@openzeppelin/contracts/token/ERC1155/ERC1155.sol\":5259:5376   */\n    tag_269:\n        /* \"@openzeppelin/contracts/utils/Context.sol\":735:745   */\n      caller\n        /* \"@openzeppelin/contracts/token/ERC1155/ERC1155.sol\":5386:5402   */\n      0x00\n        /* \"@openzeppelin/contracts/token/ERC1155/ERC1155.sol\":5428:6119   */\n    tag_272:\n        /* \"@openzeppelin/contracts/token/ERC1155/ERC1155.sol\":5452:5455   */\n      dup4\n        /* \"@openzeppelin/contracts/token/ERC1155/ERC1155.sol\":5452:5462   */\n      mload\n        /* \"@openzeppelin/contracts/token/ERC1155/ERC1155.sol\":5448:5449   */\n      dup2\n        /* \"@openzeppelin/contracts/token/ERC1155/ERC1155.sol\":5448:5462   */\n      lt\n        /* \"@openzeppelin/contracts/token/ERC1155/ERC1155.sol\":5428:6119   */\n      iszero\n      tag_273\n      jumpi\n        /* \"@openzeppelin/contracts/utils/Arrays.sol\":16302:16306   */\n      0x20\n        /* \"@openzeppelin/contracts/utils/Arrays.sol\":16293:16307   */\n      dup2\n      dup2\n      mul\n        /* \"@openzeppelin/contracts/utils/Arrays.sol\":16273:16308   */\n      dup6\n      dup2\n      add\n      dup3\n      add\n        /* \"@openzeppelin/contracts/utils/Arrays.sol\":16267:16309   */\n      mload\n        /* \"@openzeppelin/contracts/utils/Arrays.sol\":16273:16308   */\n      swap1\n      dup6\n      add\n      swap1\n      swap2\n      add\n        /* \"@openzeppelin/contracts/utils/Arrays.sol\":16267:16309   */\n      mload\n      sub(shl(0xa0, 0x01), 0x01)\n        /* \"@openzeppelin/contracts/token/ERC1155/ERC1155.sol\":5598:5616   */\n      dup9\n      and\n      iszero\n        /* \"@openzeppelin/contracts/token/ERC1155/ERC1155.sol\":5594:6014   */\n      tag_277\n      jumpi\n        /* \"@openzeppelin/contracts/token/ERC1155/ERC1155.sol\":5636:5655   */\n      0x00\n        /* \"@openzeppelin/contracts/token/ERC1155/ERC1155.sol\":5658:5671   */\n      dup3\n      dup2\n      mstore\n      0x20\n      dup2\n      dup2\n      mstore\n      0x40\n      dup1\n      dup4\n      keccak256\n      sub(shl(0xa0, 0x01), 0x01)\n        /* \"@openzeppelin/contracts/token/ERC1155/ERC1155.sol\":5658:5677   */\n      dup13\n      and\n      dup5\n      mstore\n      swap1\n      swap2\n      mstore\n      swap1\n      keccak256\n      sload\n        /* \"@openzeppelin/contracts/token/ERC1155/ERC1155.sol\":5699:5718   */\n      dup2\n      dup2\n      lt\n        /* \"@openzeppelin/contracts/token/ERC1155/ERC1155.sol\":5695:5824   */\n      iszero\n      tag_278\n      jumpi\n        /* \"@openzeppelin/contracts/token/ERC1155/ERC1155.sol\":5749:5805   */\n      mload(0x40)\n      shl(0xe0, 0x03dee4c5)\n      dup2\n      mstore\n      sub(shl(0xa0, 0x01), 0x01)\n        /* \"#utility.yul\":12236:12291   */\n      dup11\n      and\n        /* \"@openzeppelin/contracts/token/ERC1155/ERC1155.sol\":5749:5805   */\n      0x04\n      dup3\n      add\n        /* \"#utility.yul\":12218:12292   */\n      mstore\n        /* \"#utility.yul\":12308:12326   */\n      0x24\n      dup2\n      add\n        /* \"#utility.yul\":12301:12335   */\n      dup3\n      swap1\n      mstore\n        /* \"#utility.yul\":12351:12369   */\n      0x44\n      dup2\n      add\n        /* \"#utility.yul\":12344:12378   */\n      dup4\n      swap1\n      mstore\n        /* \"#utility.yul\":12394:12412   */\n      0x64\n      dup2\n      add\n        /* \"#utility.yul\":12387:12421   */\n      dup5\n      swap1\n      mstore\n        /* \"#utility.yul\":12190:12209   */\n      0x84\n      add\n        /* \"@openzeppelin/contracts/token/ERC1155/ERC1155.sol\":5749:5805   */\n      tag_120\n        /* \"#utility.yul\":11987:12427   */\n      jump\n        /* \"@openzeppelin/contracts/token/ERC1155/ERC1155.sol\":5695:5824   */\n    tag_278:\n        /* \"@openzeppelin/contracts/token/ERC1155/ERC1155.sol\":5940:5949   */\n      0x00\n        /* \"@openzeppelin/contracts/token/ERC1155/ERC1155.sol\":5940:5953   */\n      dup4\n      dup2\n      mstore\n      0x20\n      dup2\n      dup2\n      mstore\n      0x40\n      dup1\n      dup4\n      keccak256\n      sub(shl(0xa0, 0x01), 0x01)\n        /* \"@openzeppelin/contracts/token/ERC1155/ERC1155.sol\":5940:5959   */\n      dup14\n      and\n      dup5\n      mstore\n      swap1\n      swap2\n      mstore\n      swap1\n      keccak256\n        /* \"@openzeppelin/contracts/token/ERC1155/ERC1155.sol\":5962:5981   */\n      swap1\n      dup3\n      swap1\n      sub\n        /* \"@openzeppelin/contracts/token/ERC1155/ERC1155.sol\":5940:5981   */\n      swap1\n      sstore\n        /* \"@openzeppelin/contracts/token/ERC1155/ERC1155.sol\":5594:6014   */\n    tag_277:\n      sub(shl(0xa0, 0x01), 0x01)\n        /* \"@openzeppelin/contracts/token/ERC1155/ERC1155.sol\":6032:6048   */\n      dup8\n      and\n      iszero\n        /* \"@openzeppelin/contracts/token/ERC1155/ERC1155.sol\":6028:6109   */\n      tag_281\n      jumpi\n        /* \"@openzeppelin/contracts/token/ERC1155/ERC1155.sol\":6068:6077   */\n      0x00\n        /* \"@openzeppelin/contracts/token/ERC1155/ERC1155.sol\":6068:6081   */\n      dup3\n      dup2\n      mstore\n      0x20\n      dup2\n      dup2\n      mstore\n      0x40\n      dup1\n      dup4\n      keccak256\n      sub(shl(0xa0, 0x01), 0x01)\n        /* \"@openzeppelin/contracts/token/ERC1155/ERC1155.sol\":6068:6085   */\n      dup12\n      and\n      dup5\n      mstore\n      swap1\n      swap2\n      mstore\n      dup2\n      keccak256\n        /* \"@openzeppelin/contracts/token/ERC1155/ERC1155.sol\":6068:6094   */\n      dup1\n      sload\n        /* \"@openzeppelin/contracts/token/ERC1155/ERC1155.sol\":6089:6094   */\n      dup4\n      swap3\n        /* \"@openzeppelin/contracts/token/ERC1155/ERC1155.sol\":6068:6077   */\n      swap1\n        /* \"@openzeppelin/contracts/token/ERC1155/ERC1155.sol\":6068:6094   */\n      tag_282\n      swap1\n        /* \"@openzeppelin/contracts/token/ERC1155/ERC1155.sol\":6089:6094   */\n      dup5\n      swap1\n        /* \"@openzeppelin/contracts/token/ERC1155/ERC1155.sol\":6068:6094   */\n      tag_283\n      jump\t// in\n    tag_282:\n      swap1\n      swap2\n      sstore\n      pop\n      pop\n        /* \"@openzeppelin/contracts/token/ERC1155/ERC1155.sol\":6028:6109   */\n    tag_281:\n      pop\n      pop\n        /* \"@openzeppelin/contracts/token/ERC1155/ERC1155.sol\":5464:5467   */\n      0x01\n      add\n        /* \"@openzeppelin/contracts/token/ERC1155/ERC1155.sol\":5428:6119   */\n      jump(tag_272)\n    tag_273:\n      pop\n        /* \"@openzeppelin/contracts/token/ERC1155/ERC1155.sol\":6133:6136   */\n      dup3\n        /* \"@openzeppelin/contracts/token/ERC1155/ERC1155.sol\":6133:6143   */\n      mload\n        /* \"@openzeppelin/contracts/token/ERC1155/ERC1155.sol\":6147:6148   */\n      0x01\n        /* \"@openzeppelin/contracts/token/ERC1155/ERC1155.sol\":6133:6148   */\n      sub\n        /* \"@openzeppelin/contracts/token/ERC1155/ERC1155.sol\":6129:6417   */\n      tag_284\n      jumpi\n        /* \"@openzeppelin/contracts/utils/Arrays.sol\":16302:16306   */\n      0x20\n        /* \"@openzeppelin/contracts/utils/Arrays.sol\":16273:16308   */\n      dup4\n      add\n        /* \"@openzeppelin/contracts/utils/Arrays.sol\":16267:16309   */\n      mload\n        /* \"@openzeppelin/contracts/token/ERC1155/ERC1155.sol\":6164:6174   */\n      0x00\n      swap1\n        /* \"@openzeppelin/contracts/utils/Arrays.sol\":16302:16306   */\n      0x20\n        /* \"@openzeppelin/contracts/utils/Arrays.sol\":16273:16308   */\n      dup5\n      add\n        /* \"@openzeppelin/contracts/utils/Arrays.sol\":16267:16309   */\n      mload\n        /* \"@openzeppelin/contracts/token/ERC1155/ERC1155.sol\":6164:6202   */\n      swap1\n      swap2\n      pop\n        /* \"@openzeppelin/contracts/token/ERC1155/ERC1155.sol\":6310:6312   */\n      dup6\n      sub(shl(0xa0, 0x01), 0x01)\n        /* \"@openzeppelin/contracts/token/ERC1155/ERC1155.sol\":6279:6324   */\n      and\n        /* \"@openzeppelin/contracts/token/ERC1155/ERC1155.sol\":6304:6308   */\n      dup8\n      sub(shl(0xa0, 0x01), 0x01)\n        /* \"@openzeppelin/contracts/token/ERC1155/ERC1155.sol\":6279:6324   */\n      and\n        /* \"@openzeppelin/contracts/token/ERC1155/ERC1155.sol\":6294:6302   */\n      dup5\n      sub(shl(0xa0, 0x01), 0x01)\n        /* \"@openzeppelin/contracts/token/ERC1155/ERC1155.sol\":6279:6324   */\n      and\n      0xc3d58168c5ae7397731d063d5bbf3d657854427343f4c083240f7aacaa2d0f62\n        /* \"@openzeppelin/contracts/token/ERC1155/ERC1155.sol\":6314:6316   */\n      dup6\n        /* \"@openzeppelin/contracts/token/ERC1155/ERC1155.sol\":6318:6323   */\n      dup6\n        /* \"@openzeppelin/contracts/token/ERC1155/ERC1155.sol\":6279:6324   */\n      mload(0x40)\n      tag_287\n      swap3\n      swap2\n      swap1\n        /* \"#utility.yul\":9676:9701   */\n      swap2\n      dup3\n      mstore\n        /* \"#utility.yul\":9732:9734   */\n      0x20\n        /* \"#utility.yul\":9717:9735   */\n      dup3\n      add\n        /* \"#utility.yul\":9710:9744   */\n      mstore\n        /* \"#utility.yul\":9664:9666   */\n      0x40\n        /* \"#utility.yul\":9649:9667   */\n      add\n      swap1\n        /* \"#utility.yul\":9502:9750   */\n      jump\n        /* \"@openzeppelin/contracts/token/ERC1155/ERC1155.sol\":6279:6324   */\n    tag_287:\n      mload(0x40)\n      dup1\n      swap2\n      sub\n      swap1\n      log4\n        /* \"@openzeppelin/contracts/token/ERC1155/ERC1155.sol\":6150:6335   */\n      pop\n      pop\n        /* \"@openzeppelin/contracts/token/ERC1155/ERC1155.sol\":6129:6417   */\n      jump(tag_188)\n    tag_284:\n        /* \"@openzeppelin/contracts/token/ERC1155/ERC1155.sol\":6390:6392   */\n      dup4\n      sub(shl(0xa0, 0x01), 0x01)\n        /* \"@openzeppelin/contracts/token/ERC1155/ERC1155.sol\":6360:6406   */\n      and\n        /* \"@openzeppelin/contracts/token/ERC1155/ERC1155.sol\":6384:6388   */\n      dup6\n      sub(shl(0xa0, 0x01), 0x01)\n        /* \"@openzeppelin/contracts/token/ERC1155/ERC1155.sol\":6360:6406   */\n      and\n        /* \"@openzeppelin/contracts/token/ERC1155/ERC1155.sol\":6374:6382   */\n      dup3\n      sub(shl(0xa0, 0x01), 0x01)\n        /* \"@openzeppelin/contracts/token/ERC1155/ERC1155.sol\":6360:6406   */\n      and\n      0x4a39dc06d4c0dbc64b70af90fd698a233a518aa5d07e595d983b8c0526c8f7fb\n        /* \"@openzeppelin/contracts/token/ERC1155/ERC1155.sol\":6394:6397   */\n      dup7\n        /* \"@openzeppelin/contracts/token/ERC1155/ERC1155.sol\":6399:6405   */\n      dup7\n        /* \"@openzeppelin/contracts/token/ERC1155/ERC1155.sol\":6360:6406   */\n      mload(0x40)\n      tag_289\n      swap3\n      swap2\n      swap1\n      tag_290\n      jump\t// in\n    tag_289:\n      mload(0x40)\n      dup1\n      swap2\n      sub\n      swap1\n      log4\n        /* \"@openzeppelin/contracts/token/ERC1155/ERC1155.sol\":5249:6423   */\n      pop\n        /* \"@openzeppelin/contracts/token/ERC1155/ERC1155.sol\":5142:6423   */\n      pop\n      pop\n      pop\n      pop\n      jump\t// out\n        /* \"#utility.yul\":14:210   */\n    tag_291:\n        /* \"#utility.yul\":82:102   */\n      dup1\n      calldataload\n      sub(shl(0xa0, 0x01), 0x01)\n        /* \"#utility.yul\":131:185   */\n      dup2\n      and\n        /* \"#utility.yul\":121:186   */\n      dup2\n      eq\n        /* \"#utility.yul\":111:204   */\n      tag_301\n      jumpi\n        /* \"#utility.yul\":200:201   */\n      0x00\n        /* \"#utility.yul\":197:198   */\n      dup1\n        /* \"#utility.yul\":190:202   */\n      revert\n        /* \"#utility.yul\":111:204   */\n    tag_301:\n        /* \"#utility.yul\":14:210   */\n      swap2\n      swap1\n      pop\n      jump\t// out\n        /* \"#utility.yul\":215:469   */\n    tag_24:\n        /* \"#utility.yul\":283:289   */\n      0x00\n        /* \"#utility.yul\":291:297   */\n      dup1\n        /* \"#utility.yul\":344:346   */\n      0x40\n        /* \"#utility.yul\":332:341   */\n      dup4\n        /* \"#utility.yul\":323:330   */\n      dup6\n        /* \"#utility.yul\":319:342   */\n      sub\n        /* \"#utility.yul\":315:347   */\n      slt\n        /* \"#utility.yul\":312:364   */\n      iszero\n      tag_303\n      jumpi\n        /* \"#utility.yul\":360:361   */\n      0x00\n        /* \"#utility.yul\":357:358   */\n      dup1\n        /* \"#utility.yul\":350:362   */\n      revert\n        /* \"#utility.yul\":312:364   */\n    tag_303:\n        /* \"#utility.yul\":383:412   */\n      tag_304\n        /* \"#utility.yul\":402:411   */\n      dup4\n        /* \"#utility.yul\":383:412   */\n      tag_291\n      jump\t// in\n    tag_304:\n        /* \"#utility.yul\":373:412   */\n      swap5\n        /* \"#utility.yul\":459:461   */\n      0x20\n        /* \"#utility.yul\":444:462   */\n      swap4\n      swap1\n      swap4\n      add\n        /* \"#utility.yul\":431:463   */\n      calldataload\n      swap4\n      pop\n      pop\n      pop\n        /* \"#utility.yul\":215:469   */\n      jump\t// out\n        /* \"#utility.yul\":656:787   */\n    tag_292:\n      not(sub(shl(0xe0, 0x01), 0x01))\n        /* \"#utility.yul\":730:762   */\n      dup2\n      and\n        /* \"#utility.yul\":720:763   */\n      dup2\n      eq\n        /* \"#utility.yul\":710:781   */\n      tag_169\n      jumpi\n        /* \"#utility.yul\":777:778   */\n      0x00\n        /* \"#utility.yul\":774:775   */\n      dup1\n        /* \"#utility.yul\":767:779   */\n      revert\n        /* \"#utility.yul\":792:1037   */\n    tag_30:\n        /* \"#utility.yul\":850:856   */\n      0x00\n        /* \"#utility.yul\":903:905   */\n      0x20\n        /* \"#utility.yul\":891:900   */\n      dup3\n        /* \"#utility.yul\":882:889   */\n      dup5\n        /* \"#utility.yul\":878:901   */\n      sub\n        /* \"#utility.yul\":874:906   */\n      slt\n        /* \"#utility.yul\":871:923   */\n      iszero\n      tag_309\n      jumpi\n        /* \"#utility.yul\":919:920   */\n      0x00\n        /* \"#utility.yul\":916:917   */\n      dup1\n        /* \"#utility.yul\":909:921   */\n      revert\n        /* \"#utility.yul\":871:923   */\n    tag_309:\n        /* \"#utility.yul\":958:967   */\n      dup2\n        /* \"#utility.yul\":945:968   */\n      calldataload\n        /* \"#utility.yul\":977:1007   */\n      tag_310\n        /* \"#utility.yul\":1001:1006   */\n      dup2\n        /* \"#utility.yul\":977:1007   */\n      tag_292\n      jump\t// in\n    tag_310:\n        /* \"#utility.yul\":1026:1031   */\n      swap4\n        /* \"#utility.yul\":792:1037   */\n      swap3\n      pop\n      pop\n      pop\n      jump\t// out\n        /* \"#utility.yul\":1234:1414   */\n    tag_36:\n        /* \"#utility.yul\":1293:1299   */\n      0x00\n        /* \"#utility.yul\":1346:1348   */\n      0x20\n        /* \"#utility.yul\":1334:1343   */\n      dup3\n        /* \"#utility.yul\":1325:1332   */\n      dup5\n        /* \"#utility.yul\":1321:1344   */\n      sub\n        /* \"#utility.yul\":1317:1349   */\n      slt\n        /* \"#utility.yul\":1314:1366   */\n      iszero\n      tag_313\n      jumpi\n        /* \"#utility.yul\":1362:1363   */\n      0x00\n        /* \"#utility.yul\":1359:1360   */\n      dup1\n        /* \"#utility.yul\":1352:1364   */\n      revert\n        /* \"#utility.yul\":1314:1366   */\n    tag_313:\n      pop\n        /* \"#utility.yul\":1385:1408   */\n      calldataload\n      swap2\n        /* \"#utility.yul\":1234:1414   */\n      swap1\n      pop\n      jump\t// out\n        /* \"#utility.yul\":1419:1708   */\n    tag_293:\n        /* \"#utility.yul\":1461:1464   */\n      0x00\n        /* \"#utility.yul\":1499:1504   */\n      dup2\n        /* \"#utility.yul\":1493:1505   */\n      mload\n        /* \"#utility.yul\":1526:1532   */\n      dup1\n        /* \"#utility.yul\":1521:1524   */\n      dup5\n        /* \"#utility.yul\":1514:1533   */\n      mstore\n        /* \"#utility.yul\":1582:1588   */\n      dup1\n        /* \"#utility.yul\":1575:1579   */\n      0x20\n        /* \"#utility.yul\":1568:1573   */\n      dup5\n        /* \"#utility.yul\":1564:1580   */\n      add\n        /* \"#utility.yul\":1557:1561   */\n      0x20\n        /* \"#utility.yul\":1552:1555   */\n      dup7\n        /* \"#utility.yul\":1548:1562   */\n      add\n        /* \"#utility.yul\":1542:1589   */\n      mcopy\n        /* \"#utility.yul\":1634:1635   */\n      0x00\n        /* \"#utility.yul\":1627:1631   */\n      0x20\n        /* \"#utility.yul\":1618:1624   */\n      dup3\n        /* \"#utility.yul\":1613:1616   */\n      dup7\n        /* \"#utility.yul\":1609:1625   */\n      add\n        /* \"#utility.yul\":1605:1632   */\n      add\n        /* \"#utility.yul\":1598:1636   */\n      mstore\n        /* \"#utility.yul\":1697:1701   */\n      0x20\n        /* \"#utility.yul\":1690:1692   */\n      0x1f\n        /* \"#utility.yul\":1686:1693   */\n      not\n        /* \"#utility.yul\":1681:1683   */\n      0x1f\n        /* \"#utility.yul\":1673:1679   */\n      dup4\n        /* \"#utility.yul\":1669:1684   */\n      add\n        /* \"#utility.yul\":1665:1694   */\n      and\n        /* \"#utility.yul\":1660:1663   */\n      dup6\n        /* \"#utility.yul\":1656:1695   */\n      add\n        /* \"#utility.yul\":1652:1702   */\n      add\n        /* \"#utility.yul\":1645:1702   */\n      swap2\n      pop\n      pop\n        /* \"#utility.yul\":1419:1708   */\n      swap3\n      swap2\n      pop\n      pop\n      jump\t// out\n        /* \"#utility.yul\":1713:1933   */\n    tag_39:\n        /* \"#utility.yul\":1862:1864   */\n      0x20\n        /* \"#utility.yul\":1851:1860   */\n      dup2\n        /* \"#utility.yul\":1844:1865   */\n      mstore\n        /* \"#utility.yul\":1825:1829   */\n      0x00\n        /* \"#utility.yul\":1882:1927   */\n      tag_310\n        /* \"#utility.yul\":1923:1925   */\n      0x20\n        /* \"#utility.yul\":1912:1921   */\n      dup4\n        /* \"#utility.yul\":1908:1926   */\n      add\n        /* \"#utility.yul\":1900:1906   */\n      dup5\n        /* \"#utility.yul\":1882:1927   */\n      tag_293\n      jump\t// in\n        /* \"#utility.yul\":1938:2260   */\n    tag_42:\n        /* \"#utility.yul\":2015:2021   */\n      0x00\n        /* \"#utility.yul\":2023:2029   */\n      dup1\n        /* \"#utility.yul\":2031:2037   */\n      0x00\n        /* \"#utility.yul\":2084:2086   */\n      0x60\n        /* \"#utility.yul\":2072:2081   */\n      dup5\n        /* \"#utility.yul\":2063:2070   */\n      dup7\n        /* \"#utility.yul\":2059:2082   */\n      sub\n        /* \"#utility.yul\":2055:2087   */\n      slt\n        /* \"#utility.yul\":2052:2104   */\n      iszero\n      tag_318\n      jumpi\n        /* \"#utility.yul\":2100:2101   */\n      0x00\n        /* \"#utility.yul\":2097:2098   */\n      dup1\n        /* \"#utility.yul\":2090:2102   */\n      revert\n        /* \"#utility.yul\":2052:2104   */\n    tag_318:\n        /* \"#utility.yul\":2123:2152   */\n      tag_319\n        /* \"#utility.yul\":2142:2151   */\n      dup5\n        /* \"#utility.yul\":2123:2152   */\n      tag_291\n      jump\t// in\n    tag_319:\n        /* \"#utility.yul\":2113:2152   */\n      swap6\n        /* \"#utility.yul\":2199:2201   */\n      0x20\n        /* \"#utility.yul\":2184:2202   */\n      dup6\n      add\n        /* \"#utility.yul\":2171:2203   */\n      calldataload\n      swap6\n      pop\n        /* \"#utility.yul\":2250:2252   */\n      0x40\n        /* \"#utility.yul\":2235:2253   */\n      swap1\n      swap5\n      add\n        /* \"#utility.yul\":2222:2254   */\n      calldataload\n      swap4\n        /* \"#utility.yul\":1938:2260   */\n      swap3\n      pop\n      pop\n      pop\n      jump\t// out\n        /* \"#utility.yul\":2265:2392   */\n    tag_130:\n        /* \"#utility.yul\":2326:2336   */\n      0x4e487b71\n        /* \"#utility.yul\":2321:2324   */\n      0xe0\n        /* \"#utility.yul\":2317:2337   */\n      shl\n        /* \"#utility.yul\":2314:2315   */\n      0x00\n        /* \"#utility.yul\":2307:2338   */\n      mstore\n        /* \"#utility.yul\":2357:2361   */\n      0x41\n        /* \"#utility.yul\":2354:2355   */\n      0x04\n        /* \"#utility.yul\":2347:2362   */\n      mstore\n        /* \"#utility.yul\":2381:2385   */\n      0x24\n        /* \"#utility.yul\":2378:2379   */\n      0x00\n        /* \"#utility.yul\":2371:2386   */\n      revert\n        /* \"#utility.yul\":2397:2672   */\n    tag_294:\n        /* \"#utility.yul\":2468:2470   */\n      0x40\n        /* \"#utility.yul\":2462:2471   */\n      mload\n        /* \"#utility.yul\":2533:2535   */\n      0x1f\n        /* \"#utility.yul\":2514:2527   */\n      dup3\n      add\n      not(0x1f)\n        /* \"#utility.yul\":2510:2537   */\n      and\n        /* \"#utility.yul\":2498:2538   */\n      dup2\n      add\n        /* \"#utility.yul\":2568:2586   */\n      0xffffffffffffffff\n        /* \"#utility.yul\":2553:2587   */\n      dup2\n      gt\n        /* \"#utility.yul\":2589:2611   */\n      dup3\n      dup3\n      lt\n        /* \"#utility.yul\":2550:2612   */\n      or\n        /* \"#utility.yul\":2547:2635   */\n      iszero\n      tag_323\n      jumpi\n        /* \"#utility.yul\":2615:2633   */\n      tag_323\n      tag_130\n      jump\t// in\n    tag_323:\n        /* \"#utility.yul\":2651:2653   */\n      0x40\n        /* \"#utility.yul\":2644:2666   */\n      mstore\n        /* \"#utility.yul\":2397:2672   */\n      swap2\n      swap1\n      pop\n      jump\t// out\n        /* \"#utility.yul\":2677:2860   */\n    tag_295:\n        /* \"#utility.yul\":2737:2741   */\n      0x00\n        /* \"#utility.yul\":2770:2788   */\n      0xffffffffffffffff\n        /* \"#utility.yul\":2762:2768   */\n      dup3\n        /* \"#utility.yul\":2759:2789   */\n      gt\n        /* \"#utility.yul\":2756:2812   */\n      iszero\n      tag_326\n      jumpi\n        /* \"#utility.yul\":2792:2810   */\n      tag_326\n      tag_130\n      jump\t// in\n    tag_326:\n      pop\n        /* \"#utility.yul\":2837:2838   */\n      0x05\n        /* \"#utility.yul\":2833:2847   */\n      shl\n        /* \"#utility.yul\":2849:2853   */\n      0x20\n        /* \"#utility.yul\":2829:2854   */\n      add\n      swap1\n        /* \"#utility.yul\":2677:2860   */\n      jump\t// out\n        /* \"#utility.yul\":2865:3533   */\n    tag_296:\n        /* \"#utility.yul\":2919:2924   */\n      0x00\n        /* \"#utility.yul\":2972:2975   */\n      dup3\n        /* \"#utility.yul\":2965:2969   */\n      0x1f\n        /* \"#utility.yul\":2957:2963   */\n      dup4\n        /* \"#utility.yul\":2953:2970   */\n      add\n        /* \"#utility.yul\":2949:2976   */\n      slt\n        /* \"#utility.yul\":2939:2994   */\n      tag_328\n      jumpi\n        /* \"#utility.yul\":2990:2991   */\n      0x00\n        /* \"#utility.yul\":2987:2988   */\n      dup1\n        /* \"#utility.yul\":2980:2992   */\n      revert\n        /* \"#utility.yul\":2939:2994   */\n    tag_328:\n        /* \"#utility.yul\":3026:3032   */\n      dup2\n        /* \"#utility.yul\":3013:3033   */\n      calldataload\n        /* \"#utility.yul\":3052:3056   */\n      0x20\n        /* \"#utility.yul\":3076:3136   */\n      tag_329\n        /* \"#utility.yul\":3092:3135   */\n      tag_330\n        /* \"#utility.yul\":3132:3134   */\n      dup4\n        /* \"#utility.yul\":3092:3135   */\n      tag_295\n      jump\t// in\n    tag_330:\n        /* \"#utility.yul\":3076:3136   */\n      tag_294\n      jump\t// in\n    tag_329:\n        /* \"#utility.yul\":3158:3161   */\n      dup1\n        /* \"#utility.yul\":3182:3184   */\n      dup4\n        /* \"#utility.yul\":3177:3180   */\n      dup3\n        /* \"#utility.yul\":3170:3185   */\n      mstore\n        /* \"#utility.yul\":3210:3214   */\n      0x20\n        /* \"#utility.yul\":3205:3208   */\n      dup3\n        /* \"#utility.yul\":3201:3215   */\n      add\n        /* \"#utility.yul\":3194:3215   */\n      swap2\n      pop\n        /* \"#utility.yul\":3267:3271   */\n      0x20\n        /* \"#utility.yul\":3261:3263   */\n      dup5\n        /* \"#utility.yul\":3258:3259   */\n      0x05\n        /* \"#utility.yul\":3254:3264   */\n      shl\n        /* \"#utility.yul\":3246:3252   */\n      dup8\n        /* \"#utility.yul\":3242:3265   */\n      add\n        /* \"#utility.yul\":3238:3272   */\n      add\n        /* \"#utility.yul\":3224:3272   */\n      swap4\n      pop\n        /* \"#utility.yul\":3295:3298   */\n      dup7\n        /* \"#utility.yul\":3287:3293   */\n      dup5\n        /* \"#utility.yul\":3284:3299   */\n      gt\n        /* \"#utility.yul\":3281:3316   */\n      iszero\n      tag_331\n      jumpi\n        /* \"#utility.yul\":3312:3313   */\n      0x00\n        /* \"#utility.yul\":3309:3310   */\n      dup1\n        /* \"#utility.yul\":3302:3314   */\n      revert\n        /* \"#utility.yul\":3281:3316   */\n    tag_331:\n        /* \"#utility.yul\":3348:3352   */\n      0x20\n        /* \"#utility.yul\":3340:3346   */\n      dup7\n        /* \"#utility.yul\":3336:3353   */\n      add\n        /* \"#utility.yul\":3362:3504   */\n    tag_332:\n        /* \"#utility.yul\":3378:3384   */\n      dup5\n        /* \"#utility.yul\":3373:3376   */\n      dup2\n        /* \"#utility.yul\":3370:3385   */\n      lt\n        /* \"#utility.yul\":3362:3504   */\n      iszero\n      tag_334\n      jumpi\n        /* \"#utility.yul\":3444:3461   */\n      dup1\n      calldataload\n        /* \"#utility.yul\":3432:3462   */\n      dup4\n      mstore\n        /* \"#utility.yul\":3482:3494   */\n      swap2\n      dup4\n      add\n      swap2\n        /* \"#utility.yul\":3395:3407   */\n      dup4\n      add\n        /* \"#utility.yul\":3362:3504   */\n      jump(tag_332)\n    tag_334:\n      pop\n        /* \"#utility.yul\":3522:3527   */\n      swap7\n        /* \"#utility.yul\":2865:3533   */\n      swap6\n      pop\n      pop\n      pop\n      pop\n      pop\n      pop\n      jump\t// out\n        /* \"#utility.yul\":3538:4068   */\n    tag_297:\n        /* \"#utility.yul\":3580:3585   */\n      0x00\n        /* \"#utility.yul\":3633:3636   */\n      dup3\n        /* \"#utility.yul\":3626:3630   */\n      0x1f\n        /* \"#utility.yul\":3618:3624   */\n      dup4\n        /* \"#utility.yul\":3614:3631   */\n      add\n        /* \"#utility.yul\":3610:3637   */\n      slt\n        /* \"#utility.yul\":3600:3655   */\n      tag_336\n      jumpi\n        /* \"#utility.yul\":3651:3652   */\n      0x00\n        /* \"#utility.yul\":3648:3649   */\n      dup1\n        /* \"#utility.yul\":3641:3653   */\n      revert\n        /* \"#utility.yul\":3600:3655   */\n    tag_336:\n        /* \"#utility.yul\":3687:3693   */\n      dup2\n        /* \"#utility.yul\":3674:3694   */\n      calldataload\n        /* \"#utility.yul\":3713:3731   */\n      0xffffffffffffffff\n        /* \"#utility.yul\":3709:3711   */\n      dup2\n        /* \"#utility.yul\":3706:3732   */\n      gt\n        /* \"#utility.yul\":3703:3755   */\n      iszero\n      tag_338\n      jumpi\n        /* \"#utility.yul\":3735:3753   */\n      tag_338\n      tag_130\n      jump\t// in\n    tag_338:\n        /* \"#utility.yul\":3779:3834   */\n      tag_339\n        /* \"#utility.yul\":3822:3824   */\n      0x1f\n        /* \"#utility.yul\":3803:3816   */\n      dup3\n      add\n      not(0x1f)\n        /* \"#utility.yul\":3799:3826   */\n      and\n        /* \"#utility.yul\":3828:3832   */\n      0x20\n        /* \"#utility.yul\":3795:3833   */\n      add\n        /* \"#utility.yul\":3779:3834   */\n      tag_294\n      jump\t// in\n    tag_339:\n        /* \"#utility.yul\":3859:3861   */\n      dup2\n        /* \"#utility.yul\":3850:3857   */\n      dup2\n        /* \"#utility.yul\":3843:3862   */\n      mstore\n        /* \"#utility.yul\":3905:3908   */\n      dup5\n        /* \"#utility.yul\":3898:3902   */\n      0x20\n        /* \"#utility.yul\":3893:3895   */\n      dup4\n        /* \"#utility.yul\":3885:3891   */\n      dup7\n        /* \"#utility.yul\":3881:3896   */\n      add\n        /* \"#utility.yul\":3877:3903   */\n      add\n        /* \"#utility.yul\":3874:3909   */\n      gt\n        /* \"#utility.yul\":3871:3926   */\n      iszero\n      tag_340\n      jumpi\n        /* \"#utility.yul\":3922:3923   */\n      0x00\n        /* \"#utility.yul\":3919:3920   */\n      dup1\n        /* \"#utility.yul\":3912:3924   */\n      revert\n        /* \"#utility.yul\":3871:3926   */\n    tag_340:\n        /* \"#utility.yul\":3987:3989   */\n      dup2\n        /* \"#utility.yul\":3980:3984   */\n      0x20\n        /* \"#utility.yul\":3972:3978   */\n      dup6\n        /* \"#utility.yul\":3968:3985   */\n      add\n        /* \"#utility.yul\":3961:3965   */\n      0x20\n        /* \"#utility.yul\":3952:3959   */\n      dup4\n        /* \"#utility.yul\":3948:3966   */\n      add\n        /* \"#utility.yul\":3935:3990   */\n      calldatacopy\n        /* \"#utility.yul\":4035:4036   */\n      0x00\n        /* \"#utility.yul\":4010:4026   */\n      swap2\n      dup2\n      add\n        /* \"#utility.yul\":4028:4032   */\n      0x20\n        /* \"#utility.yul\":4006:4033   */\n      add\n        /* \"#utility.yul\":3999:4037   */\n      swap2\n      swap1\n      swap2\n      mstore\n        /* \"#utility.yul\":4014:4021   */\n      swap4\n        /* \"#utility.yul\":3538:4068   */\n      swap3\n      pop\n      pop\n      pop\n      jump\t// out\n        /* \"#utility.yul\":4073:5016   */\n    tag_49:\n        /* \"#utility.yul\":4227:4233   */\n      0x00\n        /* \"#utility.yul\":4235:4241   */\n      dup1\n        /* \"#utility.yul\":4243:4249   */\n      0x00\n        /* \"#utility.yul\":4251:4257   */\n      dup1\n        /* \"#utility.yul\":4259:4265   */\n      0x00\n        /* \"#utility.yul\":4312:4315   */\n      0xa0\n        /* \"#utility.yul\":4300:4309   */\n      dup7\n        /* \"#utility.yul\":4291:4298   */\n      dup9\n        /* \"#utility.yul\":4287:4310   */\n      sub\n        /* \"#utility.yul\":4283:4316   */\n      slt\n        /* \"#utility.yul\":4280:4333   */\n      iszero\n      tag_342\n      jumpi\n        /* \"#utility.yul\":4329:4330   */\n      0x00\n        /* \"#utility.yul\":4326:4327   */\n      dup1\n        /* \"#utility.yul\":4319:4331   */\n      revert\n        /* \"#utility.yul\":4280:4333   */\n    tag_342:\n        /* \"#utility.yul\":4352:4381   */\n      tag_343\n        /* \"#utility.yul\":4371:4380   */\n      dup7\n        /* \"#utility.yul\":4352:4381   */\n      tag_291\n      jump\t// in\n    tag_343:\n        /* \"#utility.yul\":4342:4381   */\n      swap5\n      pop\n        /* \"#utility.yul\":4400:4438   */\n      tag_344\n        /* \"#utility.yul\":4434:4436   */\n      0x20\n        /* \"#utility.yul\":4423:4432   */\n      dup8\n        /* \"#utility.yul\":4419:4437   */\n      add\n        /* \"#utility.yul\":4400:4438   */\n      tag_291\n      jump\t// in\n    tag_344:\n        /* \"#utility.yul\":4390:4438   */\n      swap4\n      pop\n        /* \"#utility.yul\":4489:4491   */\n      0x40\n        /* \"#utility.yul\":4478:4487   */\n      dup7\n        /* \"#utility.yul\":4474:4492   */\n      add\n        /* \"#utility.yul\":4461:4493   */\n      calldataload\n        /* \"#utility.yul\":4512:4530   */\n      0xffffffffffffffff\n        /* \"#utility.yul\":4553:4555   */\n      dup1\n        /* \"#utility.yul\":4545:4551   */\n      dup3\n        /* \"#utility.yul\":4542:4556   */\n      gt\n        /* \"#utility.yul\":4539:4573   */\n      iszero\n      tag_345\n      jumpi\n        /* \"#utility.yul\":4569:4570   */\n      0x00\n        /* \"#utility.yul\":4566:4567   */\n      dup1\n        /* \"#utility.yul\":4559:4571   */\n      revert\n        /* \"#utility.yul\":4539:4573   */\n    tag_345:\n        /* \"#utility.yul\":4592:4653   */\n      tag_346\n        /* \"#utility.yul\":4645:4652   */\n      dup10\n        /* \"#utility.yul\":4636:4642   */\n      dup4\n        /* \"#utility.yul\":4625:4634   */\n      dup11\n        /* \"#utility.yul\":4621:4643   */\n      add\n        /* \"#utility.yul\":4592:4653   */\n      tag_296\n      jump\t// in\n    tag_346:\n        /* \"#utility.yul\":4582:4653   */\n      swap5\n      pop\n        /* \"#utility.yul\":4706:4708   */\n      0x60\n        /* \"#utility.yul\":4695:4704   */\n      dup9\n        /* \"#utility.yul\":4691:4709   */\n      add\n        /* \"#utility.yul\":4678:4710   */\n      calldataload\n        /* \"#utility.yul\":4662:4710   */\n      swap2\n      pop\n        /* \"#utility.yul\":4735:4737   */\n      dup1\n        /* \"#utility.yul\":4725:4733   */\n      dup3\n        /* \"#utility.yul\":4722:4738   */\n      gt\n        /* \"#utility.yul\":4719:4755   */\n      iszero\n      tag_347\n      jumpi\n        /* \"#utility.yul\":4751:4752   */\n      0x00\n        /* \"#utility.yul\":4748:4749   */\n      dup1\n        /* \"#utility.yul\":4741:4753   */\n      revert\n        /* \"#utility.yul\":4719:4755   */\n    tag_347:\n        /* \"#utility.yul\":4774:4837   */\n      tag_348\n        /* \"#utility.yul\":4829:4836   */\n      dup10\n        /* \"#utility.yul\":4818:4826   */\n      dup4\n        /* \"#utility.yul\":4807:4816   */\n      dup11\n        /* \"#utility.yul\":4803:4827   */\n      add\n        /* \"#utility.yul\":4774:4837   */\n      tag_296\n      jump\t// in\n    tag_348:\n        /* \"#utility.yul\":4764:4837   */\n      swap4\n      pop\n        /* \"#utility.yul\":4890:4893   */\n      0x80\n        /* \"#utility.yul\":4879:4888   */\n      dup9\n        /* \"#utility.yul\":4875:4894   */\n      add\n        /* \"#utility.yul\":4862:4895   */\n      calldataload\n        /* \"#utility.yul\":4846:4895   */\n      swap2\n      pop\n        /* \"#utility.yul\":4920:4922   */\n      dup1\n        /* \"#utility.yul\":4910:4918   */\n      dup3\n        /* \"#utility.yul\":4907:4923   */\n      gt\n        /* \"#utility.yul\":4904:4940   */\n      iszero\n      tag_349\n      jumpi\n        /* \"#utility.yul\":4936:4937   */\n      0x00\n        /* \"#utility.yul\":4933:4934   */\n      dup1\n        /* \"#utility.yul\":4926:4938   */\n      revert\n        /* \"#utility.yul\":4904:4940   */\n    tag_349:\n      pop\n        /* \"#utility.yul\":4959:5010   */\n      tag_350\n        /* \"#utility.yul\":5002:5009   */\n      dup9\n        /* \"#utility.yul\":4991:4999   */\n      dup3\n        /* \"#utility.yul\":4980:4989   */\n      dup10\n        /* \"#utility.yul\":4976:5000   */\n      add\n        /* \"#utility.yul\":4959:5010   */\n      tag_297\n      jump\t// in\n    tag_350:\n        /* \"#utility.yul\":4949:5010   */\n      swap2\n      pop\n      pop\n        /* \"#utility.yul\":4073:5016   */\n      swap3\n      swap6\n      pop\n      swap3\n      swap6\n      swap1\n      swap4\n      pop\n      jump\t// out\n        /* \"#utility.yul\":5021:6167   */\n    tag_53:\n        /* \"#utility.yul\":5139:5145   */\n      0x00\n        /* \"#utility.yul\":5147:5153   */\n      dup1\n        /* \"#utility.yul\":5200:5202   */\n      0x40\n        /* \"#utility.yul\":5188:5197   */\n      dup4\n        /* \"#utility.yul\":5179:5186   */\n      dup6\n        /* \"#utility.yul\":5175:5198   */\n      sub\n        /* \"#utility.yul\":5171:5203   */\n      slt\n        /* \"#utility.yul\":5168:5220   */\n      iszero\n      tag_352\n      jumpi\n        /* \"#utility.yul\":5216:5217   */\n      0x00\n        /* \"#utility.yul\":5213:5214   */\n      dup1\n        /* \"#utility.yul\":5206:5218   */\n      revert\n        /* \"#utility.yul\":5168:5220   */\n    tag_352:\n        /* \"#utility.yul\":5256:5265   */\n      dup3\n        /* \"#utility.yul\":5243:5266   */\n      calldataload\n        /* \"#utility.yul\":5285:5303   */\n      0xffffffffffffffff\n        /* \"#utility.yul\":5326:5328   */\n      dup1\n        /* \"#utility.yul\":5318:5324   */\n      dup3\n        /* \"#utility.yul\":5315:5329   */\n      gt\n        /* \"#utility.yul\":5312:5346   */\n      iszero\n      tag_353\n      jumpi\n        /* \"#utility.yul\":5342:5343   */\n      0x00\n        /* \"#utility.yul\":5339:5340   */\n      dup1\n        /* \"#utility.yul\":5332:5344   */\n      revert\n        /* \"#utility.yul\":5312:5346   */\n    tag_353:\n        /* \"#utility.yul\":5380:5386   */\n      dup2\n        /* \"#utility.yul\":5369:5378   */\n      dup6\n        /* \"#utility.yul\":5365:5387   */\n      add\n        /* \"#utility.yul\":5355:5387   */\n      swap2\n      pop\n        /* \"#utility.yul\":5425:5432   */\n      dup6\n        /* \"#utility.yul\":5418:5422   */\n      0x1f\n        /* \"#utility.yul\":5414:5416   */\n      dup4\n        /* \"#utility.yul\":5410:5423   */\n      add\n        /* \"#utility.yul\":5406:5433   */\n      slt\n        /* \"#utility.yul\":5396:5451   */\n      tag_354\n      jumpi\n        /* \"#utility.yul\":5447:5448   */\n      0x00\n        /* \"#utility.yul\":5444:5445   */\n      dup1\n        /* \"#utility.yul\":5437:5449   */\n      revert\n        /* \"#utility.yul\":5396:5451   */\n    tag_354:\n        /* \"#utility.yul\":5483:5485   */\n      dup2\n        /* \"#utility.yul\":5470:5486   */\n      calldataload\n        /* \"#utility.yul\":5505:5509   */\n      0x20\n        /* \"#utility.yul\":5529:5589   */\n      tag_355\n        /* \"#utility.yul\":5545:5588   */\n      tag_330\n        /* \"#utility.yul\":5585:5587   */\n      dup4\n        /* \"#utility.yul\":5545:5588   */\n      tag_295\n      jump\t// in\n        /* \"#utility.yul\":5529:5589   */\n    tag_355:\n        /* \"#utility.yul\":5623:5638   */\n      dup3\n      dup2\n      mstore\n        /* \"#utility.yul\":5705:5706   */\n      0x05\n        /* \"#utility.yul\":5701:5711   */\n      swap3\n      swap1\n      swap3\n      shl\n        /* \"#utility.yul\":5693:5712   */\n      dup5\n      add\n        /* \"#utility.yul\":5689:5717   */\n      dup2\n      add\n      swap2\n        /* \"#utility.yul\":5654:5666   */\n      dup2\n      dup2\n      add\n      swap1\n        /* \"#utility.yul\":5729:5748   */\n      dup10\n      dup5\n      gt\n        /* \"#utility.yul\":5726:5765   */\n      iszero\n      tag_357\n      jumpi\n        /* \"#utility.yul\":5761:5762   */\n      0x00\n        /* \"#utility.yul\":5758:5759   */\n      dup1\n        /* \"#utility.yul\":5751:5763   */\n      revert\n        /* \"#utility.yul\":5726:5765   */\n    tag_357:\n        /* \"#utility.yul\":5785:5796   */\n      swap5\n      dup3\n      add\n      swap5\n        /* \"#utility.yul\":5805:5953   */\n    tag_358:\n        /* \"#utility.yul\":5821:5827   */\n      dup4\n        /* \"#utility.yul\":5816:5819   */\n      dup7\n        /* \"#utility.yul\":5813:5828   */\n      lt\n        /* \"#utility.yul\":5805:5953   */\n      iszero\n      tag_360\n      jumpi\n        /* \"#utility.yul\":5887:5910   */\n      tag_361\n        /* \"#utility.yul\":5906:5909   */\n      dup7\n        /* \"#utility.yul\":5887:5910   */\n      tag_291\n      jump\t// in\n    tag_361:\n        /* \"#utility.yul\":5875:5911   */\n      dup3\n      mstore\n        /* \"#utility.yul\":5838:5850   */\n      swap5\n      dup3\n      add\n      swap5\n        /* \"#utility.yul\":5931:5943   */\n      swap1\n      dup3\n      add\n      swap1\n        /* \"#utility.yul\":5805:5953   */\n      jump(tag_358)\n    tag_360:\n        /* \"#utility.yul\":5972:5977   */\n      swap7\n      pop\n      pop\n        /* \"#utility.yul\":6015:6033   */\n      dup7\n      add\n        /* \"#utility.yul\":6002:6034   */\n      calldataload\n      swap3\n      pop\n      pop\n        /* \"#utility.yul\":6046:6062   */\n      dup1\n      dup3\n      gt\n        /* \"#utility.yul\":6043:6079   */\n      iszero\n      tag_362\n      jumpi\n        /* \"#utility.yul\":6075:6076   */\n      0x00\n        /* \"#utility.yul\":6072:6073   */\n      dup1\n        /* \"#utility.yul\":6065:6077   */\n      revert\n        /* \"#utility.yul\":6043:6079   */\n    tag_362:\n      pop\n        /* \"#utility.yul\":6098:6161   */\n      tag_363\n        /* \"#utility.yul\":6153:6160   */\n      dup6\n        /* \"#utility.yul\":6142:6150   */\n      dup3\n        /* \"#utility.yul\":6131:6140   */\n      dup7\n        /* \"#utility.yul\":6127:6151   */\n      add\n        /* \"#utility.yul\":6098:6161   */\n      tag_296\n      jump\t// in\n    tag_363:\n        /* \"#utility.yul\":6088:6161   */\n      swap2\n      pop\n      pop\n        /* \"#utility.yul\":5021:6167   */\n      swap3\n      pop\n      swap3\n      swap1\n      pop\n      jump\t// out\n        /* \"#utility.yul\":6172:6611   */\n    tag_298:\n        /* \"#utility.yul\":6225:6228   */\n      0x00\n        /* \"#utility.yul\":6263:6268   */\n      dup2\n        /* \"#utility.yul\":6257:6269   */\n      mload\n        /* \"#utility.yul\":6290:6296   */\n      dup1\n        /* \"#utility.yul\":6285:6288   */\n      dup5\n        /* \"#utility.yul\":6278:6297   */\n      mstore\n        /* \"#utility.yul\":6316:6320   */\n      0x20\n        /* \"#utility.yul\":6345:6349   */\n      dup1\n        /* \"#utility.yul\":6340:6343   */\n      dup6\n        /* \"#utility.yul\":6336:6350   */\n      add\n        /* \"#utility.yul\":6329:6350   */\n      swap5\n      pop\n        /* \"#utility.yul\":6384:6388   */\n      0x20\n        /* \"#utility.yul\":6377:6382   */\n      dup5\n        /* \"#utility.yul\":6373:6389   */\n      add\n        /* \"#utility.yul\":6407:6408   */\n      0x00\n        /* \"#utility.yul\":6417:6586   */\n    tag_365:\n        /* \"#utility.yul\":6431:6437   */\n      dup4\n        /* \"#utility.yul\":6428:6429   */\n      dup2\n        /* \"#utility.yul\":6425:6438   */\n      lt\n        /* \"#utility.yul\":6417:6586   */\n      iszero\n      tag_367\n      jumpi\n        /* \"#utility.yul\":6492:6505   */\n      dup2\n      mload\n        /* \"#utility.yul\":6480:6506   */\n      dup8\n      mstore\n        /* \"#utility.yul\":6526:6538   */\n      swap6\n      dup3\n      add\n      swap6\n        /* \"#utility.yul\":6561:6576   */\n      swap1\n      dup3\n      add\n      swap1\n        /* \"#utility.yul\":6453:6454   */\n      0x01\n        /* \"#utility.yul\":6446:6455   */\n      add\n        /* \"#utility.yul\":6417:6586   */\n      jump(tag_365)\n    tag_367:\n      pop\n        /* \"#utility.yul\":6602:6605   */\n      swap5\n      swap6\n        /* \"#utility.yul\":6172:6611   */\n      swap5\n      pop\n      pop\n      pop\n      pop\n      pop\n      jump\t// out\n        /* \"#utility.yul\":6616:6877   */\n    tag_56:\n        /* \"#utility.yul\":6795:6797   */\n      0x20\n        /* \"#utility.yul\":6784:6793   */\n      dup2\n        /* \"#utility.yul\":6777:6798   */\n      mstore\n        /* \"#utility.yul\":6758:6762   */\n      0x00\n        /* \"#utility.yul\":6815:6871   */\n      tag_310\n        /* \"#utility.yul\":6867:6869   */\n      0x20\n        /* \"#utility.yul\":6856:6865   */\n      dup4\n        /* \"#utility.yul\":6852:6870   */\n      add\n        /* \"#utility.yul\":6844:6850   */\n      dup5\n        /* \"#utility.yul\":6815:6871   */\n      tag_298\n      jump\t// in\n        /* \"#utility.yul\":7113:7460   */\n    tag_65:\n        /* \"#utility.yul\":7178:7184   */\n      0x00\n        /* \"#utility.yul\":7186:7192   */\n      dup1\n        /* \"#utility.yul\":7239:7241   */\n      0x40\n        /* \"#utility.yul\":7227:7236   */\n      dup4\n        /* \"#utility.yul\":7218:7225   */\n      dup6\n        /* \"#utility.yul\":7214:7237   */\n      sub\n        /* \"#utility.yul\":7210:7242   */\n      slt\n        /* \"#utility.yul\":7207:7259   */\n      iszero\n      tag_372\n      jumpi\n        /* \"#utility.yul\":7255:7256   */\n      0x00\n        /* \"#utility.yul\":7252:7253   */\n      dup1\n        /* \"#utility.yul\":7245:7257   */\n      revert\n        /* \"#utility.yul\":7207:7259   */\n    tag_372:\n        /* \"#utility.yul\":7278:7307   */\n      tag_373\n        /* \"#utility.yul\":7297:7306   */\n      dup4\n        /* \"#utility.yul\":7278:7307   */\n      tag_291\n      jump\t// in\n    tag_373:\n        /* \"#utility.yul\":7268:7307   */\n      swap2\n      pop\n        /* \"#utility.yul\":7357:7359   */\n      0x20\n        /* \"#utility.yul\":7346:7355   */\n      dup4\n        /* \"#utility.yul\":7342:7360   */\n      add\n        /* \"#utility.yul\":7329:7361   */\n      calldataload\n        /* \"#utility.yul\":7404:7409   */\n      dup1\n        /* \"#utility.yul\":7397:7410   */\n      iszero\n        /* \"#utility.yul\":7390:7411   */\n      iszero\n        /* \"#utility.yul\":7383:7388   */\n      dup2\n        /* \"#utility.yul\":7380:7412   */\n      eq\n        /* \"#utility.yul\":7370:7430   */\n      tag_374\n      jumpi\n        /* \"#utility.yul\":7426:7427   */\n      0x00\n        /* \"#utility.yul\":7423:7424   */\n      dup1\n        /* \"#utility.yul\":7416:7428   */\n      revert\n        /* \"#utility.yul\":7370:7430   */\n    tag_374:\n        /* \"#utility.yul\":7449:7454   */\n      dup1\n        /* \"#utility.yul\":7439:7454   */\n      swap2\n      pop\n      pop\n        /* \"#utility.yul\":7113:7460   */\n      swap3\n      pop\n      swap3\n      swap1\n      pop\n      jump\t// out\n        /* \"#utility.yul\":7465:7713   */\n    tag_69:\n        /* \"#utility.yul\":7533:7539   */\n      0x00\n        /* \"#utility.yul\":7541:7547   */\n      dup1\n        /* \"#utility.yul\":7594:7596   */\n      0x40\n        /* \"#utility.yul\":7582:7591   */\n      dup4\n        /* \"#utility.yul\":7573:7580   */\n      dup6\n        /* \"#utility.yul\":7569:7592   */\n      sub\n        /* \"#utility.yul\":7565:7597   */\n      slt\n        /* \"#utility.yul\":7562:7614   */\n      iszero\n      tag_376\n      jumpi\n        /* \"#utility.yul\":7610:7611   */\n      0x00\n        /* \"#utility.yul\":7607:7608   */\n      dup1\n        /* \"#utility.yul\":7600:7612   */\n      revert\n        /* \"#utility.yul\":7562:7614   */\n    tag_376:\n      pop\n      pop\n        /* \"#utility.yul\":7633:7656   */\n      dup1\n      calldataload\n      swap3\n        /* \"#utility.yul\":7703:7705   */\n      0x20\n        /* \"#utility.yul\":7688:7706   */\n      swap1\n      swap2\n      add\n        /* \"#utility.yul\":7675:7707   */\n      calldataload\n      swap2\n      pop\n        /* \"#utility.yul\":7465:7713   */\n      jump\t// out\n        /* \"#utility.yul\":7718:7978   */\n    tag_79:\n        /* \"#utility.yul\":7786:7792   */\n      0x00\n        /* \"#utility.yul\":7794:7800   */\n      dup1\n        /* \"#utility.yul\":7847:7849   */\n      0x40\n        /* \"#utility.yul\":7835:7844   */\n      dup4\n        /* \"#utility.yul\":7826:7833   */\n      dup6\n        /* \"#utility.yul\":7822:7845   */\n      sub\n        /* \"#utility.yul\":7818:7850   */\n      slt\n        /* \"#utility.yul\":7815:7867   */\n      iszero\n      tag_378\n      jumpi\n        /* \"#utility.yul\":7863:7864   */\n      0x00\n        /* \"#utility.yul\":7860:7861   */\n      dup1\n        /* \"#utility.yul\":7853:7865   */\n      revert\n        /* \"#utility.yul\":7815:7867   */\n    tag_378:\n        /* \"#utility.yul\":7886:7915   */\n      tag_379\n        /* \"#utility.yul\":7905:7914   */\n      dup4\n        /* \"#utility.yul\":7886:7915   */\n      tag_291\n      jump\t// in\n    tag_379:\n        /* \"#utility.yul\":7876:7915   */\n      swap2\n      pop\n        /* \"#utility.yul\":7934:7972   */\n      tag_380\n        /* \"#utility.yul\":7968:7970   */\n      0x20\n        /* \"#utility.yul\":7957:7966   */\n      dup5\n        /* \"#utility.yul\":7953:7971   */\n      add\n        /* \"#utility.yul\":7934:7972   */\n      tag_291\n      jump\t// in\n    tag_380:\n        /* \"#utility.yul\":7924:7972   */\n      swap1\n      pop\n        /* \"#utility.yul\":7718:7978   */\n      swap3\n      pop\n      swap3\n      swap1\n      pop\n      jump\t// out\n        /* \"#utility.yul\":7983:8589   */\n    tag_84:\n        /* \"#utility.yul\":8087:8093   */\n      0x00\n        /* \"#utility.yul\":8095:8101   */\n      dup1\n        /* \"#utility.yul\":8103:8109   */\n      0x00\n        /* \"#utility.yul\":8111:8117   */\n      dup1\n        /* \"#utility.yul\":8119:8125   */\n      0x00\n        /* \"#utility.yul\":8172:8175   */\n      0xa0\n        /* \"#utility.yul\":8160:8169   */\n      dup7\n        /* \"#utility.yul\":8151:8158   */\n      dup9\n        /* \"#utility.yul\":8147:8170   */\n      sub\n        /* \"#utility.yul\":8143:8176   */\n      slt\n        /* \"#utility.yul\":8140:8193   */\n      iszero\n      tag_382\n      jumpi\n        /* \"#utility.yul\":8189:8190   */\n      0x00\n        /* \"#utility.yul\":8186:8187   */\n      dup1\n        /* \"#utility.yul\":8179:8191   */\n      revert\n        /* \"#utility.yul\":8140:8193   */\n    tag_382:\n        /* \"#utility.yul\":8212:8241   */\n      tag_383\n        /* \"#utility.yul\":8231:8240   */\n      dup7\n        /* \"#utility.yul\":8212:8241   */\n      tag_291\n      jump\t// in\n    tag_383:\n        /* \"#utility.yul\":8202:8241   */\n      swap5\n      pop\n        /* \"#utility.yul\":8260:8298   */\n      tag_384\n        /* \"#utility.yul\":8294:8296   */\n      0x20\n        /* \"#utility.yul\":8283:8292   */\n      dup8\n        /* \"#utility.yul\":8279:8297   */\n      add\n        /* \"#utility.yul\":8260:8298   */\n      tag_291\n      jump\t// in\n    tag_384:\n        /* \"#utility.yul\":8250:8298   */\n      swap4\n      pop\n        /* \"#utility.yul\":8345:8347   */\n      0x40\n        /* \"#utility.yul\":8334:8343   */\n      dup7\n        /* \"#utility.yul\":8330:8348   */\n      add\n        /* \"#utility.yul\":8317:8349   */\n      calldataload\n        /* \"#utility.yul\":8307:8349   */\n      swap3\n      pop\n        /* \"#utility.yul\":8396:8398   */\n      0x60\n        /* \"#utility.yul\":8385:8394   */\n      dup7\n        /* \"#utility.yul\":8381:8399   */\n      add\n        /* \"#utility.yul\":8368:8400   */\n      calldataload\n        /* \"#utility.yul\":8358:8400   */\n      swap2\n      pop\n        /* \"#utility.yul\":8451:8454   */\n      0x80\n        /* \"#utility.yul\":8440:8449   */\n      dup7\n        /* \"#utility.yul\":8436:8455   */\n      add\n        /* \"#utility.yul\":8423:8456   */\n      calldataload\n        /* \"#utility.yul\":8479:8497   */\n      0xffffffffffffffff\n        /* \"#utility.yul\":8471:8477   */\n      dup2\n        /* \"#utility.yul\":8468:8498   */\n      gt\n        /* \"#utility.yul\":8465:8515   */\n      iszero\n      tag_385\n      jumpi\n        /* \"#utility.yul\":8511:8512   */\n      0x00\n        /* \"#utility.yul\":8508:8509   */\n      dup1\n        /* \"#utility.yul\":8501:8513   */\n      revert\n        /* \"#utility.yul\":8465:8515   */\n    tag_385:\n        /* \"#utility.yul\":8534:8583   */\n      tag_350\n        /* \"#utility.yul\":8575:8582   */\n      dup9\n        /* \"#utility.yul\":8566:8572   */\n      dup3\n        /* \"#utility.yul\":8555:8564   */\n      dup10\n        /* \"#utility.yul\":8551:8573   */\n      add\n        /* \"#utility.yul\":8534:8583   */\n      tag_297\n      jump\t// in\n        /* \"#utility.yul\":8594:8780   */\n    tag_88:\n        /* \"#utility.yul\":8653:8659   */\n      0x00\n        /* \"#utility.yul\":8706:8708   */\n      0x20\n        /* \"#utility.yul\":8694:8703   */\n      dup3\n        /* \"#utility.yul\":8685:8692   */\n      dup5\n        /* \"#utility.yul\":8681:8704   */\n      sub\n        /* \"#utility.yul\":8677:8709   */\n      slt\n        /* \"#utility.yul\":8674:8726   */\n      iszero\n      tag_388\n      jumpi\n        /* \"#utility.yul\":8722:8723   */\n      0x00\n        /* \"#utility.yul\":8719:8720   */\n      dup1\n        /* \"#utility.yul\":8712:8724   */\n      revert\n        /* \"#utility.yul\":8674:8726   */\n    tag_388:\n        /* \"#utility.yul\":8745:8774   */\n      tag_310\n        /* \"#utility.yul\":8764:8773   */\n      dup3\n        /* \"#utility.yul\":8745:8774   */\n      tag_291\n      jump\t// in\n        /* \"#utility.yul\":8785:9165   */\n    tag_98:\n        /* \"#utility.yul\":8864:8865   */\n      0x01\n        /* \"#utility.yul\":8860:8872   */\n      dup2\n      dup2\n      shr\n      swap1\n        /* \"#utility.yul\":8907:8919   */\n      dup3\n      and\n      dup1\n        /* \"#utility.yul\":8928:8989   */\n      tag_391\n      jumpi\n        /* \"#utility.yul\":8982:8986   */\n      0x7f\n        /* \"#utility.yul\":8974:8980   */\n      dup3\n        /* \"#utility.yul\":8970:8987   */\n      and\n        /* \"#utility.yul\":8960:8987   */\n      swap2\n      pop\n        /* \"#utility.yul\":8928:8989   */\n    tag_391:\n        /* \"#utility.yul\":9035:9037   */\n      0x20\n        /* \"#utility.yul\":9027:9033   */\n      dup3\n        /* \"#utility.yul\":9024:9038   */\n      lt\n        /* \"#utility.yul\":9004:9022   */\n      dup2\n        /* \"#utility.yul\":9001:9039   */\n      sub\n        /* \"#utility.yul\":8998:9159   */\n      tag_392\n      jumpi\n        /* \"#utility.yul\":9081:9091   */\n      0x4e487b71\n        /* \"#utility.yul\":9076:9079   */\n      0xe0\n        /* \"#utility.yul\":9072:9092   */\n      shl\n        /* \"#utility.yul\":9069:9070   */\n      0x00\n        /* \"#utility.yul\":9062:9093   */\n      mstore\n        /* \"#utility.yul\":9116:9120   */\n      0x22\n        /* \"#utility.yul\":9113:9114   */\n      0x04\n        /* \"#utility.yul\":9106:9121   */\n      mstore\n        /* \"#utility.yul\":9144:9148   */\n      0x24\n        /* \"#utility.yul\":9141:9142   */\n      0x00\n        /* \"#utility.yul\":9134:9149   */\n      revert\n        /* \"#utility.yul\":8998:9159   */\n    tag_392:\n      pop\n        /* \"#utility.yul\":8785:9165   */\n      swap2\n      swap1\n      pop\n      jump\t// out\n        /* \"#utility.yul\":9755:9882   */\n    tag_142:\n        /* \"#utility.yul\":9816:9826   */\n      0x4e487b71\n        /* \"#utility.yul\":9811:9814   */\n      0xe0\n        /* \"#utility.yul\":9807:9827   */\n      shl\n        /* \"#utility.yul\":9804:9805   */\n      0x00\n        /* \"#utility.yul\":9797:9828   */\n      mstore\n        /* \"#utility.yul\":9847:9851   */\n      0x32\n        /* \"#utility.yul\":9844:9845   */\n      0x04\n        /* \"#utility.yul\":9837:9852   */\n      mstore\n        /* \"#utility.yul\":9871:9875   */\n      0x24\n        /* \"#utility.yul\":9868:9869   */\n      0x00\n        /* \"#utility.yul\":9861:9876   */\n      revert\n        /* \"#utility.yul\":10289:10873   */\n    tag_234:\n        /* \"#utility.yul\":10511:10515   */\n      0x00\n      sub(shl(0xa0, 0x01), 0x01)\n        /* \"#utility.yul\":10621:10623   */\n      dup1\n        /* \"#utility.yul\":10613:10619   */\n      dup9\n        /* \"#utility.yul\":10609:10624   */\n      and\n        /* \"#utility.yul\":10598:10607   */\n      dup4\n        /* \"#utility.yul\":10591:10625   */\n      mstore\n        /* \"#utility.yul\":10673:10675   */\n      dup1\n        /* \"#utility.yul\":10665:10671   */\n      dup8\n        /* \"#utility.yul\":10661:10676   */\n      and\n        /* \"#utility.yul\":10656:10658   */\n      0x20\n        /* \"#utility.yul\":10645:10654   */\n      dup5\n        /* \"#utility.yul\":10641:10659   */\n      add\n        /* \"#utility.yul\":10634:10677   */\n      mstore\n      pop\n        /* \"#utility.yul\":10713:10719   */\n      dup5\n        /* \"#utility.yul\":10708:10710   */\n      0x40\n        /* \"#utility.yul\":10697:10706   */\n      dup4\n        /* \"#utility.yul\":10693:10711   */\n      add\n        /* \"#utility.yul\":10686:10720   */\n      mstore\n        /* \"#utility.yul\":10756:10762   */\n      dup4\n        /* \"#utility.yul\":10751:10753   */\n      0x60\n        /* \"#utility.yul\":10740:10749   */\n      dup4\n        /* \"#utility.yul\":10736:10754   */\n      add\n        /* \"#utility.yul\":10729:10763   */\n      mstore\n        /* \"#utility.yul\":10800:10803   */\n      0xa0\n        /* \"#utility.yul\":10794:10797   */\n      0x80\n        /* \"#utility.yul\":10783:10792   */\n      dup4\n        /* \"#utility.yul\":10779:10798   */\n      add\n        /* \"#utility.yul\":10772:10804   */\n      mstore\n        /* \"#utility.yul\":10821:10867   */\n      tag_398\n        /* \"#utility.yul\":10862:10865   */\n      0xa0\n        /* \"#utility.yul\":10851:10860   */\n      dup4\n        /* \"#utility.yul\":10847:10866   */\n      add\n        /* \"#utility.yul\":10839:10845   */\n      dup5\n        /* \"#utility.yul\":10821:10867   */\n      tag_293\n      jump\t// in\n    tag_398:\n        /* \"#utility.yul\":10813:10867   */\n      swap8\n        /* \"#utility.yul\":10289:10873   */\n      swap7\n      pop\n      pop\n      pop\n      pop\n      pop\n      pop\n      pop\n      jump\t// out\n        /* \"#utility.yul\":10878:11127   */\n    tag_237:\n        /* \"#utility.yul\":10947:10953   */\n      0x00\n        /* \"#utility.yul\":11000:11002   */\n      0x20\n        /* \"#utility.yul\":10988:10997   */\n      dup3\n        /* \"#utility.yul\":10979:10986   */\n      dup5\n        /* \"#utility.yul\":10975:10998   */\n      sub\n        /* \"#utility.yul\":10971:11003   */\n      slt\n        /* \"#utility.yul\":10968:11020   */\n      iszero\n      tag_400\n      jumpi\n        /* \"#utility.yul\":11016:11017   */\n      0x00\n        /* \"#utility.yul\":11013:11014   */\n      dup1\n        /* \"#utility.yul\":11006:11018   */\n      revert\n        /* \"#utility.yul\":10968:11020   */\n    tag_400:\n        /* \"#utility.yul\":11048:11057   */\n      dup2\n        /* \"#utility.yul\":11042:11058   */\n      mload\n        /* \"#utility.yul\":11067:11097   */\n      tag_310\n        /* \"#utility.yul\":11091:11096   */\n      dup2\n        /* \"#utility.yul\":11067:11097   */\n      tag_292\n      jump\t// in\n        /* \"#utility.yul\":11132:11982   */\n    tag_253:\n        /* \"#utility.yul\":11454:11458   */\n      0x00\n      sub(shl(0xa0, 0x01), 0x01)\n        /* \"#utility.yul\":11564:11566   */\n      dup1\n        /* \"#utility.yul\":11556:11562   */\n      dup9\n        /* \"#utility.yul\":11552:11567   */\n      and\n        /* \"#utility.yul\":11541:11550   */\n      dup4\n        /* \"#utility.yul\":11534:11568   */\n      mstore\n        /* \"#utility.yul\":11616:11618   */\n      dup1\n        /* \"#utility.yul\":11608:11614   */\n      dup8\n        /* \"#utility.yul\":11604:11619   */\n      and\n        /* \"#utility.yul\":11599:11601   */\n      0x20\n        /* \"#utility.yul\":11588:11597   */\n      dup5\n        /* \"#utility.yul\":11584:11602   */\n      add\n        /* \"#utility.yul\":11577:11620   */\n      mstore\n      pop\n        /* \"#utility.yul\":11656:11659   */\n      0xa0\n        /* \"#utility.yul\":11651:11653   */\n      0x40\n        /* \"#utility.yul\":11640:11649   */\n      dup4\n        /* \"#utility.yul\":11636:11654   */\n      add\n        /* \"#utility.yul\":11629:11660   */\n      mstore\n        /* \"#utility.yul\":11683:11740   */\n      tag_403\n        /* \"#utility.yul\":11735:11738   */\n      0xa0\n        /* \"#utility.yul\":11724:11733   */\n      dup4\n        /* \"#utility.yul\":11720:11739   */\n      add\n        /* \"#utility.yul\":11712:11718   */\n      dup7\n        /* \"#utility.yul\":11683:11740   */\n      tag_298\n      jump\t// in\n    tag_403:\n        /* \"#utility.yul\":11788:11797   */\n      dup3\n        /* \"#utility.yul\":11780:11786   */\n      dup2\n        /* \"#utility.yul\":11776:11798   */\n      sub\n        /* \"#utility.yul\":11771:11773   */\n      0x60\n        /* \"#utility.yul\":11760:11769   */\n      dup5\n        /* \"#utility.yul\":11756:11774   */\n      add\n        /* \"#utility.yul\":11749:11799   */\n      mstore\n        /* \"#utility.yul\":11822:11866   */\n      tag_404\n        /* \"#utility.yul\":11859:11865   */\n      dup2\n        /* \"#utility.yul\":11851:11857   */\n      dup7\n        /* \"#utility.yul\":11822:11866   */\n      tag_298\n      jump\t// in\n    tag_404:\n        /* \"#utility.yul\":11808:11866   */\n      swap1\n      pop\n        /* \"#utility.yul\":11915:11924   */\n      dup3\n        /* \"#utility.yul\":11907:11913   */\n      dup2\n        /* \"#utility.yul\":11903:11925   */\n      sub\n        /* \"#utility.yul\":11897:11900   */\n      0x80\n        /* \"#utility.yul\":11886:11895   */\n      dup5\n        /* \"#utility.yul\":11882:11901   */\n      add\n        /* \"#utility.yul\":11875:11926   */\n      mstore\n        /* \"#utility.yul\":11943:11976   */\n      tag_405\n        /* \"#utility.yul\":11969:11975   */\n      dup2\n        /* \"#utility.yul\":11961:11967   */\n      dup6\n        /* \"#utility.yul\":11943:11976   */\n      tag_293\n      jump\t// in\n    tag_405:\n        /* \"#utility.yul\":11935:11976   */\n      swap9\n        /* \"#utility.yul\":11132:11982   */\n      swap8\n      pop\n      pop\n      pop\n      pop\n      pop\n      pop\n      pop\n      pop\n      jump\t// out\n        /* \"#utility.yul\":12432:12654   */\n    tag_283:\n        /* \"#utility.yul\":12497:12506   */\n      dup1\n      dup3\n      add\n        /* \"#utility.yul\":12518:12528   */\n      dup1\n      dup3\n      gt\n        /* \"#utility.yul\":12515:12648   */\n      iszero\n      tag_90\n      jumpi\n        /* \"#utility.yul\":12570:12580   */\n      0x4e487b71\n        /* \"#utility.yul\":12565:12568   */\n      0xe0\n        /* \"#utility.yul\":12561:12581   */\n      shl\n        /* \"#utility.yul\":12558:12559   */\n      0x00\n        /* \"#utility.yul\":12551:12582   */\n      mstore\n        /* \"#utility.yul\":12605:12609   */\n      0x11\n        /* \"#utility.yul\":12602:12603   */\n      0x04\n        /* \"#utility.yul\":12595:12610   */\n      mstore\n        /* \"#utility.yul\":12633:12637   */\n      0x24\n        /* \"#utility.yul\":12630:12631   */\n      0x00\n        /* \"#utility.yul\":12623:12638   */\n      revert\n        /* \"#utility.yul\":12659:13124   */\n    tag_290:\n        /* \"#utility.yul\":12916:12918   */\n      0x40\n        /* \"#utility.yul\":12905:12914   */\n      dup2\n        /* \"#utility.yul\":12898:12919   */\n      mstore\n        /* \"#utility.yul\":12879:12883   */\n      0x00\n        /* \"#utility.yul\":12942:12998   */\n      tag_410\n        /* \"#utility.yul\":12994:12996   */\n      0x40\n        /* \"#utility.yul\":12983:12992   */\n      dup4\n        /* \"#utility.yul\":12979:12997   */\n      add\n        /* \"#utility.yul\":12971:12977   */\n      dup6\n        /* \"#utility.yul\":12942:12998   */\n      tag_298\n      jump\t// in\n    tag_410:\n        /* \"#utility.yul\":13046:13055   */\n      dup3\n        /* \"#utility.yul\":13038:13044   */\n      dup2\n        /* \"#utility.yul\":13034:13056   */\n      sub\n        /* \"#utility.yul\":13029:13031   */\n      0x20\n        /* \"#utility.yul\":13018:13027   */\n      dup5\n        /* \"#utility.yul\":13014:13032   */\n      add\n        /* \"#utility.yul\":13007:13057   */\n      mstore\n        /* \"#utility.yul\":13074:13118   */\n      tag_411\n        /* \"#utility.yul\":13111:13117   */\n      dup2\n        /* \"#utility.yul\":13103:13109   */\n      dup6\n        /* \"#utility.yul\":13074:13118   */\n      tag_298\n      jump\t// in\n    tag_411:\n        /* \"#utility.yul\":13066:13118   */\n      swap6\n        /* \"#utility.yul\":12659:13124   */\n      swap5\n      pop\n      pop\n      pop\n      pop\n      pop\n      jump\t// out\n\n    auxdata: 0xa2646970667358221220f43b387495bc31d9d7e99016a3311ee62d2e5b4ae6a2c8a28a92b21635364c0764736f6c63430008190033\n}\n",
    "bytecode": {
      "linkReferences": {},
      "object": "608060405234801561000f575f80fd5b5060405161174c38038061174c83398101604081905261002e91610108565b808261003981610078565b506001600160a01b03811661006757604051631e4fbdf760e01b81525f600482015260240160405180910390fd5b61007081610088565b505050610306565b60026100848282610247565b5050565b600380546001600160a01b038381166001600160a01b0319831681179093556040519116919082907f8be0079c531659141344cd1fd0a4f28419497f9722a3daafe3b4186f6b6457e0905f90a35050565b634e487b7160e01b5f52604160045260245ffd5b80516001600160a01b0381168114610103575f80fd5b919050565b5f8060408385031215610119575f80fd5b82516001600160401b038082111561012f575f80fd5b818501915085601f830112610142575f80fd5b815181811115610154576101546100d9565b604051601f8201601f19908116603f0116810190838211818310171561017c5761017c6100d9565b81604052828152886020848701011115610194575f80fd5b8260208601602083015e5f6020848301015280965050505050506101ba602084016100ed565b90509250929050565b600181811c908216806101d757607f821691505b6020821081036101f557634e487b7160e01b5f52602260045260245ffd5b50919050565b601f82111561024257805f5260205f20601f840160051c810160208510156102205750805b601f840160051c820191505b8181101561023f575f815560010161022c565b50505b505050565b81516001600160401b03811115610260576102606100d9565b6102748161026e84546101c3565b846101fb565b602080601f8311600181146102a7575f84156102905750858301515b5f19600386901b1c1916600185901b1785556102fe565b5f85815260208120601f198616915b828110156102d5578886015182559484019460019091019084016102b6565b50858210156102f257878501515f19600388901b60f8161c191681555b505060018460011b0185555b505050505050565b611439806103135f395ff3fe608060405234801561000f575f80fd5b50600436106100fa575f3560e01c80638da5cb5b11610093578063d31a03c211610063578063d31a03c214610212578063e985e9c51461021a578063f242432a14610255578063f2fde38b14610268575f80fd5b80638da5cb5b146101ca578063a22cb465146101e5578063b390c0ab146101f8578063c83f2e391461020b575f80fd5b80631b56a5be116100ce5780631b56a5be1461017c5780632eb2c2d61461018f5780634e1273f4146101a2578063715018a6146101c2575f80fd5b8062fdd58e146100fe57806301ffc9a7146101245780630e89341c14610147578063156e29f614610167575b5f80fd5b61011161010c366004610ddf565b61027b565b6040519081526020015b60405180910390f35b610137610132366004610e1c565b6102a2565b604051901515815260200161011b565b61015a610155366004610e3e565b6102f1565b60405161011b9190610e83565b61017a610175366004610e95565b610383565b005b61017a61018a366004610e95565b6103aa565b61017a61019d366004611005565b6103bd565b6101b56101b03660046110a8565b610447565b60405161011b919061119c565b61017a610512565b6003546040516001600160a01b03909116815260200161011b565b61017a6101f33660046111ae565b610525565b61017a6102063660046111e7565b610534565b6101115f81565b610111600181565b610137610228366004611207565b6001600160a01b039182165f90815260016020908152604080832093909416825291909152205460ff1690565b61017a610263366004611238565b61053f565b61017a610276366004611298565b6105bc565b5f818152602081815260408083206001600160a01b03861684529091529020545b92915050565b5f6001600160e01b03198216636cdb3d1360e11b14806102d257506001600160e01b031982166303a24d0760e21b145b8061029c57506301ffc9a760e01b6001600160e01b031983161461029c565b606060028054610300906112b1565b80601f016020809104026020016040519081016040528092919081815260200182805461032c906112b1565b80156103775780601f1061034e57610100808354040283529160200191610377565b820191905f5260205f20905b81548152906001019060200180831161035a57829003601f168201915b50505050509050919050565b61038b6105f9565b6103a583838360405180602001604052805f815250610626565b505050565b6103b26105f9565b6103a5838383610681565b336001600160a01b03861681148015906103fc57506001600160a01b038087165f9081526001602090815260408083209385168352929052205460ff16155b156104325760405163711bec9160e11b81526001600160a01b038083166004830152871660248201526044015b60405180910390fd5b61043f86868686866106ee565b505050505050565b606081518351146104785781518351604051635b05999160e01b815260048101929092526024820152604401610429565b5f835167ffffffffffffffff81111561049357610493610ec5565b6040519080825280602002602001820160405280156104bc578160200160208202803683370190505b5090505f5b845181101561050a576020808202860101516104e59060208084028701015161027b565b8282815181106104f7576104f76112e9565b60209081029190910101526001016104c1565b509392505050565b61051a6105f9565b6105235f61074c565b565b6105303383836107b5565b5050565b610530338383610681565b336001600160a01b038616811480159061057e57506001600160a01b038087165f9081526001602090815260408083209385168352929052205460ff16155b156105af5760405163711bec9160e11b81526001600160a01b03808316600483015287166024820152604401610429565b61043f8686868686610849565b6105c46105f9565b6001600160a01b0381166105ed57604051631e4fbdf760e01b81525f6004820152602401610429565b6105f68161074c565b50565b6003546001600160a01b031633146105235760405163118cdaa760e01b8152336004820152602401610429565b6001600160a01b03841661064f57604051632bfa23e760e11b81525f6004820152602401610429565b6040805160018082526020820186905281830190815260608201859052608082019092529061043f5f878484876108d5565b6001600160a01b0383166106a957604051626a0d4560e21b81525f6004820152602401610429565b604080516001808252602082018590528183019081526060820184905260a082019092525f608082018181529192916106e7918791859085906108d5565b5050505050565b6001600160a01b03841661071757604051632bfa23e760e11b81525f6004820152602401610429565b6001600160a01b03851661073f57604051626a0d4560e21b81525f6004820152602401610429565b6106e785858585856108d5565b600380546001600160a01b038381167fffffffffffffffffffffffff0000000000000000000000000000000000000000831681179093556040519116919082907f8be0079c531659141344cd1fd0a4f28419497f9722a3daafe3b4186f6b6457e0905f90a35050565b6001600160a01b0382166107dd5760405162ced3e160e81b81525f6004820152602401610429565b6001600160a01b038381165f81815260016020908152604080832094871680845294825291829020805460ff191686151590811790915591519182527f17307eab39ab6107e8899845ad3d59bd9653f200f220920489ca2b5937696c31910160405180910390a3505050565b6001600160a01b03841661087257604051632bfa23e760e11b81525f6004820152602401610429565b6001600160a01b03851661089a57604051626a0d4560e21b81525f6004820152602401610429565b604080516001808252602082018690528183019081526060820185905260808201909252906108cc87878484876108d5565b50505050505050565b6108e185858585610928565b6001600160a01b038416156106e7578251339060010361091a57602084810151908401516109138389898585896109ad565b505061043f565b61043f818787878787610ace565b6001600160a01b038416158061094557506001600160a01b038316155b61099b5760405162461bcd60e51b815260206004820152602160248201527f5472616e73666572732064697361626c65643a20536f756c626f756e64204e466044820152601560fa1b6064820152608401610429565b6109a784848484610bb5565b50505050565b6001600160a01b0384163b1561043f5760405163f23a6e6160e01b81526001600160a01b0385169063f23a6e61906109f190899089908890889088906004016112fd565b6020604051808303815f875af1925050508015610a2b575060408051601f3d908101601f19168201909252610a289181019061133f565b60015b610a92573d808015610a58576040519150601f19603f3d011682016040523d82523d5f602084013e610a5d565b606091505b5080515f03610a8a57604051632bfa23e760e11b81526001600160a01b0386166004820152602401610429565b805181602001fd5b6001600160e01b0319811663f23a6e6160e01b146108cc57604051632bfa23e760e11b81526001600160a01b0386166004820152602401610429565b6001600160a01b0384163b1561043f5760405163bc197c8160e01b81526001600160a01b0385169063bc197c8190610b12908990899088908890889060040161135a565b6020604051808303815f875af1925050508015610b4c575060408051601f3d908101601f19168201909252610b499181019061133f565b60015b610b79573d808015610a58576040519150601f19603f3d011682016040523d82523d5f602084013e610a5d565b6001600160e01b0319811663bc197c8160e01b146108cc57604051632bfa23e760e11b81526001600160a01b0386166004820152602401610429565b8051825114610be45781518151604051635b05999160e01b815260048101929092526024820152604401610429565b335f5b8351811015610ce6576020818102858101820151908501909101516001600160a01b03881615610c98575f828152602081815260408083206001600160a01b038c16845290915290205481811015610c72576040516303dee4c560e01b81526001600160a01b038a166004820152602481018290526044810183905260648101849052608401610429565b5f838152602081815260408083206001600160a01b038d16845290915290209082900390555b6001600160a01b03871615610cdc575f828152602081815260408083206001600160a01b038b16845290915281208054839290610cd69084906113b7565b90915550505b5050600101610be7565b508251600103610d665760208301515f906020840151909150856001600160a01b0316876001600160a01b0316846001600160a01b03167fc3d58168c5ae7397731d063d5bbf3d657854427343f4c083240f7aacaa2d0f628585604051610d57929190918252602082015260400190565b60405180910390a450506106e7565b836001600160a01b0316856001600160a01b0316826001600160a01b03167f4a39dc06d4c0dbc64b70af90fd698a233a518aa5d07e595d983b8c0526c8f7fb8686604051610db59291906113d6565b60405180910390a45050505050565b80356001600160a01b0381168114610dda575f80fd5b919050565b5f8060408385031215610df0575f80fd5b610df983610dc4565b946020939093013593505050565b6001600160e01b0319811681146105f6575f80fd5b5f60208284031215610e2c575f80fd5b8135610e3781610e07565b9392505050565b5f60208284031215610e4e575f80fd5b5035919050565b5f81518084528060208401602086015e5f602082860101526020601f19601f83011685010191505092915050565b602081525f610e376020830184610e55565b5f805f60608486031215610ea7575f80fd5b610eb084610dc4565b95602085013595506040909401359392505050565b634e487b7160e01b5f52604160045260245ffd5b604051601f8201601f1916810167ffffffffffffffff81118282101715610f0257610f02610ec5565b604052919050565b5f67ffffffffffffffff821115610f2357610f23610ec5565b5060051b60200190565b5f82601f830112610f3c575f80fd5b81356020610f51610f4c83610f0a565b610ed9565b8083825260208201915060208460051b870101935086841115610f72575f80fd5b602086015b84811015610f8e5780358352918301918301610f77565b509695505050505050565b5f82601f830112610fa8575f80fd5b813567ffffffffffffffff811115610fc257610fc2610ec5565b610fd5601f8201601f1916602001610ed9565b818152846020838601011115610fe9575f80fd5b816020850160208301375f918101602001919091529392505050565b5f805f805f60a08688031215611019575f80fd5b61102286610dc4565b945061103060208701610dc4565b9350604086013567ffffffffffffffff8082111561104c575f80fd5b61105889838a01610f2d565b9450606088013591508082111561106d575f80fd5b61107989838a01610f2d565b9350608088013591508082111561108e575f80fd5b5061109b88828901610f99565b9150509295509295909350565b5f80604083850312156110b9575f80fd5b823567ffffffffffffffff808211156110d0575f80fd5b818501915085601f8301126110e3575f80fd5b813560206110f3610f4c83610f0a565b82815260059290921b84018101918181019089841115611111575f80fd5b948201945b838610156111365761112786610dc4565b82529482019490820190611116565b9650508601359250508082111561114b575f80fd5b5061115885828601610f2d565b9150509250929050565b5f815180845260208085019450602084015f5b8381101561119157815187529582019590820190600101611175565b509495945050505050565b602081525f610e376020830184611162565b5f80604083850312156111bf575f80fd5b6111c883610dc4565b9150602083013580151581146111dc575f80fd5b809150509250929050565b5f80604083850312156111f8575f80fd5b50508035926020909101359150565b5f8060408385031215611218575f80fd5b61122183610dc4565b915061122f60208401610dc4565b90509250929050565b5f805f805f60a0868803121561124c575f80fd5b61125586610dc4565b945061126360208701610dc4565b93506040860135925060608601359150608086013567ffffffffffffffff81111561128c575f80fd5b61109b88828901610f99565b5f602082840312156112a8575f80fd5b610e3782610dc4565b600181811c908216806112c557607f821691505b6020821081036112e357634e487b7160e01b5f52602260045260245ffd5b50919050565b634e487b7160e01b5f52603260045260245ffd5b5f6001600160a01b03808816835280871660208401525084604083015283606083015260a0608083015261133460a0830184610e55565b979650505050505050565b5f6020828403121561134f575f80fd5b8151610e3781610e07565b5f6001600160a01b03808816835280871660208401525060a0604083015261138560a0830186611162565b82810360608401526113978186611162565b905082810360808401526113ab8185610e55565b98975050505050505050565b8082018082111561029c57634e487b7160e01b5f52601160045260245ffd5b604081525f6113e86040830185611162565b82810360208401526113fa8185611162565b9594505050505056fea2646970667358221220f43b387495bc31d9d7e99016a3311ee62d2e5b4ae6a2c8a28a92b21635364c0764736f6c63430008190033",
      "opcodes": "PUSH1 0x80 PUSH1 0x40 MSTORE CALLVALUE DUP1 ISZERO PUSH2 0xF JUMPI PUSH0 DUP1 REVERT JUMPDEST POP PUSH1 0x40 MLOAD PUSH2 0x174C CODESIZE SUB DUP1 PUSH2 0x174C DUP4 CODECOPY DUP2 ADD PUSH1 0x40 DUP2 SWAP1 MSTORE PUSH2 0x2E SWAP2 PUSH2 0x108 JUMP JUMPDEST DUP1 DUP3 PUSH2 0x39 DUP2 PUSH2 0x78 JUMP JUMPDEST POP PUSH1 0x1 PUSH1 0x1 PUSH1 0xA0 SHL SUB DUP2 AND PUSH2 0x67 JUMPI PUSH1 0x40 MLOAD PUSH4 0x1E4FBDF7 PUSH1 0xE0 SHL DUP2 MSTORE PUSH0 PUSH1 0x4 DUP3 ADD MSTORE PUSH1 0x24 ADD PUSH1 0x40 MLOAD DUP1 SWAP2 SUB SWAP1 REVERT JUMPDEST PUSH2 0x70 DUP2 PUSH2 0x88 JUMP JUMPDEST POP POP POP PUSH2 0x306 JUMP JUMPDEST PUSH1 0x2 PUSH2 0x84 DUP3 DUP3 PUSH2 0x247 JUMP JUMPDEST POP POP JUMP JUMPDEST PUSH1 0x3 DUP1 SLOAD PUSH1 0x1 PUSH1 0x1 PUSH1 0xA0 SHL SUB DUP4 DUP2 AND PUSH1 0x1 PUSH1 0x1 PUSH1 0xA0 SHL SUB NOT DUP4 AND DUP2 OR SWAP1 SWAP4 SSTORE PUSH1 0x40 MLOAD SWAP2 AND SWAP2 SWAP1 DUP3 SWAP1 PUSH32 0x8BE0079C531659141344CD1FD0A4F28419497F9722A3DAAFE3B4186F6B6457E0 SWAP1 PUSH0 SWAP1 LOG3 POP POP JUMP JUMPDEST PUSH4 0x4E487B71 PUSH1 0xE0 SHL PUSH0 MSTORE PUSH1 0x41 PUSH1 0x4 MSTORE PUSH1 0x24 PUSH0 REVERT JUMPDEST DUP1 MLOAD PUSH1 0x1 PUSH1 0x1 PUSH1 0xA0 SHL SUB DUP2 AND DUP2 EQ PUSH2 0x103 JUMPI PUSH0 DUP1 REVERT JUMPDEST SWAP2 SWAP1 POP JUMP JUMPDEST PUSH0 DUP1 PUSH1 0x40 DUP4 DUP6 SUB SLT ISZERO PUSH2 0x119 JUMPI PUSH0 DUP1 REVERT JUMPDEST DUP3 MLOAD PUSH1 0x1 PUSH1 0x1 PUSH1 0x40 SHL SUB DUP1 DUP3 GT ISZERO PUSH2 0x12F JUMPI PUSH0 DUP1 REVERT JUMPDEST DUP2 DUP6 ADD SWAP2 POP DUP6 PUSH1 0x1F DUP4 ADD SLT PUSH2 0x142 JUMPI PUSH0 DUP1 REVERT JUMPDEST DUP2 MLOAD DUP2 DUP2 GT ISZERO PUSH2 0x154 JUMPI PUSH2 0x154 PUSH2 0xD9 JUMP JUMPDEST PUSH1 0x40 MLOAD PUSH1 0x1F DUP3 ADD PUSH1 0x1F NOT SWAP1 DUP2 AND PUSH1 0x3F ADD AND DUP2 ADD SWAP1 DUP4 DUP3 GT DUP2 DUP4 LT OR ISZERO PUSH2 0x17C JUMPI PUSH2 0x17C PUSH2 0xD9 JUMP JUMPDEST DUP2 PUSH1 0x40 MSTORE DUP3 DUP2 MSTORE DUP9 PUSH1 0x20 DUP5 DUP8 ADD ADD GT ISZERO PUSH2 0x194 JUMPI PUSH0 DUP1 REVERT JUMPDEST DUP3 PUSH1 0x20 DUP7 ADD PUSH1 0x20 DUP4 ADD MCOPY PUSH0 PUSH1 0x20 DUP5 DUP4 ADD ADD MSTORE DUP1 SWAP7 POP POP POP POP POP POP PUSH2 0x1BA PUSH1 0x20 DUP5 ADD PUSH2 0xED JUMP JUMPDEST SWAP1 POP SWAP3 POP SWAP3 SWAP1 POP JUMP JUMPDEST PUSH1 0x1 DUP2 DUP2 SHR SWAP1 DUP3 AND DUP1 PUSH2 0x1D7 JUMPI PUSH1 0x7F DUP3 AND SWAP2 POP JUMPDEST PUSH1 0x20 DUP3 LT DUP2 SUB PUSH2 0x1F5 JUMPI PUSH4 0x4E487B71 PUSH1 0xE0 SHL PUSH0 MSTORE PUSH1 0x22 PUSH1 0x4 MSTORE PUSH1 0x24 PUSH0 REVERT JUMPDEST POP SWAP2 SWAP1 POP JUMP JUMPDEST PUSH1 0x1F DUP3 GT ISZERO PUSH2 0x242 JUMPI DUP1 PUSH0 MSTORE PUSH1 0x20 PUSH0 KECCAK256 PUSH1 0x1F DUP5 ADD PUSH1 0x5 SHR DUP2 ADD PUSH1 0x20 DUP6 LT ISZERO PUSH2 0x220 JUMPI POP DUP1 JUMPDEST PUSH1 0x1F DUP5 ADD PUSH1 0x5 SHR DUP3 ADD SWAP2 POP JUMPDEST DUP2 DUP2 LT ISZERO PUSH2 0x23F JUMPI PUSH0 DUP2 SSTORE PUSH1 0x1 ADD PUSH2 0x22C JUMP JUMPDEST POP POP JUMPDEST POP POP POP JUMP JUMPDEST DUP2 MLOAD PUSH1 0x1 PUSH1 0x1 PUSH1 0x40 SHL SUB DUP2 GT ISZERO PUSH2 0x260 JUMPI PUSH2 0x260 PUSH2 0xD9 JUMP JUMPDEST PUSH2 0x274 DUP2 PUSH2 0x26E DUP5 SLOAD PUSH2 0x1C3 JUMP JUMPDEST DUP5 PUSH2 0x1FB JUMP JUMPDEST PUSH1 0x20 DUP1 PUSH1 0x1F DUP4 GT PUSH1 0x1 DUP2 EQ PUSH2 0x2A7 JUMPI PUSH0 DUP5 ISZERO PUSH2 0x290 JUMPI POP DUP6 DUP4 ADD MLOAD JUMPDEST PUSH0 NOT PUSH1 0x3 DUP7 SWAP1 SHL SHR NOT AND PUSH1 0x1 DUP6 SWAP1 SHL OR DUP6 SSTORE PUSH2 0x2FE JUMP JUMPDEST PUSH0 DUP6 DUP2 MSTORE PUSH1 0x20 DUP2 KECCAK256 PUSH1 0x1F NOT DUP7 AND SWAP2 JUMPDEST DUP3 DUP2 LT ISZERO PUSH2 0x2D5 JUMPI DUP9 DUP7 ADD MLOAD DUP3 SSTORE SWAP5 DUP5 ADD SWAP5 PUSH1 0x1 SWAP1 SWAP2 ADD SWAP1 DUP5 ADD PUSH2 0x2B6 JUMP JUMPDEST POP DUP6 DUP3 LT ISZERO PUSH2 0x2F2 JUMPI DUP8 DUP6 ADD MLOAD PUSH0 NOT PUSH1 0x3 DUP9 SWAP1 SHL PUSH1 0xF8 AND SHR NOT AND DUP2 SSTORE JUMPDEST POP POP PUSH1 0x1 DUP5 PUSH1 0x1 SHL ADD DUP6 SSTORE JUMPDEST POP POP POP POP POP POP JUMP JUMPDEST PUSH2 0x1439 DUP1 PUSH2 0x313 PUSH0 CODECOPY PUSH0 RETURN INVALID PUSH1 0x80 PUSH1 0x40 MSTORE CALLVALUE DUP1 ISZERO PUSH2 0xF JUMPI PUSH0 DUP1 REVERT JUMPDEST POP PUSH1 0x4 CALLDATASIZE LT PUSH2 0xFA JUMPI PUSH0 CALLDATALOAD PUSH1 0xE0 SHR DUP1 PUSH4 0x8DA5CB5B GT PUSH2 0x93 JUMPI DUP1 PUSH4 0xD31A03C2 GT PUSH2 0x63 JUMPI DUP1 PUSH4 0xD31A03C2 EQ PUSH2 0x212 JUMPI DUP1 PUSH4 0xE985E9C5 EQ PUSH2 0x21A JUMPI DUP1 PUSH4 0xF242432A EQ PUSH2 0x255 JUMPI DUP1 PUSH4 0xF2FDE38B EQ PUSH2 0x268 JUMPI PUSH0 DUP1 REVERT JUMPDEST DUP1 PUSH4 0x8DA5CB5B EQ PUSH2 0x1CA JUMPI DUP1 PUSH4 0xA22CB465 EQ PUSH2 0x1E5 JUMPI DUP1 PUSH4 0xB390C0AB EQ PUSH2 0x1F8 JUMPI DUP1 PUSH4 0xC83F2E39 EQ PUSH2 0x20B JUMPI PUSH0 DUP1 REVERT JUMPDEST DUP1 PUSH4 0x1B56A5BE GT PUSH2 0xCE JUMPI DUP1 PUSH4 0x1B56A5BE EQ PUSH2 0x17C JUMPI DUP1 PUSH4 0x2EB2C2D6 EQ PUSH2 0x18F JUMPI DUP1 PUSH4 0x4E1273F4 EQ PUSH2 0x1A2 JUMPI DUP1 PUSH4 0x715018A6 EQ PUSH2 0x1C2 JUMPI PUSH0 DUP1 REVERT JUMPDEST DUP1 PUSH3 0xFDD58E EQ PUSH2 0xFE JUMPI DUP1 PUSH4 0x1FFC9A7 EQ PUSH2 0x124 JUMPI DUP1 PUSH4 0xE89341C EQ PUSH2 0x147 JUMPI DUP1 PUSH4 0x156E29F6 EQ PUSH2 0x167 JUMPI JUMPDEST PUSH0 DUP1 REVERT JUMPDEST PUSH2 0x111 PUSH2 0x10C CALLDATASIZE PUSH1 0x4 PUSH2 0xDDF JUMP JUMPDEST PUSH2 0x27B JUMP JUMPDEST PUSH1 0x40 MLOAD SWAP1 DUP2 MSTORE PUSH1 0x20 ADD JUMPDEST PUSH1 0x40 MLOAD DUP1 SWAP2 SUB SWAP1 RETURN JUMPDEST PUSH2 0x137 PUSH2 0x132 CALLDATASIZE PUSH1 0x4 PUSH2 0xE1C JUMP JUMPDEST PUSH2 0x2A2 JUMP JUMPDEST PUSH1 0x40 MLOAD SWAP1 ISZERO ISZERO DUP2 MSTORE PUSH1 0x20 ADD PUSH2 0x11B JUMP JUMPDEST PUSH2 0x15A PUSH2 0x155 CALLDATASIZE PUSH1 0x4 PUSH2 0xE3E JUMP JUMPDEST PUSH2 0x2F1 JUMP JUMPDEST PUSH1 0x40 MLOAD PUSH2 0x11B SWAP2 SWAP1 PUSH2 0xE83 JUMP JUMPDEST PUSH2 0x17A PUSH2 0x175 CALLDATASIZE PUSH1 0x4 PUSH2 0xE95 JUMP JUMPDEST PUSH2 0x383 JUMP JUMPDEST STOP JUMPDEST PUSH2 0x17A PUSH2 0x18A CALLDATASIZE PUSH1 0x4 PUSH2 0xE95 JUMP JUMPDEST PUSH2 0x3AA JUMP JUMPDEST PUSH2 0x17A PUSH2 0x19D CALLDATASIZE PUSH1 0x4 PUSH2 0x1005 JUMP JUMPDEST PUSH2 0x3BD JUMP JUMPDEST PUSH2 0x1B5 PUSH2 0x1B0 CALLDATASIZE PUSH1 0x4 PUSH2 0x10A8 JUMP JUMPDEST PUSH2 0x447 JUMP JUMPDEST PUSH1 0x40 MLOAD PUSH2 0x11B SWAP2 SWAP1 PUSH2 0x119C JUMP JUMPDEST PUSH2 0x17A PUSH2 0x512 JUMP JUMPDEST PUSH1 0x3 SLOAD PUSH1 0x40 MLOAD PUSH1 0x1 PUSH1 0x1 PUSH1 0xA0 SHL SUB SWAP1 SWAP2 AND DUP2 MSTORE PUSH1 0x20 ADD PUSH2 0x11B JUMP JUMPDEST PUSH2 0x17A PUSH2 0x1F3 CALLDATASIZE PUSH1 0x4 PUSH2 0x11AE JUMP JUMPDEST PUSH2 0x525 JUMP JUMPDEST PUSH2 0x17A PUSH2 0x206 CALLDATASIZE PUSH1 0x4 PUSH2 0x11E7 JUMP JUMPDEST PUSH2 0x534 JUMP JUMPDEST PUSH2 0x111 PUSH0 DUP2 JUMP JUMPDEST PUSH2 0x111 PUSH1 0x1 DUP2 JUMP JUMPDEST PUSH2 0x137 PUSH2 0x228 CALLDATASIZE PUSH1 0x4 PUSH2 0x1207 JUMP JUMPDEST PUSH1 0x1 PUSH1 0x1 PUSH1 0xA0 SHL SUB SWAP2 DUP3 AND PUSH0 SWAP1 DUP2 MSTORE PUSH1 0x1 PUSH1 0x20 SWAP1 DUP2 MSTORE PUSH1 0x40 DUP1 DUP4 KECCAK256 SWAP4 SWAP1 SWAP5 AND DUP3 MSTORE SWAP2 SWAP1 SWAP2 MSTORE KECCAK256 SLOAD PUSH1 0xFF AND SWAP1 JUMP JUMPDEST PUSH2 0x17A PUSH2 0x263 CALLDATASIZE PUSH1 0x4 PUSH2 0x1238 JUMP JUMPDEST PUSH2 0x53F JUMP JUMPDEST PUSH2 0x17A PUSH2 0x276 CALLDATASIZE PUSH1 0x4 PUSH2 0x1298 JUMP JUMPDEST PUSH2 0x5BC JUMP JUMPDEST PUSH0 DUP2 DUP2 MSTORE PUSH1 0x20 DUP2 DUP2 MSTORE PUSH1 0x40 DUP1 DUP4 KECCAK256 PUSH1 0x1 PUSH1 0x1 PUSH1 0xA0 SHL SUB DUP7 AND DUP5 MSTORE SWAP1 SWAP2 MSTORE SWAP1 KECCAK256 SLOAD JUMPDEST SWAP3 SWAP2 POP POP JUMP JUMPDEST PUSH0 PUSH1 0x1 PUSH1 0x1 PUSH1 0xE0 SHL SUB NOT DUP3 AND PUSH4 0x6CDB3D13 PUSH1 0xE1 SHL EQ DUP1 PUSH2 0x2D2 JUMPI POP PUSH1 0x1 PUSH1 0x1 PUSH1 0xE0 SHL SUB NOT DUP3 AND PUSH4 0x3A24D07 PUSH1 0xE2 SHL EQ JUMPDEST DUP1 PUSH2 0x29C JUMPI POP PUSH4 0x1FFC9A7 PUSH1 0xE0 SHL PUSH1 0x1 PUSH1 0x1 PUSH1 0xE0 SHL SUB NOT DUP4 AND EQ PUSH2 0x29C JUMP JUMPDEST PUSH1 0x60 PUSH1 0x2 DUP1 SLOAD PUSH2 0x300 SWAP1 PUSH2 0x12B1 JUMP JUMPDEST DUP1 PUSH1 0x1F ADD PUSH1 0x20 DUP1 SWAP2 DIV MUL PUSH1 0x20 ADD PUSH1 0x40 MLOAD SWAP1 DUP2 ADD PUSH1 0x40 MSTORE DUP1 SWAP3 SWAP2 SWAP1 DUP2 DUP2 MSTORE PUSH1 0x20 ADD DUP3 DUP1 SLOAD PUSH2 0x32C SWAP1 PUSH2 0x12B1 JUMP JUMPDEST DUP1 ISZERO PUSH2 0x377 JUMPI DUP1 PUSH1 0x1F LT PUSH2 0x34E JUMPI PUSH2 0x100 DUP1 DUP4 SLOAD DIV MUL DUP4 MSTORE SWAP2 PUSH1 0x20 ADD SWAP2 PUSH2 0x377 JUMP JUMPDEST DUP3 ADD SWAP2 SWAP1 PUSH0 MSTORE PUSH1 0x20 PUSH0 KECCAK256 SWAP1 JUMPDEST DUP2 SLOAD DUP2 MSTORE SWAP1 PUSH1 0x1 ADD SWAP1 PUSH1 0x20 ADD DUP1 DUP4 GT PUSH2 0x35A JUMPI DUP3 SWAP1 SUB PUSH1 0x1F AND DUP3 ADD SWAP2 JUMPDEST POP POP POP POP POP SWAP1 POP SWAP2 SWAP1 POP JUMP JUMPDEST PUSH2 0x38B PUSH2 0x5F9 JUMP JUMPDEST PUSH2 0x3A5 DUP4 DUP4 DUP4 PUSH1 0x40 MLOAD DUP1 PUSH1 0x20 ADD PUSH1 0x40 MSTORE DUP1 PUSH0 DUP2 MSTORE POP PUSH2 0x626 JUMP JUMPDEST POP POP POP JUMP JUMPDEST PUSH2 0x3B2 PUSH2 0x5F9 JUMP JUMPDEST PUSH2 0x3A5 DUP4 DUP4 DUP4 PUSH2 0x681 JUMP JUMPDEST CALLER PUSH1 0x1 PUSH1 0x1 PUSH1 0xA0 SHL SUB DUP7 AND DUP2 EQ DUP1 ISZERO SWAP1 PUSH2 0x3FC JUMPI POP PUSH1 0x1 PUSH1 0x1 PUSH1 0xA0 SHL SUB DUP1 DUP8 AND PUSH0 SWAP1 DUP2 MSTORE PUSH1 0x1 PUSH1 0x20 SWAP1 DUP2 MSTORE PUSH1 0x40 DUP1 DUP4 KECCAK256 SWAP4 DUP6 AND DUP4 MSTORE SWAP3 SWAP1 MSTORE KECCAK256 SLOAD PUSH1 0xFF AND ISZERO JUMPDEST ISZERO PUSH2 0x432 JUMPI PUSH1 0x40 MLOAD PUSH4 0x711BEC91 PUSH1 0xE1 SHL DUP2 MSTORE PUSH1 0x1 PUSH1 0x1 PUSH1 0xA0 SHL SUB DUP1 DUP4 AND PUSH1 0x4 DUP4 ADD MSTORE DUP8 AND PUSH1 0x24 DUP3 ADD MSTORE PUSH1 0x44 ADD JUMPDEST PUSH1 0x40 MLOAD DUP1 SWAP2 SUB SWAP1 REVERT JUMPDEST PUSH2 0x43F DUP7 DUP7 DUP7 DUP7 DUP7 PUSH2 0x6EE JUMP JUMPDEST POP POP POP POP POP POP JUMP JUMPDEST PUSH1 0x60 DUP2 MLOAD DUP4 MLOAD EQ PUSH2 0x478 JUMPI DUP2 MLOAD DUP4 MLOAD PUSH1 0x40 MLOAD PUSH4 0x5B059991 PUSH1 0xE0 SHL DUP2 MSTORE PUSH1 0x4 DUP2 ADD SWAP3 SWAP1 SWAP3 MSTORE PUSH1 0x24 DUP3 ADD MSTORE PUSH1 0x44 ADD PUSH2 0x429 JUMP JUMPDEST PUSH0 DUP4 MLOAD PUSH8 0xFFFFFFFFFFFFFFFF DUP2 GT ISZERO PUSH2 0x493 JUMPI PUSH2 0x493 PUSH2 0xEC5 JUMP JUMPDEST PUSH1 0x40 MLOAD SWAP1 DUP1 DUP3 MSTORE DUP1 PUSH1 0x20 MUL PUSH1 0x20 ADD DUP3 ADD PUSH1 0x40 MSTORE DUP1 ISZERO PUSH2 0x4BC JUMPI DUP2 PUSH1 0x20 ADD PUSH1 0x20 DUP3 MUL DUP1 CALLDATASIZE DUP4 CALLDATACOPY ADD SWAP1 POP JUMPDEST POP SWAP1 POP PUSH0 JUMPDEST DUP5 MLOAD DUP2 LT ISZERO PUSH2 0x50A JUMPI PUSH1 0x20 DUP1 DUP3 MUL DUP7 ADD ADD MLOAD PUSH2 0x4E5 SWAP1 PUSH1 0x20 DUP1 DUP5 MUL DUP8 ADD ADD MLOAD PUSH2 0x27B JUMP JUMPDEST DUP3 DUP3 DUP2 MLOAD DUP2 LT PUSH2 0x4F7 JUMPI PUSH2 0x4F7 PUSH2 0x12E9 JUMP JUMPDEST PUSH1 0x20 SWAP1 DUP2 MUL SWAP2 SWAP1 SWAP2 ADD ADD MSTORE PUSH1 0x1 ADD PUSH2 0x4C1 JUMP JUMPDEST POP SWAP4 SWAP3 POP POP POP JUMP JUMPDEST PUSH2 0x51A PUSH2 0x5F9 JUMP JUMPDEST PUSH2 0x523 PUSH0 PUSH2 0x74C JUMP JUMPDEST JUMP JUMPDEST PUSH2 0x530 CALLER DUP4 DUP4 PUSH2 0x7B5 JUMP JUMPDEST POP POP JUMP JUMPDEST PUSH2 0x530 CALLER DUP4 DUP4 PUSH2 0x681 JUMP JUMPDEST CALLER PUSH1 0x1 PUSH1 0x1 PUSH1 0xA0 SHL SUB DUP7 AND DUP2 EQ DUP1 ISZERO SWAP1 PUSH2 0x57E JUMPI POP PUSH1 0x1 PUSH1 0x1 PUSH1 0xA0 SHL SUB DUP1 DUP8 AND PUSH0 SWAP1 DUP2 MSTORE PUSH1 0x1 PUSH1 0x20 SWAP1 DUP2 MSTORE PUSH1 0x40 DUP1 DUP4 KECCAK256 SWAP4 DUP6 AND DUP4 MSTORE SWAP3 SWAP1 MSTORE KECCAK256 SLOAD PUSH1 0xFF AND ISZERO JUMPDEST ISZERO PUSH2 0x5AF JUMPI PUSH1 0x40 MLOAD PUSH4 0x711BEC91 PUSH1 0xE1 SHL DUP2 MSTORE PUSH1 0x1 PUSH1 0x1 PUSH1 0xA0 SHL SUB DUP1 DUP4 AND PUSH1 0x4 DUP4 ADD MSTORE DUP8 AND PUSH1 0x24 DUP3 ADD MSTORE PUSH1 0x44 ADD PUSH2 0x429 JUMP JUMPDEST PUSH2 0x43F DUP7 DUP7 DUP7 DUP7 DUP7 PUSH2 0x849 JUMP JUMPDEST PUSH2 0x5C4 PUSH2 0x5F9 JUMP JUMPDEST PUSH1 0x1 PUSH1 0x1 PUSH1 0xA0 SHL SUB DUP2 AND PUSH2 0x5ED JUMPI PUSH1 0x40 MLOAD PUSH4 0x1E4FBDF7 PUSH1 0xE0 SHL DUP2 MSTORE PUSH0 PUSH1 0x4 DUP3 ADD MSTORE PUSH1 0x24 ADD PUSH2 0x429 JUMP JUMPDEST PUSH2 0x5F6 DUP2 PUSH2 0x74C JUMP JUMPDEST POP JUMP JUMPDEST PUSH1 0x3 SLOAD PUSH1 0x1 PUSH1 0x1 PUSH1 0xA0 SHL SUB AND CALLER EQ PUSH2 0x523 JUMPI PUSH1 0x40 MLOAD PUSH4 0x118CDAA7 PUSH1 0xE0 SHL DUP2 MSTORE CALLER PUSH1 0x4 DUP3 ADD MSTORE PUSH1 0x24 ADD PUSH2 0x429 JUMP JUMPDEST PUSH1 0x1 PUSH1 0x1 PUSH1 0xA0 SHL SUB DUP5 AND PUSH2 0x64F JUMPI PUSH1 0x40 MLOAD PUSH4 0x2BFA23E7 PUSH1 0xE1 SHL DUP2 MSTORE PUSH0 PUSH1 0x4 DUP3 ADD MSTORE PUSH1 0x24 ADD PUSH2 0x429 JUMP JUMPDEST PUSH1 0x40 DUP1 MLOAD PUSH1 0x1 DUP1 DUP3 MSTORE PUSH1 0x20 DUP3 ADD DUP7 SWAP1 MSTORE DUP2 DUP4 ADD SWAP1 DUP2 MSTORE PUSH1 0x60 DUP3 ADD DUP6 SWAP1 MSTORE PUSH1 0x80 DUP3 ADD SWAP1 SWAP3 MSTORE SWAP1 PUSH2 0x43F PUSH0 DUP8 DUP5 DUP5 DUP8 PUSH2 0x8D5 JUMP JUMPDEST PUSH1 0x1 PUSH1 0x1 PUSH1 0xA0 SHL SUB DUP4 AND PUSH2 0x6A9 JUMPI PUSH1 0x40 MLOAD PUSH3 0x6A0D45 PUSH1 0xE2 SHL DUP2 MSTORE PUSH0 PUSH1 0x4 DUP3 ADD MSTORE PUSH1 0x24 ADD PUSH2 0x429 JUMP JUMPDEST PUSH1 0x40 DUP1 MLOAD PUSH1 0x1 DUP1 DUP3 MSTORE PUSH1 0x20 DUP3 ADD DUP6 SWAP1 MSTORE DUP2 DUP4 ADD SWAP1 DUP2 MSTORE PUSH1 0x60 DUP3 ADD DUP5 SWAP1 MSTORE PUSH1 0xA0 DUP3 ADD SWAP1 SWAP3 MSTORE PUSH0 PUSH1 0x80 DUP3 ADD DUP2 DUP2 MSTORE SWAP2 SWAP3 SWAP2 PUSH2 0x6E7 SWAP2 DUP8 SWAP2 DUP6 SWAP1 DUP6 SWAP1 PUSH2 0x8D5 JUMP JUMPDEST POP POP POP POP POP JUMP JUMPDEST PUSH1 0x1 PUSH1 0x1 PUSH1 0xA0 SHL SUB DUP5 AND PUSH2 0x717 JUMPI PUSH1 0x40 MLOAD PUSH4 0x2BFA23E7 PUSH1 0xE1 SHL DUP2 MSTORE PUSH0 PUSH1 0x4 DUP3 ADD MSTORE PUSH1 0x24 ADD PUSH2 0x429 JUMP JUMPDEST PUSH1 0x1 PUSH1 0x1 PUSH1 0xA0 SHL SUB DUP6 AND PUSH2 0x73F JUMPI PUSH1 0x40 MLOAD PUSH3 0x6A0D45 PUSH1 0xE2 SHL DUP2 MSTORE PUSH0 PUSH1 0x4 DUP3 ADD MSTORE PUSH1 0x24 ADD PUSH2 0x429 JUMP JUMPDEST PUSH2 0x6E7 DUP6 DUP6 DUP6 DUP6 DUP6 PUSH2 0x8D5 JUMP JUMPDEST PUSH1 0x3 DUP1 SLOAD PUSH1 0x1 PUSH1 0x1 PUSH1 0xA0 SHL SUB DUP4 DUP2 AND PUSH32 0xFFFFFFFFFFFFFFFFFFFFFFFF0000000000000000000000000000000000000000 DUP4 AND DUP2 OR SWAP1 SWAP4 SSTORE PUSH1 0x40 MLOAD SWAP2 AND SWAP2 SWAP1 DUP3 SWAP1 PUSH32 0x8BE0079C531659141344CD1FD0A4F28419497F9722A3DAAFE3B4186F6B6457E0 SWAP1 PUSH0 SWAP1 LOG3 POP POP JUMP JUMPDEST PUSH1 0x1 PUSH1 0x1 PUSH1 0xA0 SHL SUB DUP3 AND PUSH2 0x7DD JUMPI PUSH1 0x40 MLOAD PUSH3 0xCED3E1 PUSH1 0xE8 SHL DUP2 MSTORE PUSH0 PUSH1 0x4 DUP3 ADD MSTORE PUSH1 0x24 ADD PUSH2 0x429 JUMP JUMPDEST PUSH1 0x1 PUSH1 0x1 PUSH1 0xA0 SHL SUB DUP4 DUP2 AND PUSH0 DUP2 DUP2 MSTORE PUSH1 0x1 PUSH1 0x20 SWAP1 DUP2 MSTORE PUSH1 0x40 DUP1 DUP4 KECCAK256 SWAP5 DUP8 AND DUP1 DUP5 MSTORE SWAP5 DUP3 MSTORE SWAP2 DUP3 SWAP1 KECCAK256 DUP1 SLOAD PUSH1 0xFF NOT AND DUP7 ISZERO ISZERO SWAP1 DUP2 OR SWAP1 SWAP2 SSTORE SWAP2 MLOAD SWAP2 DUP3 MSTORE PUSH32 0x17307EAB39AB6107E8899845AD3D59BD9653F200F220920489CA2B5937696C31 SWAP2 ADD PUSH1 0x40 MLOAD DUP1 SWAP2 SUB SWAP1 LOG3 POP POP POP JUMP JUMPDEST PUSH1 0x1 PUSH1 0x1 PUSH1 0xA0 SHL SUB DUP5 AND PUSH2 0x872 JUMPI PUSH1 0x40 MLOAD PUSH4 0x2BFA23E7 PUSH1 0xE1 SHL DUP2 MSTORE PUSH0 PUSH1 0x4 DUP3 ADD MSTORE PUSH1 0x24 ADD PUSH2 0x429 JUMP JUMPDEST PUSH1 0x1 PUSH1 0x1 PUSH1 0xA0 SHL SUB DUP6 AND PUSH2 0x89A JUMPI PUSH1 0x40 MLOAD PUSH3 0x6A0D45 PUSH1 0xE2 SHL DUP2 MSTORE PUSH0 PUSH1 0x4 DUP3 ADD MSTORE PUSH1 0x24 ADD PUSH2 0x429 JUMP JUMPDEST PUSH1 0x40 DUP1 MLOAD PUSH1 0x1 DUP1 DUP3 MSTORE PUSH1 0x20 DUP3 ADD DUP7 SWAP1 MSTORE DUP2 DUP4 ADD SWAP1 DUP2 MSTORE PUSH1 0x60 DUP3 ADD DUP6 SWAP1 MSTORE PUSH1 0x80 DUP3 ADD SWAP1 SWAP3 MSTORE SWAP1 PUSH2 0x8CC DUP8 DUP8 DUP5 DUP5 DUP8 PUSH2 0x8D5 JUMP JUMPDEST POP POP POP POP POP POP POP JUMP JUMPDEST PUSH2 0x8E1 DUP6 DUP6 DUP6 DUP6 PUSH2 0x928 JUMP JUMPDEST PUSH1 0x1 PUSH1 0x1 PUSH1 0xA0 SHL SUB DUP5 AND ISZERO PUSH2 0x6E7 JUMPI DUP3 MLOAD CALLER SWAP1 PUSH1 0x1 SUB PUSH2 0x91A JUMPI PUSH1 0x20 DUP5 DUP2 ADD MLOAD SWAP1 DUP5 ADD MLOAD PUSH2 0x913 DUP4 DUP10 DUP10 DUP6 DUP6 DUP10 PUSH2 0x9AD JUMP JUMPDEST POP POP PUSH2 0x43F JUMP JUMPDEST PUSH2 0x43F DUP2 DUP8 DUP8 DUP8 DUP8 DUP8 PUSH2 0xACE JUMP JUMPDEST PUSH1 0x1 PUSH1 0x1 PUSH1 0xA0 SHL SUB DUP5 AND ISZERO DUP1 PUSH2 0x945 JUMPI POP PUSH1 0x1 PUSH1 0x1 PUSH1 0xA0 SHL SUB DUP4 AND ISZERO JUMPDEST PUSH2 0x99B JUMPI PUSH1 0x40 MLOAD PUSH3 0x461BCD PUSH1 0xE5 SHL DUP2 MSTORE PUSH1 0x20 PUSH1 0x4 DUP3 ADD MSTORE PUSH1 0x21 PUSH1 0x24 DUP3 ADD MSTORE PUSH32 0x5472616E73666572732064697361626C65643A20536F756C626F756E64204E46 PUSH1 0x44 DUP3 ADD MSTORE PUSH1 0x15 PUSH1 0xFA SHL PUSH1 0x64 DUP3 ADD MSTORE PUSH1 0x84 ADD PUSH2 0x429 JUMP JUMPDEST PUSH2 0x9A7 DUP5 DUP5 DUP5 DUP5 PUSH2 0xBB5 JUMP JUMPDEST POP POP POP POP JUMP JUMPDEST PUSH1 0x1 PUSH1 0x1 PUSH1 0xA0 SHL SUB DUP5 AND EXTCODESIZE ISZERO PUSH2 0x43F JUMPI PUSH1 0x40 MLOAD PUSH4 0xF23A6E61 PUSH1 0xE0 SHL DUP2 MSTORE PUSH1 0x1 PUSH1 0x1 PUSH1 0xA0 SHL SUB DUP6 AND SWAP1 PUSH4 0xF23A6E61 SWAP1 PUSH2 0x9F1 SWAP1 DUP10 SWAP1 DUP10 SWAP1 DUP9 SWAP1 DUP9 SWAP1 DUP9 SWAP1 PUSH1 0x4 ADD PUSH2 0x12FD JUMP JUMPDEST PUSH1 0x20 PUSH1 0x40 MLOAD DUP1 DUP4 SUB DUP2 PUSH0 DUP8 GAS CALL SWAP3 POP POP POP DUP1 ISZERO PUSH2 0xA2B JUMPI POP PUSH1 0x40 DUP1 MLOAD PUSH1 0x1F RETURNDATASIZE SWAP1 DUP2 ADD PUSH1 0x1F NOT AND DUP3 ADD SWAP1 SWAP3 MSTORE PUSH2 0xA28 SWAP2 DUP2 ADD SWAP1 PUSH2 0x133F JUMP JUMPDEST PUSH1 0x1 JUMPDEST PUSH2 0xA92 JUMPI RETURNDATASIZE DUP1 DUP1 ISZERO PUSH2 0xA58 JUMPI PUSH1 0x40 MLOAD SWAP2 POP PUSH1 0x1F NOT PUSH1 0x3F RETURNDATASIZE ADD AND DUP3 ADD PUSH1 0x40 MSTORE RETURNDATASIZE DUP3 MSTORE RETURNDATASIZE PUSH0 PUSH1 0x20 DUP5 ADD RETURNDATACOPY PUSH2 0xA5D JUMP JUMPDEST PUSH1 0x60 SWAP2 POP JUMPDEST POP DUP1 MLOAD PUSH0 SUB PUSH2 0xA8A JUMPI PUSH1 0x40 MLOAD PUSH4 0x2BFA23E7 PUSH1 0xE1 SHL DUP2 MSTORE PUSH1 0x1 PUSH1 0x1 PUSH1 0xA0 SHL SUB DUP7 AND PUSH1 0x4 DUP3 ADD MSTORE PUSH1 0x24 ADD PUSH2 0x429 JUMP JUMPDEST DUP1 MLOAD DUP2 PUSH1 0x20 ADD REVERT JUMPDEST PUSH1 0x1 PUSH1 0x1 PUSH1 0xE0 SHL SUB NOT DUP2 AND PUSH4 0xF23A6E61 PUSH1 0xE0 SHL EQ PUSH2 0x8CC JUMPI PUSH1 0x40 MLOAD PUSH4 0x2BFA23E7 PUSH1 0xE1 SHL DUP2 MSTORE PUSH1 0x1 PUSH1 0x1 PUSH1 0xA0 SHL SUB DUP7 AND PUSH1 0x4 DUP3 ADD MSTORE PUSH1 0x24 ADD PUSH2 0x429 JUMP JUMPDEST PUSH1 0x1 PUSH1 0x1 PUSH1 0xA0 SHL SUB DUP5 AND EXTCODESIZE ISZERO PUSH2 0x43F JUMPI PUSH1 0x40 MLOAD PUSH4 0xBC197C81 PUSH1 0xE0 SHL DUP2 MSTORE PUSH1 0x1 PUSH1 0x1 PUSH1 0xA0 SHL SUB DUP6 AND SWAP1 PUSH4 0xBC197C81 SWAP1 PUSH2 0xB12 SWAP1 DUP10 SWAP1 DUP10 SWAP1 DUP9 SWAP1 DUP9 SWAP1 DUP9 SWAP1 PUSH1 0x4 ADD PUSH2 0x135A JUMP JUMPDEST PUSH1 0x20 PUSH1 0x40 MLOAD DUP1 DUP4 SUB DUP2 PUSH0 DUP8 GAS CALL SWAP3 POP POP POP DUP1 ISZERO PUSH2 0xB4C JUMPI POP PUSH1 0x40 DUP1 MLOAD PUSH1 0x1F RETURNDATASIZE SWAP1 DUP2 ADD PUSH1 0x1F NOT AND DUP3 ADD SWAP1 SWAP3 MSTORE PUSH2 0xB49 SWAP2 DUP2 ADD SWAP1 PUSH2 0x133F JUMP JUMPDEST PUSH1 0x1 JUMPDEST PUSH2 0xB79 JUMPI RETURNDATASIZE DUP1 DUP1 ISZERO PUSH2 0xA58 JUMPI PUSH1 0x40 MLOAD SWAP2 POP PUSH1 0x1F NOT PUSH1 0x3F RETURNDATASIZE ADD AND DUP3 ADD PUSH1 0x40 MSTORE RETURNDATASIZE DUP3 MSTORE RETURNDATASIZE PUSH0 PUSH1 0x20 DUP5 ADD RETURNDATACOPY PUSH2 0xA5D JUMP JUMPDEST PUSH1 0x1 PUSH1 0x1 PUSH1 0xE0 SHL SUB NOT DUP2 AND PUSH4 0xBC197C81 PUSH1 0xE0 SHL EQ PUSH2 0x8CC JUMPI PUSH1 0x40 MLOAD PUSH4 0x2BFA23E7 PUSH1 0xE1 SHL DUP2 MSTORE PUSH1 0x1 PUSH1 0x1 PUSH1 0xA0 SHL SUB DUP7 AND PUSH1 0x4 DUP3 ADD MSTORE PUSH1 0x24 ADD PUSH2 0x429 JUMP JUMPDEST DUP1 MLOAD DUP3 MLOAD EQ PUSH2 0xBE4 JUMPI DUP2 MLOAD DUP2 MLOAD PUSH1 0x40 MLOAD PUSH4 0x5B059991 PUSH1 0xE0 SHL DUP2 MSTORE PUSH1 0x4 DUP2 ADD SWAP3 SWAP1 SWAP3 MSTORE PUSH1 0x24 DUP3 ADD MSTORE PUSH1 0x44 ADD PUSH2 0x429 JUMP JUMPDEST CALLER PUSH0 JUMPDEST DUP4 MLOAD DUP2 LT ISZERO PUSH2 0xCE6 JUMPI PUSH1 0x20 DUP2 DUP2 MUL DUP6 DUP2 ADD DUP3 ADD MLOAD SWAP1 DUP6 ADD SWAP1 SWAP2 ADD MLOAD PUSH1 0x1 PUSH1 0x1 PUSH1 0xA0 SHL SUB DUP9 AND ISZERO PUSH2 0xC98 JUMPI PUSH0 DUP3 DUP2 MSTORE PUSH1 0x20 DUP2 DUP2 MSTORE PUSH1 0x40 DUP1 DUP4 KECCAK256 PUSH1 0x1 PUSH1 0x1 PUSH1 0xA0 SHL SUB DUP13 AND DUP5 MSTORE SWAP1 SWAP2 MSTORE SWAP1 KECCAK256 SLOAD DUP2 DUP2 LT ISZERO PUSH2 0xC72 JUMPI PUSH1 0x40 MLOAD PUSH4 0x3DEE4C5 PUSH1 0xE0 SHL DUP2 MSTORE PUSH1 0x1 PUSH1 0x1 PUSH1 0xA0 SHL SUB DUP11 AND PUSH1 0x4 DUP3 ADD MSTORE PUSH1 0x24 DUP2 ADD DUP3 SWAP1 MSTORE PUSH1 0x44 DUP2 ADD DUP4 SWAP1 MSTORE PUSH1 0x64 DUP2 ADD DUP5 SWAP1 MSTORE PUSH1 0x84 ADD PUSH2 0x429 JUMP JUMPDEST PUSH0 DUP4 DUP2 MSTORE PUSH1 0x20 DUP2 DUP2 MSTORE PUSH1 0x40 DUP1 DUP4 KECCAK256 PUSH1 0x1 PUSH1 0x1 PUSH1 0xA0 SHL SUB DUP14 AND DUP5 MSTORE SWAP1 SWAP2 MSTORE SWAP1 KECCAK256 SWAP1 DUP3 SWAP1 SUB SWAP1 SSTORE JUMPDEST PUSH1 0x1 PUSH1 0x1 PUSH1 0xA0 SHL SUB DUP8 AND ISZERO PUSH2 0xCDC JUMPI PUSH0 DUP3 DUP2 MSTORE PUSH1 0x20 DUP2 DUP2 MSTORE PUSH1 0x40 DUP1 DUP4 KECCAK256 PUSH1 0x1 PUSH1 0x1 PUSH1 0xA0 SHL SUB DUP12 AND DUP5 MSTORE SWAP1 SWAP2 MSTORE DUP2 KECCAK256 DUP1 SLOAD DUP4 SWAP3 SWAP1 PUSH2 0xCD6 SWAP1 DUP5 SWAP1 PUSH2 0x13B7 JUMP JUMPDEST SWAP1 SWAP2 SSTORE POP POP JUMPDEST POP POP PUSH1 0x1 ADD PUSH2 0xBE7 JUMP JUMPDEST POP DUP3 MLOAD PUSH1 0x1 SUB PUSH2 0xD66 JUMPI PUSH1 0x20 DUP4 ADD MLOAD PUSH0 SWAP1 PUSH1 0x20 DUP5 ADD MLOAD SWAP1 SWAP2 POP DUP6 PUSH1 0x1 PUSH1 0x1 PUSH1 0xA0 SHL SUB AND DUP8 PUSH1 0x1 PUSH1 0x1 PUSH1 0xA0 SHL SUB AND DUP5 PUSH1 0x1 PUSH1 0x1 PUSH1 0xA0 SHL SUB AND PUSH32 0xC3D58168C5AE7397731D063D5BBF3D657854427343F4C083240F7AACAA2D0F62 DUP6 DUP6 PUSH1 0x40 MLOAD PUSH2 0xD57 SWAP3 SWAP2 SWAP1 SWAP2 DUP3 MSTORE PUSH1 0x20 DUP3 ADD MSTORE PUSH1 0x40 ADD SWAP1 JUMP JUMPDEST PUSH1 0x40 MLOAD DUP1 SWAP2 SUB SWAP1 LOG4 POP POP PUSH2 0x6E7 JUMP JUMPDEST DUP4 PUSH1 0x1 PUSH1 0x1 PUSH1 0xA0 SHL SUB AND DUP6 PUSH1 0x1 PUSH1 0x1 PUSH1 0xA0 SHL SUB AND DUP3 PUSH1 0x1 PUSH1 0x1 PUSH1 0xA0 SHL SUB AND PUSH32 0x4A39DC06D4C0DBC64B70AF90FD698A233A518AA5D07E595D983B8C0526C8F7FB DUP7 DUP7 PUSH1 0x40 MLOAD PUSH2 0xDB5 SWAP3 SWAP2 SWAP1 PUSH2 0x13D6 JUMP JUMPDEST PUSH1 0x40 MLOAD DUP1 SWAP2 SUB SWAP1 LOG4 POP POP POP POP POP JUMP JUMPDEST DUP1 CALLDATALOAD PUSH1 0x1 PUSH1 0x1 PUSH1 0xA0 SHL SUB DUP2 AND DUP2 EQ PUSH2 0xDDA JUMPI PUSH0 DUP1 REVERT JUMPDEST SWAP2 SWAP1 POP JUMP JUMPDEST PUSH0 DUP1 PUSH1 0x40 DUP4 DUP6 SUB SLT ISZERO PUSH2 0xDF0 JUMPI PUSH0 DUP1 REVERT JUMPDEST PUSH2 0xDF9 DUP4 PUSH2 0xDC4 JUMP JUMPDEST SWAP5 PUSH1 0x20 SWAP4 SWAP1 SWAP4 ADD CALLDATALOAD SWAP4 POP POP POP JUMP JUMPDEST PUSH1 0x1 PUSH1 0x1 PUSH1 0xE0 SHL SUB NOT DUP2 AND DUP2 EQ PUSH2 0x5F6 JUMPI PUSH0 DUP1 REVERT JUMPDEST PUSH0 PUSH1 0x20 DUP3 DUP5 SUB SLT ISZERO PUSH2 0xE2C JUMPI PUSH0 DUP1 REVERT JUMPDEST DUP2 CALLDATALOAD PUSH2 0xE37 DUP2 PUSH2 0xE07 JUMP JUMPDEST SWAP4 SWAP3 POP POP POP JUMP JUMPDEST PUSH0 PUSH1 0x20 DUP3 DUP5 SUB SLT ISZERO PUSH2 0xE4E JUMPI PUSH0 DUP1 REVERT JUMPDEST POP CALLDATALOAD SWAP2 SWAP1 POP JUMP JUMPDEST PUSH0 DUP2 MLOAD DUP1 DUP5 MSTORE DUP1 PUSH1 0x20 DUP5 ADD PUSH1 0x20 DUP7 ADD MCOPY PUSH0 PUSH1 0x20 DUP3 DUP7 ADD ADD MSTORE PUSH1 0x20 PUSH1 0x1F NOT PUSH1 0x1F DUP4 ADD AND DUP6 ADD ADD SWAP2 POP POP SWAP3 SWAP2 POP POP JUMP JUMPDEST PUSH1 0x20 DUP2 MSTORE PUSH0 PUSH2 0xE37 PUSH1 0x20 DUP4 ADD DUP5 PUSH2 0xE55 JUMP JUMPDEST PUSH0 DUP1 PUSH0 PUSH1 0x60 DUP5 DUP7 SUB SLT ISZERO PUSH2 0xEA7 JUMPI PUSH0 DUP1 REVERT JUMPDEST PUSH2 0xEB0 DUP5 PUSH2 0xDC4 JUMP JUMPDEST SWAP6 PUSH1 0x20 DUP6 ADD CALLDATALOAD SWAP6 POP PUSH1 0x40 SWAP1 SWAP5 ADD CALLDATALOAD SWAP4 SWAP3 POP POP POP JUMP JUMPDEST PUSH4 0x4E487B71 PUSH1 0xE0 SHL PUSH0 MSTORE PUSH1 0x41 PUSH1 0x4 MSTORE PUSH1 0x24 PUSH0 REVERT JUMPDEST PUSH1 0x40 MLOAD PUSH1 0x1F DUP3 ADD PUSH1 0x1F NOT AND DUP2 ADD PUSH8 0xFFFFFFFFFFFFFFFF DUP2 GT DUP3 DUP3 LT OR ISZERO PUSH2 0xF02 JUMPI PUSH2 0xF02 PUSH2 0xEC5 JUMP JUMPDEST PUSH1 0x40 MSTORE SWAP2 SWAP1 POP JUMP JUMPDEST PUSH0 PUSH8 0xFFFFFFFFFFFFFFFF DUP3 GT ISZERO PUSH2 0xF23 JUMPI PUSH2 0xF23 PUSH2 0xEC5 JUMP JUMPDEST POP PUSH1 0x5 SHL PUSH1 0x20 ADD SWAP1 JUMP JUMPDEST PUSH0 DUP3 PUSH1 0x1F DUP4 ADD SLT PUSH2 0xF3C JUMPI PUSH0 DUP1 REVERT JUMPDEST DUP2 CALLDATALOAD PUSH1 0x20 PUSH2 0xF51 PUSH2 0xF4C DUP4 PUSH2 0xF0A JUMP JUMPDEST PUSH2 0xED9 JUMP JUMPDEST DUP1 DUP4 DUP3 MSTORE PUSH1 0x20 DUP3 ADD SWAP2 POP PUSH1 0x20 DUP5 PUSH1 0x5 SHL DUP8 ADD ADD SWAP4 POP DUP7 DUP5 GT ISZERO PUSH2 0xF72 JUMPI PUSH0 DUP1 REVERT JUMPDEST PUSH1 0x20 DUP7 ADD JUMPDEST DUP5 DUP2 LT ISZERO PUSH2 0xF8E JUMPI DUP1 CALLDATALOAD DUP4 MSTORE SWAP2 DUP4 ADD SWAP2 DUP4 ADD PUSH2 0xF77 JUMP JUMPDEST POP SWAP7 SWAP6 POP POP POP POP POP POP JUMP JUMPDEST PUSH0 DUP3 PUSH1 0x1F DUP4 ADD SLT PUSH2 0xFA8 JUMPI PUSH0 DUP1 REVERT JUMPDEST DUP2 CALLDATALOAD PUSH8 0xFFFFFFFFFFFFFFFF DUP2 GT ISZERO PUSH2 0xFC2 JUMPI PUSH2 0xFC2 PUSH2 0xEC5 JUMP JUMPDEST PUSH2 0xFD5 PUSH1 0x1F DUP3 ADD PUSH1 0x1F NOT AND PUSH1 0x20 ADD PUSH2 0xED9 JUMP JUMPDEST DUP2 DUP2 MSTORE DUP5 PUSH1 0x20 DUP4 DUP7 ADD ADD GT ISZERO PUSH2 0xFE9 JUMPI PUSH0 DUP1 REVERT JUMPDEST DUP2 PUSH1 0x20 DUP6 ADD PUSH1 0x20 DUP4 ADD CALLDATACOPY PUSH0 SWAP2 DUP2 ADD PUSH1 0x20 ADD SWAP2 SWAP1 SWAP2 MSTORE SWAP4 SWAP3 POP POP POP JUMP JUMPDEST PUSH0 DUP1 PUSH0 DUP1 PUSH0 PUSH1 0xA0 DUP7 DUP9 SUB SLT ISZERO PUSH2 0x1019 JUMPI PUSH0 DUP1 REVERT JUMPDEST PUSH2 0x1022 DUP7 PUSH2 0xDC4 JUMP JUMPDEST SWAP5 POP PUSH2 0x1030 PUSH1 0x20 DUP8 ADD PUSH2 0xDC4 JUMP JUMPDEST SWAP4 POP PUSH1 0x40 DUP7 ADD CALLDATALOAD PUSH8 0xFFFFFFFFFFFFFFFF DUP1 DUP3 GT ISZERO PUSH2 0x104C JUMPI PUSH0 DUP1 REVERT JUMPDEST PUSH2 0x1058 DUP10 DUP4 DUP11 ADD PUSH2 0xF2D JUMP JUMPDEST SWAP5 POP PUSH1 0x60 DUP9 ADD CALLDATALOAD SWAP2 POP DUP1 DUP3 GT ISZERO PUSH2 0x106D JUMPI PUSH0 DUP1 REVERT JUMPDEST PUSH2 0x1079 DUP10 DUP4 DUP11 ADD PUSH2 0xF2D JUMP JUMPDEST SWAP4 POP PUSH1 0x80 DUP9 ADD CALLDATALOAD SWAP2 POP DUP1 DUP3 GT ISZERO PUSH2 0x108E JUMPI PUSH0 DUP1 REVERT JUMPDEST POP PUSH2 0x109B DUP9 DUP3 DUP10 ADD PUSH2 0xF99 JUMP JUMPDEST SWAP2 POP POP SWAP3 SWAP6 POP SWAP3 SWAP6 SWAP1 SWAP4 POP JUMP JUMPDEST PUSH0 DUP1 PUSH1 0x40 DUP4 DUP6 SUB SLT ISZERO PUSH2 0x10B9 JUMPI PUSH0 DUP1 REVERT JUMPDEST DUP3 CALLDATALOAD PUSH8 0xFFFFFFFFFFFFFFFF DUP1 DUP3 GT ISZERO PUSH2 0x10D0 JUMPI PUSH0 DUP1 REVERT JUMPDEST DUP2 DUP6 ADD SWAP2 POP DUP6 PUSH1 0x1F DUP4 ADD SLT PUSH2 0x10E3 JUMPI PUSH0 DUP1 REVERT JUMPDEST DUP2 CALLDATALOAD PUSH1 0x20 PUSH2 0x10F3 PUSH2 0xF4C DUP4 PUSH2 0xF0A JUMP JUMPDEST DUP3 DUP2 MSTORE PUSH1 0x5 SWAP3 SWAP1 SWAP3 SHL DUP5 ADD DUP2 ADD SWAP2 DUP2 DUP2 ADD SWAP1 DUP10 DUP5 GT ISZERO PUSH2 0x1111 JUMPI PUSH0 DUP1 REVERT JUMPDEST SWAP5 DUP3 ADD SWAP5 JUMPDEST DUP4 DUP7 LT ISZERO PUSH2 0x1136 JUMPI PUSH2 0x1127 DUP7 PUSH2 0xDC4 JUMP JUMPDEST DUP3 MSTORE SWAP5 DUP3 ADD SWAP5 SWAP1 DUP3 ADD SWAP1 PUSH2 0x1116 JUMP JUMPDEST SWAP7 POP POP DUP7 ADD CALLDATALOAD SWAP3 POP POP DUP1 DUP3 GT ISZERO PUSH2 0x114B JUMPI PUSH0 DUP1 REVERT JUMPDEST POP PUSH2 0x1158 DUP6 DUP3 DUP7 ADD PUSH2 0xF2D JUMP JUMPDEST SWAP2 POP POP SWAP3 POP SWAP3 SWAP1 POP JUMP JUMPDEST PUSH0 DUP2 MLOAD DUP1 DUP5 MSTORE PUSH1 0x20 DUP1 DUP6 ADD SWAP5 POP PUSH1 0x20 DUP5 ADD PUSH0 JUMPDEST DUP4 DUP2 LT ISZERO PUSH2 0x1191 JUMPI DUP2 MLOAD DUP8 MSTORE SWAP6 DUP3 ADD SWAP6 SWAP1 DUP3 ADD SWAP1 PUSH1 0x1 ADD PUSH2 0x1175 JUMP JUMPDEST POP SWAP5 SWAP6 SWAP5 POP POP POP POP POP JUMP JUMPDEST PUSH1 0x20 DUP2 MSTORE PUSH0 PUSH2 0xE37 PUSH1 0x20 DUP4 ADD DUP5 PUSH2 0x1162 JUMP JUMPDEST PUSH0 DUP1 PUSH1 0x40 DUP4 DUP6 SUB SLT ISZERO PUSH2 0x11BF JUMPI PUSH0 DUP1 REVERT JUMPDEST PUSH2 0x11C8 DUP4 PUSH2 0xDC4 JUMP JUMPDEST SWAP2 POP PUSH1 0x20 DUP4 ADD CALLDATALOAD DUP1 ISZERO ISZERO DUP2 EQ PUSH2 0x11DC JUMPI PUSH0 DUP1 REVERT JUMPDEST DUP1 SWAP2 POP POP SWAP3 POP SWAP3 SWAP1 POP JUMP JUMPDEST PUSH0 DUP1 PUSH1 0x40 DUP4 DUP6 SUB SLT ISZERO PUSH2 0x11F8 JUMPI PUSH0 DUP1 REVERT JUMPDEST POP POP DUP1 CALLDATALOAD SWAP3 PUSH1 0x20 SWAP1 SWAP2 ADD CALLDATALOAD SWAP2 POP JUMP JUMPDEST PUSH0 DUP1 PUSH1 0x40 DUP4 DUP6 SUB SLT ISZERO PUSH2 0x1218 JUMPI PUSH0 DUP1 REVERT JUMPDEST PUSH2 0x1221 DUP4 PUSH2 0xDC4 JUMP JUMPDEST SWAP2 POP PUSH2 0x122F PUSH1 0x20 DUP5 ADD PUSH2 0xDC4 JUMP JUMPDEST SWAP1 POP SWAP3 POP SWAP3 SWAP1 POP JUMP JUMPDEST PUSH0 DUP1 PUSH0 DUP1 PUSH0 PUSH1 0xA0 DUP7 DUP9 SUB SLT ISZERO PUSH2 0x124C JUMPI PUSH0 DUP1 REVERT JUMPDEST PUSH2 0x1255 DUP7 PUSH2 0xDC4 JUMP JUMPDEST SWAP5 POP PUSH2 0x1263 PUSH1 0x20 DUP8 ADD PUSH2 0xDC4 JUMP JUMPDEST SWAP4 POP PUSH1 0x40 DUP7 ADD CALLDATALOAD SWAP3 POP PUSH1 0x60 DUP7 ADD CALLDATALOAD SWAP2 POP PUSH1 0x80 DUP7 ADD CALLDATALOAD PUSH8 0xFFFFFFFFFFFFFFFF DUP2 GT ISZERO PUSH2 0x128C JUMPI PUSH0 DUP1 REVERT JUMPDEST PUSH2 0x109B DUP9 DUP3 DUP10 ADD PUSH2 0xF99 JUMP JUMPDEST PUSH0 PUSH1 0x20 DUP3 DUP5 SUB SLT ISZERO PUSH2 0x12A8 JUMPI PUSH0 DUP1 REVERT JUMPDEST PUSH2 0xE37 DUP3 PUSH2 0xDC4 JUMP JUMPDEST PUSH1 0x1 DUP2 DUP2 SHR SWAP1 DUP3 AND DUP1 PUSH2 0x12C5 JUMPI PUSH1 0x7F DUP3 AND SWAP2 POP JUMPDEST PUSH1 0x20 DUP3 LT DUP2 SUB PUSH2 0x12E3 JUMPI PUSH4 0x4E487B71 PUSH1 0xE0 SHL PUSH0 MSTORE PUSH1 0x22 PUSH1 0x4 MSTORE PUSH1 0x24 PUSH0 REVERT JUMPDEST POP SWAP2 SWAP1 POP JUMP JUMPDEST PUSH4 0x4E487B71 PUSH1 0xE0 SHL PUSH0 MSTORE PUSH1 0x32 PUSH1 0x4 MSTORE PUSH1 0x24 PUSH0 REVERT JUMPDEST PUSH0 PUSH1 0x1 PUSH1 0x1 PUSH1 0xA0 SHL SUB DUP1 DUP9 AND DUP4 MSTORE DUP1 DUP8 AND PUSH1 0x20 DUP5 ADD MSTORE POP DUP5 PUSH1 0x40 DUP4 ADD MSTORE DUP4 PUSH1 0x60 DUP4 ADD MSTORE PUSH1 0xA0 PUSH1 0x80 DUP4 ADD MSTORE PUSH2 0x1334 PUSH1 0xA0 DUP4 ADD DUP5 PUSH2 0xE55 JUMP JUMPDEST SWAP8 SWAP7 POP POP POP POP POP POP POP JUMP JUMPDEST PUSH0 PUSH1 0x20 DUP3 DUP5 SUB SLT ISZERO PUSH2 0x134F JUMPI PUSH0 DUP1 REVERT JUMPDEST DUP2 MLOAD PUSH2 0xE37 DUP2 PUSH2 0xE07 JUMP JUMPDEST PUSH0 PUSH1 0x1 PUSH1 0x1 PUSH1 0xA0 SHL SUB DUP1 DUP9 AND DUP4 MSTORE DUP1 DUP8 AND PUSH1 0x20 DUP5 ADD MSTORE POP PUSH1 0xA0 PUSH1 0x40 DUP4 ADD MSTORE PUSH2 0x1385 PUSH1 0xA0 DUP4 ADD DUP7 PUSH2 0x1162 JUMP JUMPDEST DUP3 DUP2 SUB PUSH1 0x60 DUP5 ADD MSTORE PUSH2 0x1397 DUP2 DUP7 PUSH2 0x1162 JUMP JUMPDEST SWAP1 POP DUP3 DUP2 SUB PUSH1 0x80 DUP5 ADD MSTORE PUSH2 0x13AB DUP2 DUP6 PUSH2 0xE55 JUMP JUMPDEST SWAP9 SWAP8 POP POP POP POP POP POP POP POP JUMP JUMPDEST DUP1 DUP3 ADD DUP1 DUP3 GT ISZERO PUSH2 0x29C JUMPI PUSH4 0x4E487B71 PUSH1 0xE0 SHL PUSH0 MSTORE PUSH1 0x11 PUSH1 0x4 MSTORE PUSH1 0x24 PUSH0 REVERT JUMPDEST PUSH1 0x40 DUP2 MSTORE PUSH0 PUSH2 0x13E8 PUSH1 0x40 DUP4 ADD DUP6 PUSH2 0x1162 JUMP JUMPDEST DUP3 DUP2 SUB PUSH1 0x20 DUP5 ADD MSTORE PUSH2 0x13FA DUP2 DUP6 PUSH2 0x1162 JUMP JUMPDEST SWAP6 SWAP5 POP POP POP POP POP JUMP INVALID LOG2 PUSH5 0x6970667358 0x22 SLT KECCAK256 DELEGATECALL EXTCODESIZE CODESIZE PUSH21 0x95BC31D9D7E99016A3311EE62D2E5B4AE6A2C8A28A SWAP3 0xB2 AND CALLDATALOAD CALLDATASIZE 0x4C SMOD PUSH5 0x736F6C6343 STOP ADDMOD NOT STOP CALLER "
    },
    "gasEstimates": {
      "creation": {
        "codeDepositCost": "1035400",
        "executionCost": "infinite",
        "totalCost": "infinite"
      },
      "external": {
        "FREEMIUM()": "271",
        "PAID()": "205",
        "adminBurn(address,uint256,uint256)": "infinite",
        "balanceOf(address,uint256)": "2657",
        "balanceOfBatch(address[],uint256[])": "infinite",
        "burn(uint256,uint256)": "infinite",
        "isApprovedForAll(address,address)": "infinite",
        "mint(address,uint256,uint256)": "infinite",
        "owner()": "2323",
        "renounceOwnership()": "infinite",
        "safeBatchTransferFrom(address,address,uint256[],uint256[],bytes)": "infinite",
        "safeTransferFrom(address,address,uint256,uint256,bytes)": "infinite",
        "setApprovalForAll(address,bool)": "26701",
        "supportsInterface(bytes4)": "575",
        "transferOwnership(address)": "28406",
        "uri(uint256)": "infinite"
      },
      "internal": {
        "_update(address,address,uint256[] memory,uint256[] memory)": "infinite"
      }
    },
    "methodIdentifiers": {
      "FREEMIUM()": "c83f2e39",
      "PAID()": "d31a03c2",
      "adminBurn(address,uint256,uint256)": "1b56a5be",
      "balanceOf(address,uint256)": "00fdd58e",
      "balanceOfBatch(address[],uint256[])": "4e1273f4",
      "burn(uint256,uint256)": "b390c0ab",
      "isApprovedForAll(address,address)": "e985e9c5",
      "mint(address,uint256,uint256)": "156e29f6",
      "owner()": "8da5cb5b",
      "renounceOwnership()": "715018a6",
      "safeBatchTransferFrom(address,address,uint256[],uint256[],bytes)": "2eb2c2d6",
      "safeTransferFrom(address,address,uint256,uint256,bytes)": "f242432a",
      "setApprovalForAll(address,bool)": "a22cb465",
      "supportsInterface(bytes4)": "01ffc9a7",
      "transferOwnership(address)": "f2fde38b",
      "uri(uint256)": "0e89341c"
    }
  },
  "storageLayout": {
    "storage": [
      {
        "astId": 311,
        "contract": "kneadmonthly.sol:KneadMembership",
        "label": "_balances",
        "offset": 0,
        "slot": "0",
        "type": "t_mapping(t_uint256,t_mapping(t_address,t_uint256))"
      },
      {
        "astId": 317,
        "contract": "kneadmonthly.sol:KneadMembership",
        "label": "_operatorApprovals",
        "offset": 0,
        "slot": "1",
        "type": "t_mapping(t_address,t_mapping(t_address,t_bool))"
      },
      {
        "astId": 319,
        "contract": "kneadmonthly.sol:KneadMembership",
        "label": "_uri",
        "offset": 0,
        "slot": "2",
        "type": "t_string_storage"
      },
      {
        "astId": 130,
        "contract": "kneadmonthly.sol:KneadMembership",
        "label": "_owner",
        "offset": 0,
        "slot": "3",
        "type": "t_address"
      }
    ],
    "types": {
      "t_address": {
        "encoding": "inplace",
        "label": "address",
        "numberOfBytes": "20"
      },
      "t_bool": {
        "encoding": "inplace",
        "label": "bool",
        "numberOfBytes": "1"
      },
      "t_mapping(t_address,t_bool)": {
        "encoding": "mapping",
        "key": "t_address",
        "label": "mapping(address => bool)",
        "numberOfBytes": "32",
        "value": "t_bool"
      },
      "t_mapping(t_address,t_mapping(t_address,t_bool))": {
        "encoding": "mapping",
        "key": "t_address",
        "label": "mapping(address => mapping(address => bool))",
        "numberOfBytes": "32",
        "value": "t_mapping(t_address,t_bool)"
      },
      "t_mapping(t_address,t_uint256)": {
        "encoding": "mapping",
        "key": "t_address",
        "label": "mapping(address => uint256)",
        "numberOfBytes": "32",
        "value": "t_uint256"
      },
      "t_mapping(t_uint256,t_mapping(t_address,t_uint256))": {
        "encoding": "mapping",
        "key": "t_uint256",
        "label": "mapping(uint256 => mapping(address => uint256))",
        "numberOfBytes": "32",
        "value": "t_mapping(t_address,t_uint256)"
      },
      "t_string_storage": {
        "encoding": "bytes",
        "label": "string",
        "numberOfBytes": "32"
      },
      "t_uint256": {
        "encoding": "inplace",
        "label": "uint256",
        "numberOfBytes": "32"
      }
    }
  },
  "userdoc": {
    "kind": "user",
    "methods": {},
    "version": 1
  }
}